:020000040800F2
:10000000B0060020ED0100081D3B0008892800080B
:10001000193B0008310300085D670008000000007C
:10002000000000000000000000000000B95B0008B4
:100030003503000800000000213B0008BD5B0008FC
:10004000070200080702000807020008070200086C
:10005000070200080702000807020008070200085C
:10006000070200080702000807020008070200084C
:10007000070200080702000807020008070200083C
:10008000070200080000000007020008070200083D
:10009000070200080702000807020008070200081C
:1000A000070200080702000807020008070200080C
:1000B00007020008070200080702000807020008FC
:1000C00007020008070200080702000807020008EC
:1000D00007020008070200080702000807020008DC
:1000E00007020008070200080702000807020008CC
:1000F00007020008070200080702000800000000CD
:1001000000000000070200080000000007020008CD
:1001100007020008000000000702000807020008AC
:10012000070200080702000807020008070200088B
:10013000070200080000000000000000070200089D
:10014000070200080702000800000000000000008D
:10015000000000000000000000000000000000009F
:10016000000000000000000000000000070200087E
:10017000070200080000000000000000000000006E
:10018000000000000702000800000000000000005E
:10019000000000000000000000000000000000005F
:1001A000000000000000000007020008070200082D
:1001B000070200080702000807020008000000000C
:1001C000000000000702000800000000000000001E
:1001D0000702000807020008DFF80CD000F090F8D2
:1001E0000048004775670008B006002006488047B1
:1001F00006480047FEE7FEE7FEE7FEE7FEE7FEE70C
:10020000FEE7FEE7FEE7FEE7655C0008D9010008AF
:100210002DE9F05F0546002092469B46884606463B
:10022000814640241BE0284641464746224600F0CE
:1002300057F853465A46C01A914110D311461846F2
:10024000224600F03EF82D1A67EB01084F46224681
:100250000120002100F035F817EB00094E41201E67
:10026000A4F10104DFDC484631462A464346BDE896
:10027000F09FD2B201E000F8012B491EFBD270477B
:100280000022F6E710B513460A4604461946FFF762
:10029000F0FF204610BD30B50B460146002020225D
:1002A000012409E021FA02F59D4205D303FA02F583
:1002B000491B04FA02F52844151EA2F10102F1DCE3
:1002C00030BD202A04DB203A00FA02F100207047FA
:1002D0009140C2F1200320FA03F319439040704784
:1002E000202A04DB203A21FA02F00021704721FA8B
:1002F00002F3D040C2F120029140084319467047F2
:100300001CB509480090094801900546009C06E08C
:10031000E06840F0010394E8070098471034AC42CD
:10032000F6D3FFF75DFF0000A87E0008C87E000836
:10033000FEE7000070470000EFF3108072B600BFC8
:10034000FEE7000090F85820012A04BF0220704701
:10035000B0B582B00022019200920368B3F1A04FC1
:1003600030D140F208344FF6006EC5F20004CFF6EB
:10037000FF7E54F80E209B681A43520722D4D1F80E
:1003800000C02268BCF1000F22F4604328D04A6804
:1003900090F8385042EA45321A4322604FF6005234
:1003A000CFF6FF72A25854F80E301A43D20727D165
:1003B000226840F61F7389689A43114341EA0C0191
:1003C0001DE000BFC16D41F02001C1650121002287
:1003D00080F8582002B0BDE8B0400846704700BF22
:1003E0004FF600512360CFF6FF71615854F80E208C
:1003F0001143C90704D1216840F61F72914321605F
:100400000021E4E7F0B581B00022009290F8582076
:10041000012A03D10221084601B0F0BD012307687B
:1004200080F85830BB685B0734D4D1E900351F260B
:10043000C5F3012407EB8404226B05F01F05AE40D1
:10044000C3F38463B243AB401A432263BA68BB6808
:1004500002F0040203F00803D21840F0BC800A68DE
:1004600007F114030426C2F34064D1F808E006EA59
:10047000D25C53F82440C2F304550722AA40BEF1CF
:10048000004F24EA02040BD143F80C401A6842F0F2
:1004900000430DE0C16D41F02001C165012178E10B
:1004A0000EFA05F2224343F80C201A6822F00043AA
:1004B0007B61D1E90435FC68042B5FD13A6E3A6E5A
:1004C0000B68C2F3846293FAA3F6C3F3846C6FF3F0
:1004D000DF43B6FA86F5002B2C464FF6FF7E08BFA9
:1004E0006446A242C0F2070E0CD13A6E22F00042DE
:1004F0003A660A6802EA0E03C2F3846C92FAA2F228
:10050000B2FA82F57A6E7A6E002BC2F384622C46C0
:1005100008BF6446A2420CD17A6E22F000427A668D
:100520000A6802EA0E03C2F3846C92FAA2F2B2FAEB
:1005300082F5BA6EBA6E002BC2F384622C4608BFF5
:100540006446A2420CD1BA6E22F00042BA660A6832
:1005500002EA0E03C2F3846C92FAA2F2B2FA82F5B6
:10056000FA6EFA6E002BC2F3846208BF6546AA4297
:1005700031D1FA6E22F00042FA662CE0062202EA3D
:10058000940205FA02FC0E6807F1600555F8234055
:100590004FF20002C0F2FF3206F0F846224046EA6F
:1005A0000C06324342F0004245F823200A698B6969
:1005B00055F8226026F08076334345F822300A69E8
:1005C0000B7F55F82260012B26F0007608BF06F15C
:1005D000007645F82260BA680D68D20750D1CA6823
:1005E000D7F8B0602B466FF3DF4326EA030C4FF6D3
:1005F000FF7602F01804C0F20706E64000242E4001
:10060000C4F27F0446EA0C06A242C7F8B06037D1B4
:1006100093B195FAA5F2B2FA82F2013202F01E030A
:10062000092B02F01F0310D801229A4003EB430369
:1006300042EA035315E000BF012202EB956202F08B
:100640001E030A2B02F01F03EED3012200269A405C
:1006500003EB4303CFF6206606EB03531A4342F045
:100660000073C3F3406607EB86068A687569C3F3B7
:10067000045307249C40A5439A402A4372610D68A5
:100680000021C8F208010D4200F0828040F2083CCF
:10069000C5F2000CDCF800400021CCF221318D4283
:1006A00004F0E07E04D01021C9F2C0018D4241D196
:1006B000B7F1A04F4FF0000108BF14F4000268D159
:1006C000DCF8001042F6635221F0E07141EA0E01BD
:1006D00041F40001CCF8001040F21001C2F2000118
:1006E0000968C0F23E528909A1FB0212910901EB8F
:1006F00041010C2202EB810100910099002947D0B1
:100700000099013900910099002941D000990139DF
:1007100000910099E1B30099013900910099B9B3B2
:10072000009901390091009900294FF00001E7D1AB
:100730002FE000BF0021CCF252718D4210D1002178
:10074000B1EB1E6F0CD1ACF502718F4220D0DCF8FA
:10075000001021F0E07141EA0E0141F0807115E0D6
:10076000ACF502718F424FF0000112D00022CCF69E
:100770008432954208BF14F480020AD1DCF80010DC
:1007800021F0E07141EA0E0141F48001CCF8001043
:100790000021002280F85820084601B0F0BD00007A
:1007A000B0B582B000210028019155D0C16D39B992
:1007B000044600F009F920460021216684F858100B
:1007C0000268916889004FF6C071C5F6FF7102D5C5
:1007D00093680B4093609368DB002ED4936801F11B
:1007E0008051194041F08051916040F21001C2F2F5
:1007F0000001096842F663538909C0F23E53A1FB28
:1008000003139909022303EB410101910199A1B15D
:10081000019901390191019979B101990139019148
:10082000019951B1019901390191019929B10199B8
:100830000139019101990029EAD19168C90011D4C7
:10084000C16D4FF0010E41F01001C165016E41F024
:100850000101016608E000BF4FF0010E704602B0D2
:10086000B0BD00BF4FF0000E9368C46D03F00403E9
:1008700004F010041B19C36D68D123F48173023393
:10088000C3659368DB071AD140F2083C4FF6005469
:100890004FF60063C5F2000CCFF6FF74CFF6FF737E
:1008A0005CF804405CF803302343DB0707D143685E
:1008B000DCF8004024F47C142343CCF80030437F60
:1008C000C46BD0E902C144EA4333194390F82430A1
:1008D00041EA0C01012B41EA034306D1816A00245D
:1008E000CFF6FE7404EB41410B43C46A24B1016BA3
:1008F00004F4787421430B43D16844F20704CFF623
:10090000F07421401943D1601169436B21F04061BB
:10091000194311619168090743D490F83810037F97
:10092000490041EA8331D36844F20204A3431943E6
:10093000D160036914698BB144F480311161D2F83C
:10094000C01043F6FF74A1430B4310E043F01002C4
:100950004FF0010EC265704602B0B0BD24F4803184
:100960001161D2F8C01043F6FF7321EA0303C2F805
:10097000C03090F84010136901290FD140F2FD7189
:1009800023EA010CD0E91134D0E9131543EA0C0332
:1009900023431943294341F0010301E023F00103FC
:1009A00013614169136B012923F00F0302D1016A1E
:1009B00001390B431363C26D012161F30102C2656A
:1009C000704602B0B0BD000010B598B004460020DB
:1009D0001790CDE91500CDE9130002A84421FFF7D7
:1009E0004FFC206840F20011C5F20001884231D06E
:1009F000B0F1A04F67D14FF4004002904FF000508B
:100A0000119002A800F090FA002818BFFFF794FC9C
:100A100040F24C01C2F200010A6841F24C00C4F2FB
:100A20000200531C0B6042B9016841F4005101609F
:100A3000016801F4005101910199016841F002013E
:100A40000160006800F00200019001984FF4A0409E
:100A50002DE000BF4FF4004002904FF00050119085
:100A600002A800F061FA002818BFFFF765FC40F209
:100A70004C01C2F200010A6841F24C00C4F20200CB
:100A8000531C0B6042B9016841F4005101600168D8
:100A900001F4005101910199016841F002010160E6
:100AA000006800F00200019001984FF4004013909C
:100AB000032014900020159040F20040C4F600007E
:100AC00013A900F017F818B010BD0000B0B5044627
:100AD00000F0F6F8054640F20400C2F2000040685B
:100AE000611C18BF044400BF00F0EAF8401BA0429C
:100AF000FAD3B0BD2DE9F04F83B00E68002E00F0A0
:100B0000CF8000F1200241F2004C009200F1384702
:100B1000C4F6000C06224FEAB725604508BF05223F
:100B2000052D38BF4FEAB722002500274FF00008F7
:100B300001920AE00E6808F1010836FA08F207F19E
:100B4000020705F1040500F0AB80012202FA08FE5D
:100B500016EA0E09EED0D1F804C003220CF0030B04
:100B6000ABF1010602FA07F4012E6FEA040A11D86C
:100B70008468CE6804EA0A04BE4034438460446852
:100B800024EA0E06CCF3001404FA08F42643466067
:100B900006E000BFBBF1030F02D14FF0030B21E0D1
:100BA000C6688C6806EA0A06BC402643BBF1020F01
:100BB000C66017D16FF00302009B02EA580605F0E9
:100BC0001C020F2453F806C004FA02FE0C692CEA3A
:100BD0000E0C04FA02F242EA0C029A51D1F804C057
:100BE0000CF0030B02680BFA07F302EA0A021A433D
:100BF0001CF4403F02609DD041F26003C4F2020346
:100C00001A6840F2004E42F001021A601A68C4F2FB
:100C1000010E02F001020292029A28F003024FF63E
:100C2000084C7244CFF6FF7C52F80C3005F00C06ED
:100C30000F24B440A343019C04FA06F6334342F860
:100C40000C30DEF808204B6842EA090640F20C4CF2
:100C5000DC0258BF22EA0906CEF80860C4F2010C93
:100C6000DCF800209C0242EA090658BF22EA090685
:100C7000CCF80060DEF804209C0342EA090658BF65
:100C800022EA0906CEF80460DEF80020DB0342EA1F
:100C9000090658BF22EA0906CEF800604AE700BFFD
:100CA00003B0BDE8F08F00000069084018BF0120C4
:100CB000704700001823002A08BF2823C15070473E
:100CC00040F2A820C2F200000068704740F2040021
:100CD00040F2A821C2F20000C2F2000140680A6896
:100CE000104408607047000080B5032000F07AF8D7
:100CF0000F2000F009F800281CBF012080BD00F083
:100D00002BF8002080BD0000B0B540F20405C2F20F
:100D100000056968F1B1044640F21000C2F200001B
:100D20004FF47A720068B2FBF1F1B0FBF1F000F021
:100D300089FE01460F2C4FF001000AD8002918BF88
:100D4000B0BD4FF0FF302146002200F01FF8002018
:100D50002C60B0BD0120B0BD82B041F25800C4F299
:100D60000200816841F001018160816801F00101A8
:100D700001910199016841F080510160006800F023
:100D800080500090009802B000F0C4B810B54EF644
:100D90000C5CCEF2000CDCF80030C3F3022E8EF0B7
:100DA0000704042C28BF0424BEF103034FF0FF3EC8
:100DB0000EFA04F438BF0023A14399400EFA03F35E
:100DC0009A43114300F00F0200F160430901043A15
:100DD00003F564436244002848BF02F10C03197014
:100DE00010BD00004EF60C51CEF200010A684FF61D
:100DF000FF031A4060F30A2242F0806040F0FD7069
:100E00000860704747F21401C4F2000151F8142C35
:100E1000B0F5007F3CD0002874D1C86E02F4C062E7
:100E200020F48070B2F5806FC8662FD151F8140C91
:100E3000012262F34A2041F8140C40F21000C2F281
:100E400000000068322250434DF68362C4F21B3228
:100E5000A0FB0202900C00BF0A68520511D5421C8B
:100E60000FD00A6852050CD558B10A68520508D54A
:100E7000012806D00A68520503D50228A0F1040013
:100E8000EAD10868400544BF03207047002070473E
:100E9000C86E02F4C06240F48070B2F5806FC8661C
:100EA000F4D151F8140C012262F34A2041F8140CD9
:100EB00040F21000C2F200000068322250434DF6AA
:100EC0008362C4F21B32A0FB0202900C0A68520536
:100ED00011D5421C0FD00A6852050CD558B10A68CA
:100EE000520508D5012806D00A68520503D5022804
:100EF000A0F10400EAD10868400544BF0320704710
:100F0000C4E700BF022060F34A2241F8142C0020FD
:100F10007047000047F20800C4F20000016841F485
:100F200080410160704700002DE9F04182B0044625
:100F3000807841F288060007C4F2020602D400203D
:100F40002FE000BF56F8300C5FEAC0080BD456F80B
:100F5000300C40F0805046F8300C56F8300C00F061
:100F600080500190019847F20007C4F200073868EA
:100F700040F480703860FFF7A3FE05463868C0056E
:100F800000F1D680FFF79CFE401B0228F6D9032013
:100F9000B8F1000F05D456F8301C21F0805146F806
:100FA000301C2168CA0713D18A0719D44A071FD4F5
:100FB0000A0725D48A062BD44A0631D40A0637D428
:100FC000CA053DD48A0543D44A0549D457E000BF39
:100FD0003268636822F003021A4332608A07E5D55B
:100FE0003268A36822F00C021A4332604A07DFD548
:100FF0003268E36822F030021A4332600A07D9D51A
:101000003268236922F0C0021A4332608A06D3D5BF
:101010003268636922F440621A4332604A06CDD5D1
:101020003268A36922F440521A4332600A06C7D5D7
:101030003268E36922F440421A433260CA05C1D5DE
:101040003268236A22F440321A4332608A05BBD5E3
:101050003268636A22F440221A4332604A050ED590
:101060003268A36A22F440121A43B3F5801F32603B
:1010700005D156F87C2C42F4801246F87C2C0A05E7
:101080000ED53268E36A22F440021A43B3F5800FAA
:10109000326005D156F87C2C42F4801246F87C2C44
:1010A000CA040ED53268236B22F040721A43B3F1A2
:1010B000807F326005D156F87C2C42F4801246F8CD
:1010C0007C2C8A040ED53268636B22F040621A438E
:1010D000B3F1006F326005D156F87C2C42F48012D7
:1010E00046F87C2C4A040ED53268A36B22F040628D
:1010F0001A43B3F1006F326005D156F87C2C42F4EC
:10110000801246F87C2C09040ED53168E26B21F080
:1011100040511143B2F1805F316005D156F87C1C1B
:1011200041F4803146F87C1C02B0BDE8F08100BF7C
:10113000B06810F4407010D0216C88420BD0B068B9
:10114000B16820F4407041F48031B160B16821F49D
:101150008031B160B060C0070CD1B068216C20F460
:1011600040700843B0600020B8F1000F3FF519AFA0
:1011700011E700BFFFF7A4FD054641F2883700BF25
:10118000B0688007E9D4FFF79BFD401BB842F7D950
:10119000FDE600002DE9F047002863D042F2000A86
:1011A000C4F2020A0446DAF800000D4600F00F000F
:1011B00081420CD9DAF8000020F00F002843CAF869
:1011C0000000DAF8000000F00F00A8424AD12168C0
:1011D00041F20808C807C4F2020803D1880740F1A9
:1011E000D080B5E0606858F8082C022838D0032871
:1011F0003CD1920136D5D8F80420D8F8043042F218
:101200000046C3F3031302F00302D8F8047001335D
:10121000C0F2F406032A04BF43F20066C0F26E1661
:10122000B6FBF3F2D8F80430C7F306277A43C3F3CA
:101230004163022707EB4303B2FBF3F24BF2004397
:10124000C0F2C4439A4259D9D8F8002012F0F00FE6
:1012500049D0890752D5A16800294FD143E000BF8A
:10126000910305D40120BDE8F08700BF5105F9D5F1
:10127000D8F8001001F00C0104293FD0D8F8001074
:1012800001F00C01082939D0D8F8001001F00C0148
:101290000C2933D1D8F80410D8F8042042F20047C2
:1012A000C2F3031201F00301D8F804300132C0F296
:1012B000F407032904BF43F20067C0F26E17B7FBBF
:1012C000F2F1D8F80420C3F306235943C2F3416274
:1012D000022303EB4202B1FBF2F14BF20042C0F2F7
:1012E000C44291420AD9D8F80010082262F30711CB
:1012F0004FF00109C8F8001002E000BF4FF00009EC
:10130000D8F8001021F003010843C8F80000FFF7E7
:10131000D7FC064641F28837D8F80000616800F033
:101320000C00B0EB810F07D0FFF7CAFC801BB8425E
:10133000F2D90320BDE8F0872168880708D4B9F105
:10134000000F1ED0D8F8000020F0F00017E000BF1A
:10135000480705D5D8F8000040F4E060C8F8000060
:10136000080706D5D8F80000072262F30D20C8F858
:101370000000D8F80000A26820F0F0001043C8F880
:101380000000DAF8000000F00F0085421BD2DAF806
:10139000000020F00F002843CAF80000FFF790FC7F
:1013A000064641F2883700BFDAF8000000F00F006F
:1013B000A84207D0FFF784FC801BB842F4D9032071
:1013C000BDE8F0872168480707D5D8F80000E26833
:1013D00020F4E0601043C8F80000080708D5D8F8EA
:1013E0000000216920F4605040EAC100C8F8000004
:1013F000D8F8000042F20041C0F2F40100F00C0005
:10140000042808462DD0D8F8000000F00C00082869
:1014100043F20060C0F26E1023D0D8F8002002F032
:101420000C020C2A1CD1D8F80420D8F8043002F0A1
:101430000302C3F30313D8F804700133032A08BF6F
:101440000146B1FBF3F0D8F80410C7F30627C1F347
:1014500041610222784302EB4101B0FBF1F000E070
:101460000020D8F8001046F66842C1F30311C0F618
:101470000002515C40F2100201F01F0120FA01F15C
:1014800040F20400C2F200000068C2F200021160E3
:10149000BDE8F047FFF738BC40F2100041F2080108
:1014A000C2F20000C4F202010068096846F6784200
:1014B000C1F30221C0F60002515C01F01F01C840D7
:1014C0007047000040F2100041F20801C2F2000033
:1014D000C4F202010068096846F67842C1F3C221ED
:1014E000C0F60002515C01F01F01C84070470000C7
:1014F00041F20C01C4F2020151F8040C42F2004224
:10150000C0F2F40200F00C000428104608BF704737
:1015100051F8040C00F00C00082843F20060C0F2FF
:101520006E1025D051F8043C03F00C030C2B1CBFAB
:101530000020704780B5D1F800C00B680CF0030C98
:10154000C3F3031E0B680EF1010EBCF1030F08BFBD
:1015500002460968B2FBFEF0C3F30623C1F3416102
:101560000222584302EB4101B0FBF1F0BDE880409C
:1015700070470000002804BF012070472DE9F041AA
:1015800082B00446007841F20006C007C4F20206A9
:101590001ED1207880073DD42078000764D42078BD
:1015A000400700F187802078800600F1D980E56946
:1015B000002D00F04282B06800F00C000C2840F0D2
:1015C0003181012D40F08E81012002B0BDE8F08113
:1015D000B06800F00C01F068082961D0032281F0A6
:1015E0000C0122EA00000844B0FA80F0400957D10B
:1015F00061683068B1F5803F07D0B1F5A02F40F0A9
:10160000E38040F480203060306840F48030306007
:10161000E4E000BFB068F16800F00C00042871D06D
:1016200001F0030180F00C0081F002010844B0FADF
:1016300080F0400966D1E1683068002900F0E08060
:1016400040F480703060FFF73BFB05463068400592
:1016500000F10A81FFF734FB401B0228F6D9032072
:1016600002B0BDE8F08100BF6169D6F8940000299E
:1016700000F0948040F00100C6F89400FFF720FBD2
:10168000054600BFD6F8940080073FF588AFFFF706
:1016900017FB401B0228F5D9032002B0BDE8F081FA
:1016A000306880037FF575AF606800287FF471AF04
:1016B0003EE000BFB06D5FEAC00808D4B06D40F0F6
:1016C0008050B065B06D00F080500190019847F2F5
:1016D0000007C4F200073868C0052DD4386840F40C
:1016E00080703860FFF7ECFA054600BF3868C00527
:1016F00022D4FFF7E5FA401B0228F7D9032002B0F5
:10170000BDE8F0813068400501D5E06880B17068BF
:10171000216920F0FE4040EA0160706040F2040060
:10172000C2F200000068FFF7EFFA00283FF434AF80
:10173000012002B0BDE8F081A168D6F8900001292F
:1017400008D0052940F0AE8040F00400C6F89000B3
:10175000D6F8900040F00100C6F89000AEE000BF5F
:10176000A169D6F89800002900F0868040F00100B9
:10177000C6F89800FFF7A4FA054600BFD6F898000F
:1017800080073FF514AFFFF79BFA401B02284FF08C
:101790000300F3D902B0BDE8F08100BF20F00100E2
:1017A000C6F89400FFF78CFA054600BFD6F89400FF
:1017B00080077FF5F4AEFFF783FA401B0228F5D9C6
:1017C000032002B0BDE8F08120F480303060306842
:1017D000002920F48020306000F0BE80FFF770FA0E
:1017E000054600BF306880033FF5D3AEFFF768FAC7
:1017F000401B6428F6D9032002B0BDE8F08100BF89
:1018000020F480703060FFF75BFA054630684005D1
:101810007FF5C2AEFFF754FA401B02284FF00300D9
:10182000F4D9B7E7306820F080703060FFF748FAED
:10183000022D05460CD100BF3068800140F1B88010
:10184000FFF73EFA401B02284FF00300F4D9A1E74E
:101850003068800140F1EA80FFF732FA401B02282D
:101860004FF00300F4D995E77068216920F0FE403D
:1018700040EA016070608FE620F00100C6F8980031
:10188000FFF71EFA054600BFD6F8980080077FF5DF
:101890008EAEFFF715FA401B02284FF00300F3D974
:1018A00078E700BF20F00100C6F89000D6F890005D
:1018B000002920F00400C6F890005DD0FFF700FA80
:1018C000054641F2883700BFD6F89000800765D4FE
:1018D000FFF7F6F9401BB842F6D9032002B0BDE885
:1018E000F08100BFF068216A00F003028A427FF4B1
:1018F0001FAF626A6FF00F0300F0F00103EB0212FA
:1019000091427FF415AFA16A00F4FE42B2EB012FC1
:101910007FF40EAFE16A00F07842B2EBC16F7FF462
:1019200007AF226B0023CFF6E07303EA025200F404
:10193000C001A2F5001291427FF4FAAE616B4FF044
:101940007E4202EA016100F0C06001F17E418842FE
:101950007FF4EEAE71E000BFFFF7B2F9054600BFBD
:10196000306880037FF515AEFFF7AAF9401B6428A5
:101970004FF00300F4D90DE7FFF7A2F9054641F255
:10198000883700BFD6F89000800707D5FFF798F991
:10199000401BB8424FF00300F4D9FBE6B8F1000F4A
:1019A0003FF501AEB06D20F08050B065FBE500BFA3
:1019B000F06848F20C01C0F29F1104F1200700EA20
:1019C000010C8ECF6FF00F00D4E90C5400EB021025
:1019D0000022CFF6E07241EA0C0102EA0552084308
:1019E000A2F500124FF07E4540EA032005EA0465A7
:1019F000104305F17E4540EAC7602843F060306837
:101A000040F080703060F06840F08070F060FFF768
:101A100057F90446306880010FD4FFF751F9001BD5
:101A200002284FF00300F5D9B4E600BFF0684FF686
:101A3000FC71CFF6EE610840F060002002B0BDE816
:101A4000F0810000411E0020B0EB116F1CBF01208F
:101A500070474EF21002CEF2000251604EF6235152
:101A6000CEF20001F0230B700721906011607047E7
:101A700090F83C20012A04BF02207047B0B5D1E99C
:101A80000232D1E900CE22F47C5223F4705343EAAF
:101A9000020448F2FF73CEF6F0730EEA030222430B
:101AA00003F5006404EA0C0442EA040C0C6903F533
:101AB000C05222404C6942EA0C02224303F56054B2
:101AC00022400C6B03F5F04323401A438B6940F22C
:101AD000000CCC69CEF6FF7C0CEA034C1443026880
:101AE00043F20043C4F201039A4244EA0C0305D0D6
:101AF00042F60044C4F20104A24217D14FF6FF742B
:101B0000CDF60F4403EA040ED1E9084CD1E90A31BD
:101B10000025CDF6F04505EA035343EA0E0324F011
:101B200008552B432CF000552B430B4300215364E5
:101B300080F83C100020B0BD90F83C20012A4FF006
:101B400002024AD070B580F83D20026843F2004C92
:101B500054689368C4F2010C42F6004E6245C4F228
:101B6000010E01D0724503D14D6824F470042C435A
:101B70004FF68F75CFF6FF550E682C4042F6FF35B5
:101B8000C4F201053443AA4254600FDCB2F1804F25
:101B900016D040F20046C4F20006B24210D040F621
:101BA0000006C4F20006B2420AD00EE0724507D029
:101BB00044F20006C4F20106B24201D0624504D1EB
:101BC000896823F08003194391600121002280F885
:101BD0003D1080F83C20BDE8704010467047000082
:101BE000002804BF0120704710B5044690F83D005E
:101BF00028B9002084F83C00204600F023F8022099
:101C000084F83D002068211D04F036F8012084F896
:101C1000480084F83E0084F83F0084F8400084F8CF
:101C2000410084F8420084F8430084F8440084F8BA
:101C3000450084F8460084F8470084F83D00002001
:101C400010BD000080B586B000680021B0F1804F63
:101C50000591CDE903110291019101D006B080BD3B
:101C600041F24C00C4F20200C26842F00102C260BC
:101C7000C26802F001020092009A026842F001027A
:101C80000260006800F00100009000980220CDE999
:101C900001000120CDE90311059001A94FF090400A
:101CA000FEF728FF06B080BD90F83C30012B04BF42
:101CB000022070474FEAB202032A00F29180F0B589
:101CC000DFE802F002682A4A0368D1E900C5D1F8CA
:101CD0000CE01C6A1A6A42F6FF3722F001021A620F
:101CE0001A4652F8186FC4F20107BB4200F37E8017
:101CF000B3F1804F00F08C8040F20047C4F200073F
:101D0000BB4200F0858040F60007C4F20007BB42EA
:101D100000F07E8098E000BF0768D1E900C5D1E9F6
:101D200002313C6A3A6A61F3071522F480723A6222
:101D30003A4652F81C6F26F0F30645EA060124F4F1
:101D400020660CF00A0546EA052611603E6211681D
:101D500021F00C0111606CE00368D1E900E6D1E9E3
:101D600002C11C6A1A6A360222F480521A621A46AA
:101D700052F81C5F4FF2FF07BE4325F4734561F331
:101D80000F3624F420440EF00A0746EA050144EA1F
:101D900007371CE00368D1E900E6D1E902C11C6AFB
:101DA0001A6A360222F010021A621A4652F8185FB6
:101DB0004FF2FF07BE4325F4734561F30F3624F05D
:101DC000A0040EF00A0746EA050144EA071711606D
:101DD0001F6211684FEA0C2321F44061116028E072
:101DE0000121002280F83C200846704742F6004757
:101DF000C4F20107BB420BD044F20007C4F2010752
:101E0000BB4205D043F20047C4F20107BB421BD1DD
:101E100026F00306354324F00A070CF00A066EF399
:101E2000071537449D611F629F6927F00C079F616A
:101E30008B681168194311600021BDE8F040002251
:101E400080F83C200846704746F00105E3E70000B3
:101E5000002804BF0120704710B5044690F83D00EB
:101E600028B9002084F83C00204600F023F8022026
:101E700084F83D002068211D03F0FEFE012084F857
:101E8000480084F83E0084F83F0084F8400084F85D
:101E9000410084F8420084F8430084F8440084F848
:101EA000450084F8460084F8470084F83D0000208F
:101EB00010BD00007047000090F83C30012B04BFBB
:101EC000022070474FEAB202052A00F2D3812DE9C1
:101ED000F041DFE812F0070035018D00E10051000C
:101EE000870100BF03681D6A1A6AA3F1804622F0C9
:101EF00001021A621A465C6852F818CF8F68A6F57C
:101F00009636D1F800E025F002054FEAB626072EF6
:101F100045EA07050AD80127B74017F0E50F1FBFAC
:101F2000CF6825F00C0527F004073D43072E0BD89A
:101F3000012707FA06F616F0E50F1FBFD1E905677E
:101F400024F4407434433C434FF68C76CFF6FE764F
:101F50000CEA060747EA0E075C609F614F68096953
:101F60005F631D629F6947F008079F619F6927F0C3
:101F700004079F6173E100BF0368D3F820C01A6AA9
:101F8000A3F1804722F480321A621A46A7F59637E9
:101F90005D6852F8508FD1F800E08E684FEAB7279D
:101FA000072F09D80124BC4014F0E50F1EBF4C696F
:101FB00025F4803545EA04252CF4003747EA064726
:101FC0004FF68C76CFF6FE76033606EA080646EA2A
:101FD0000E065D601E654E6809699E641F621F6D76
:101FE00047F008071F651F6D27F004071F6536E1DE
:101FF000036843F200461D6A1A6AC4F2010622F41D
:1020000080721A621A46D3F804C052F81CEFB34229
:102010008E68D1F8008025F4007545EA062505D0C4
:1020200042F60046C4F20106B34207D1CE6840F240
:10203000FF47360225F44065BE433543A3F1804691
:10204000A6F596364FEAB626072E0CD8012707FAD2
:1020500006F616F0E50F1FBFD1E905672CF44054D2
:10206000374344EA071C4FF68C74CFF6FE740EEA31
:10207000040747EA0807C3F804C0DF614F6809692D
:10208000DF631D62DF6947F00807DF61DF6927F062
:102090000407DF61E3E000BF036843F200461D6A06
:1020A0001A6AC4F2010622F480521A621A46D3F860
:1020B00004C052F81C8FB3428E68D1F800E025F4BA
:1020C000005545EA063505D042F60046C4F2010641
:1020D000B34207D1CE6844F6FF77360325F4404576
:1020E000BE433543A3F18046A6F596364FEAB626A1
:1020F000072E0CD8012707FA06F616F0E50F1FBFCA
:10210000D1E905672CF44044374344EA871C48F67C
:10211000FF44CFF6FF6404EA080444EA0E27C3F83C
:1021200004C0DF614F6809691F641D62DF6947F4FD
:102130000067DF61DF6927F48067DF618EE000BF41
:10214000036843F200461D6A1A6AC4F2010622F0CF
:1021500010021A621A465C6852F818CFB3428E68B1
:10216000D1F800E025F0200545EA061505D042F635
:102170000046C4F20106B34207D1CE686FF04007B3
:1021800025F0C00507EA06163543A3F18046A6F5FB
:1021900096364FEAB626072E0CD8012707FA06F620
:1021A00016F0E50F1FBFD1E9056724F440643E43F4
:1021B00044EA860448F6FF46CFF6FF660CEA0607B7
:1021C00047EA0E275C609F614F6809699F631D6243
:1021D0009F6947F400679F619F6927F480679F614B
:1021E0003CE000BF0368D3F820C01A6AA3F180471F
:1021F00022F480121A621A46A7F596375D6852F8E3
:10220000508FD1F800E08E684FEAB727072F09D822
:102210000124BC4014F0E50F1EBF4C6925F4802555
:1022200045EA84252CF4001747EA065748F6FF468E
:10223000CFF6FF6606F5407606EA080646EA0E2661
:102240005D601E654E680969DE641F621F6D47F49C
:1022500000671F651F6D27F480671F6509021368FB
:10226000194311600021BDE8F041002280F83C20B4
:10227000084670470121002280F83C20084670473C
:10228000002804BF0120704710B5044690F83D00B7
:1022900028B9002084F83C00204600F023F80220F2
:1022A00084F83D002068211D03F0E6FC012084F83D
:1022B000480084F83E0084F83F0084F8400084F829
:1022C000410084F8420084F8430084F8440084F814
:1022D000450084F8460084F8470084F83D0000205B
:1022E00010BD000082B0006840F20041C4F200015D
:1022F000884215D042F60041C4F2010188421CD147
:1023000041F25800C4F20200816841F4006181602A
:10231000806800F400600190019802B0704700BF2F
:1023200041F25800C4F20200016841F0020101606C
:10233000006800F002000090009802B070470000B2
:10234000B0B5044690F83C0001284FF0020008BFE9
:10235000B0BD012584F83C5084F83D00204603F0D0
:1023600025FD00284FF0010006D0002184F83D50E3
:1023700084F83C10B0BD00BF2068C16821F0400166
:10238000C160C16821F48041C1600020002184F84F
:102390003D5084F83C10B0BD90F88410012904BF72
:1023A000022070472421C0F8881001680A680B6871
:1023B00022F0005223F001030B60002343660A6001
:1023C0002021C0F8881080F8843000207047000079
:1023D00090F88420012A04BF02207047B0B524225F
:1023E000C0F888200268D0F864E0D2F800C0136812
:1023F000BEF1000F23F001031360936823F06063C4
:1024000041EA0301916019D09368916847F6786EAC
:10241000490FC0F6000E47F680651EF80140C0F671
:102420000005695CC3F34263E400B4FBF1F11EF8FC
:102430000340EB5CE500B5FBF3F301E00121012370
:10244000A0F86A102021A0F86830C2F800C0C0F8D7
:102450008810002180F884100020B0BD90F88420FE
:10246000012A04BF02207047B0B52422C0F888209A
:102470000268D0F864E0D2F800C01368BEF1000F23
:1024800023F001031360936823F0604341EA0301E2
:10249000916019D09368916847F6786E490FC0F63D
:1024A000000E47F680651EF80140C0F60005695C25
:1024B000C3F34263E400B4FBF1F11EF80340EB5CAC
:1024C000E500B5FBF3F301E001210123A0F86A1058
:1024D0002021A0F86830C2F800C0C0F888100021A0
:1024E00080F884100020B0BD10B5D0B10446D0F8FB
:1024F000880028B9002084F88400204600F026F8DF
:102500002420C4F888002068A16A026822F0010231
:10251000026011B1204603F0FBFC204603F02CFEC4
:1025200010B1012010BD00BF2168486820F4904020
:102530004860886820F02A008860086840F001023E
:1025400020460A60BDE8104003F056BDB0B598B013
:10255000044602A8002508303C211795CDE9155501
:10256000CDE91355FDF78CFE206843F60001C4F257
:102570000101884202D018B0B0BD00BF0120CDE9F2
:10258000020502A8FEF7D0FC002818BFFDF7D4FE14
:1025900041F24C00C4F20200416941F480414161C2
:1025A000416901F4804101910199016841F0010103
:1025B0000160006813A900F00100019001984FF438
:1025C000C0601390022014900020CDE91500072070
:1025D00017904FF09040FEF78DFA18B0B0BD000094
:1025E0002DE9F04381B00446D0F88C00202809D1B1
:1025F0000E4600294FF0010018BF002A06D101B095
:10260000BDE8F083022001B0BDE8F0830020222164
:102610009946C4F89000C4F88C10E0661546FEF7A1
:102620004FFBA4F85C50A4F85E50A1688046C9B185
:10263000B1F1805F12D0B1F5805F17D12069FF271B
:10264000014600281CBF31460026002808BF40F282
:10265000FF17A4F8607035460E4617E0206918B1E0
:102660003F2706E0206918B17F2702E0002700E03D
:10267000FF270025A4F8607008E000BF384006F886
:10268000010BB4F85E000138A4F85E00B4F85E00F7
:1026900090B12046202100224346CDF8009003F05F
:1026A000C1FE88B92068002E406AE7D1384025F87D
:1026B000020B0026E5E700BF00202021C4F88C10A3
:1026C00001B0BDE8F08300BF03202021C4F88C10C6
:1026D00001B0BDE8F08300002DE9F04381B004466D
:1026E000D0F88800202809D100294FF0010018BF38
:1026F000002A07D101B0BDE8F08300BF022001B07D
:10270000BDE8F0830020C4F8900021201D460E464D
:10271000C4F888001746FEF7D3FAA4F85470A4F85A
:102720005670A1688146B1F5805F02D1206900280A
:1027300066D037460020B4F856202168002A67D0BA
:102740006A1C28D0002D53D0804600BFC8690006FF
:102750000AD4FEF7B5FAA0EB0900A84200F2848083
:1027600021680868F2E700BF17B117F8010B04E011
:1027700038F8020B00276FF35F208862B4F8560028
:102780000138A4F85600B4F856000028DED13FE026
:10279000CA69120609D4CA69120606D4CA691206A1
:1027A0005CBFCA695FEA0262F2D51FB117F8012B5C
:1027B00005E000BF30F8022B00276FF35F228A622A
:1027C000B4F85620013AA4F85620B4F85620002A4E
:1027D000E1D11DE030F8022B00276FF35F228A62FF
:1027E000B4F85620013AA4F85620B4F856207AB12D
:1027F000CA69120636D5002FECD017F8012BEEE788
:1028000000273046B4F856202168002A7FF498AF9C
:10281000C86940061ED42DB3681C14D1C86940068F
:102820002AD4C869400627D4C869400624D4C86998
:1028300040064FF00000F1D50DE000BF20680168B0
:10284000C069400618D4FEF73BFAA0EB0900A84285
:10285000F4D909E000202021C4F8881001B0BDE8B7
:10286000F08300BFFEF72CFA03202021C4F8881063
:1028700001B0BDE8F08300BF00202021C4F888101B
:1028800001B0BDE8F0830000FEE7000010B503F0E2
:1028900061F9002003F04AF9012003F047F903F041
:1028A00051F90446002003F041F9012003F03EF9FC
:1028B00003F048F9A10041EA4004002003F036F992
:1028C000012003F033F903F03DF90443002003F045
:1028D0002DF9012003F02AF903F034F9A10041EAAF
:1028E0004004002003F022F9012003F01FF903F057
:1028F00029F90443002003F019F9012003F016F927
:1029000003F020F9A10041EA4004002003F00EF991
:10291000012003F00BF903F015F90443002003F044
:1029200005F9012003F002F903F00CF940EA440430
:10293000002003F0FBF803F02BF9E0B210BD00001B
:10294000B0B50446002003F0F1F804F0800003F075
:1029500013F9012003F0EAF8002003F0E7F88025DE
:1029600005EA440003F008F9012003F0DFF8002035
:1029700003F0DCF805EA840003F0FEF8012003F020
:10298000D5F8002003F0D2F805EAC40003F0F4F80B
:10299000012003F0CBF8002003F0C8F805EA04108A
:1029A00003F0EAF8012003F0C1F8002003F0BEF8BC
:1029B00005EA441003F0E0F8012003F0B7F8002026
:1029C00003F0B4F805EA841003F0D6F80120E4011E
:1029D00003F0ACF8002003F0A9F8E0B203F0CCF863
:1029E000012003F0A3F80020BDE8B04003F09EB83A
:1029F00010B503F0AFF8012003F098F803F0A2F847
:102A0000E0B103F09FF8C8B103F09CF8B0B103F057
:102A100099F898B103F096F880B103F0B9F8002066
:102A200003F084F8002003F0A7F80120012403F04C
:102A30007DF8012003F0A0F8204610BD03F0A8F8AF
:102A40000020002403F072F8204610BDB0B540F21B
:102A50000045C4F6000528460121FEF725F908B116
:102A6000002409E00A20FEF731F828460121FEF78C
:102A70001BF9B0FA80F0440928460221FEF714F948
:102A800048B90A20FEF722F828460221FEF70CF981
:102A9000002808BF022428460421FEF705F948B99A
:102AA0000A20FEF713F828460421FEF7FDF8002857
:102AB00008BF03244FF090400121FEF7F5F808B15C
:102AC0002046B0BD0A20FEF701F84FF090400121EA
:102AD000FEF7EAF8002808BF04242046B0BD000035
:102AE00040F21841C4F600010A6942F400720A611A
:102AF0000A6942F480720A610A6842F020020A60A0
:102B00002022C1F8FC230A6942F020020A6100BFBA
:102B100000BF00BF0A6842F020020A600A6842F45F
:102B200080720A600022C1F8FC230B6943F0200385
:102B30000B6100BF00BF00BF0B6843F020030B60B8
:102B40000B6843F480730B600B6943F400730B61F3
:102B50000B6943F480730B610B6843F020030B6037
:102B60002123C1F8FC330B6943F020030B6100BF44
:102B700000BF00BF0B6843F020030B600B6843F4F9
:102B800080730B60C1F8FC230A6942F020020A61DD
:102B900000BF00BF00BF0A6842F020020A600A6856
:102BA00042F480720A600A6942F400720A610A699A
:102BB00042F480720A610A6842F020020A6022220E
:102BC000C1F8FC230A6942F020020A6100BF00BF7D
:102BD00000BF0A6842F020020A600A6842F480726C
:102BE0000A6000BF00BF00BF0A6842F400720A60BA
:102BF0004FF496320B69053A43F400730B610B688E
:102C000043F480730B600B6843F020030B60C1F842
:102C1000FC030B6943F020030B6100BF00BF00BF42
:102C20000B6843F020030B600B6843F480730B6068
:102C300000BF00BF00BF0B6843F400730B600B695B
:102C400043F400730B610B6843F480730B600B68F3
:102C500043F020030B60C1F8FC030B6943F0200331
:102C60000B6100BF00BF00BF0B6843F020030B6087
:102C70000B6843F480730B6000BF00BF00BF0B689C
:102C800043F400730B600B6943F400730B610B6832
:102C900043F480730B600B6843F020030B60C1F8B2
:102CA000FC030B6943F020030B6100BF00BF00BFB2
:102CB0000B6843F020030B600B6843F480730B60D8
:102CC00000BF00BF00BF0B6843F400730B600B69CB
:102CD00043F400730B610B6843F480730B600B6863
:102CE00043F020030B60C1F8FC030B6943F02003A1
:102CF0000B6100BF00BF00BF0B6843F020030B60F7
:102D00000B6843F480730B6000BF00BF00BF0B680B
:102D100043F400730B600B6943F400730B610B68A1
:102D200043F480730B600B6843F020030B60C1F821
:102D3000FC030B6943F020030B6100BF00BF00BF21
:102D40000B6843F020030B600B6843F480730B6047
:102D500000BF00BF00BF0B6843F400730B607FF43B
:102D600049AF70470A78002A08BF70472DE9F04143
:102D700046F6804804464D1C002740F23F16C0F638
:102D8000000800BFA2F12000C1B2490051FA80F052
:102D900008EB0012B1B2204600F00AF8EA5D22B159
:102DA000103E132F07F10107ECD3BDE8F041704747
:102DB0002DE9F04740F21843C4F600031F694FF0B5
:102DC000200C47F400771F611F694FF0210E47F474
:102DD00080771F611F6840F20C0947F020071F60D1
:102DE000C3F8FCC31F6940F2520A47F020071F6175
:102DF00000BF00BF00BF1F684FF0220847F0200748
:102E00001F601F68C2F2000947F480771F60C3F893
:102E1000FC031F69C2F2000A47F020071F6100BFD0
:102E200000BF00BF1F6847F020071F601F6847F4FE
:102E300080771F601F6947F400771F611F6947F49F
:102E400080771F611F6847F020071F60C3F8FCE30D
:102E50001C6944F020041C6100BF00BF00BF1C6857
:102E600044F020041C601C6844F480741C60C3F8A7
:102E7000FC131C6944F020041C6100BF00BF00BFAC
:102E80001C6844F020041C601C6844F480741C60BE
:102E9000002400BF1D6945F400751D611D6945F4DE
:102EA00080751D611D6845F020051D60C3F8FC8319
:102EB0001D6945F020051D6100BF00BF00BF1D68F2
:102EC00045F020051D601D6845F480751D6000BF3C
:102ED00000BF00BF1D6845F400751D60002500BFE0
:102EE00032F81460EE40F607564608BF4E46368864
:102EF0001F6947F400771F611F6847F480771F60E0
:102F00001F6847F020071F60C3F8FC631E6946F086
:102F100020061E6100BF00BF00BF1E6846F02006ED
:102F20001E601E6846F480761E6000BF00BF00BFB2
:102F30001E6846F400761E6032F81460EE40B60754
:102F4000564658BF4E4636881F6947F400771F61C2
:102F50001F6847F480771F601F6847F020071F60D5
:102F6000C3F8FC631E6946F020061E6100BF00BF67
:102F700000BF1E6846F020061E601E6846F480767C
:102F80001E6000BF00BF00BF1E6846F400761E60D2
:102F900032F81460EE407607564658BF4E463688E3
:102FA0001F6947F400771F611F6847F480771F602F
:102FB0001F6847F020071F60C3F8FC631E6946F0D6
:102FC00020061E6100BF00BF00BF1E6846F020063D
:102FD0001E601E6846F480761E6000BF00BF00BF02
:102FE0001E6846F400761E6032F81460EE40360724
:102FF000564658BF4E4636881F69043547F4007759
:103000001F611F68102D47F480771F601F6847F00D
:1030100020071F60C3F8FC631E6946F020061E618E
:1030200000BF00BF00BF1E6846F020061E601E687D
:1030300046F480761E6000BF00BF00BF1E6846F4E5
:1030400000761E607FF44CAF1D69013045F40075B9
:103050001D611D69013445F480751D611D68182CC2
:1030600045F020051D60C3F8FCC31D6945F020052F
:103070001D6100BF00BF00BF1D6845F020051D6039
:103080001D6845F480751D60C5B2C3F8FC531D6909
:1030900045F020051D6100BF00BF00BF1D6845F061
:1030A00020051D601D6845F480751D601D6945F48F
:1030B00000751D611D6945F480751D611D6845F031
:1030C00020051D60C3F8FCE31D6945F020051D6166
:1030D00000BF00BF00BF1D6845F020051D601D68D2
:1030E00045F480751D60C3F8FC131D6945F020058B
:1030F0001D6100BF00BF00BF1D6845F020051D60B9
:103100001D6845F480751D6008BFBDE8F087C1E605
:103110002DE9F04F8BB0002641F24C000596CDE929
:103120000366CDE90166C4F20200016840F2184569
:1031300041F0040101600168C4F6000501F00401DA
:1031400006910699016801AC41F001010160016836
:1031500040F6140901F001010691069901684FF04B
:10316000030841F0020101600068214600F00200FE
:10317000069006984FF44870019001200290A5F146
:103180001800C4F600090127CDE90368FDF7B2FC79
:103190004FF48070CDE901074FF090402146CDE912
:1031A0000368FDF7A7FC4FF6FF7005F57A740690EB
:1031B00006A920460A964FF6FF7BCDF82480CDE97C
:1031C0000776FDF797FC4FF6004ACFF6FF7A55F8E1
:1031D0000A0006A940F4807045F80A0028684FF6F6
:1031E000FF7740F408702860286940F40070286177
:1031F000286940F480702861286840F02000286029
:10320000C9F80060286940F02000286100BF00BFB5
:1032100000BF286840F020002860286840F48070D3
:10322000286020460A96CDF818B0CDF82480CDE964
:103230000766FDF75FFC4FF6104BCFF6FF7B55F8A6
:103240000B0007A940F4807045F80B0000BF00BFD9
:1032500000BFD5F8F89355F80A0040F4807045F89F
:103260000A00012081E8410106A920460A96069736
:10327000FDF740FC286848F2302140F400702860D7
:1032800040F25400C2F20000A0F80090008888428A
:1032900002D100F047FC01E001F0B8F928690027ED
:1032A00040F40070286128694FF6FF7840F4807080
:1032B000286128684FF0030940F02000286040F69C
:1032C0001400C4F600000760286906A940F0200039
:1032D000286100BF00BF00BF286840F020002860C0
:1032E000286840F48070286020460A97CDE9068758
:1032F000CDE90879FDF7FEFB55F80B0007A940F46E
:10330000807045F80B0000BF00BF00BFD5F8F86320
:1033100055F80A0040F4807045F80A00012081E861
:10332000810206A920460A97CDF81880FDF7E2FB36
:10333000286840F40070286040F25400C2F2000097
:1033400006800BB0BDE8F08F81B0ADF80200BDF88B
:10335000020040F20C01C2F20001088001B0704787
:1033600081B0ADF80200BDF8020040F25201C2F295
:103370000001088001B0704710B5C0434FF61441FA
:1033800040F600440002CFF6FF71C4F6000460501E
:10339000204604210122FDF78DFC20460421002255
:1033A000BDE81040FDF786BC70B504460120154607
:1033B0000E4602F0E1FB012002F0B8FB002002F013
:1033C000DBFB002002F0B2FBA020FFF7B9FAFFF709
:1033D0000FFB3046FFF7B4FAFFF70AFB012002F0BB
:1033E000CBFB012002F0A2FB002002F0C5FB002075
:1033F00002F09CFBA120FFF7A3FAFFF7F9FA0DB347
:10340000013DFFF743FA2906207012D0013C00BFAE
:10341000002002F0B1FB012002F088FB002002F046
:1034200085FB013DFFF732FAA070280604F1010484
:10343000EED1012002F0A0FB012002F077FB00207A
:1034400002F074FB002002F071FB002002F094FBFC
:10345000012002F06BFB0120BDE8704002F08CBB44
:1034600070B50546012014460E4602F085FB01208A
:1034700002F05CFB002002F07FFB002002F056FB14
:10348000A020FFF75DFAFFF7B3FA3046FFF758FACE
:10349000FFF7AEFA4CB1013D15F8010F013CFFF703
:1034A0004FFAFFF7A5FA2006F6D1002002F03EFB06
:1034B000002002F061FB012002F038FB0120BDE892
:1034C000704002F059BB000010B58CB040F25800BB
:1034D000C2F200004FF0A04100244FF4403201231B
:1034E0004FF0040C80E8160002210B94CDE909444A
:1034F000CDE90744CDE90544CDE90344CDE90144D4
:10350000C0E90344C0E9053C8383016280F824409C
:10351000C0E90B4480F83840C46380F84040FDF7B0
:103520003FF9002818BFFCF707FF40F25800C2F22D
:10353000000009A90994FCF705FF002818BFFCF753
:10354000FBFE40F60000C2F63060019006207F21AD
:1035500002900020049104210390CDE9051040F26F
:103560005800C2F2000001A9FCF74CFF002818BF68
:10357000FCF7E2FE2020C1F2F04001900C20029006
:103580000520039040F25800C2F2000001A9FCF7A8
:1035900039FF002818BFFCF7CFFE0CB010BD0000AB
:1035A000B0B588B040F2C40040F20011C2F2000091
:1035B000C5F2000100244FF44032042580E81600D3
:1035C0000121CDE90644C0E90344C0E905458483EF
:1035D000016280F82440C0E90B4480F83840C4639D
:1035E00080F84040FDF7DCF8002818BFFCF7A4FE87
:1035F00048F20000C3F6F06000900620CDE9010417
:103600007F20CDE9030540F2C400C2F20000694604
:103610000594FCF7F7FE002818BFFCF78DFE08B0F4
:10362000B0BD00002DE9F04F87B0002441F24C00FE
:103630000694CDE90444CDE90244C4F202000168D5
:1036400040F2004841F0040101600168C4F600083E
:1036500001F0040101910199016808F5806741F0CA
:10366000200101600168002201F02001019101990F
:1036700001684FF6FF7641F001010160016801F039
:10368000010101910199016841F0020101600168A5
:1036900001F0020101910199016841F00801016006
:1036A00000684FF6FF7100F008000190019838465D
:1036B000FDF700FB4FF090404FF4807100224FF473
:1036C000807AFDF7F7FA08F5006528460421002204
:1036D0004FF0040BFDF7EEFA40464FF470710022F4
:1036E000FDF7E8FA029602AE4FF00109384631467E
:1036F000CDE903940594FDF7FDF94FF09040314674
:10370000CDE902940494FDF7F5F90720CDE9020410
:10371000404631460494FDF7EDF94FF090403146B4
:10372000CDE902A9CDE90444FDF7E4F92846314684
:10373000CDE902B9CDE90444FDF7DCF9C0200290DF
:103740001120CDE90304404631460594FDF7D2F936
:103750004FF44070CDE9020940463146CDE90444BA
:10376000FDF7C8F907B0BDE8F08F0000B0B59EB016
:10377000002401A834211494CDE91244CDE9104469
:10378000CDE90E44FCF77CFD40F2301042F60045D6
:10379000C2F20000C4F20105A92140F2F312C0E90F
:1037A0000051C0E90242C0E904448461FEF768FDAB
:1037B000002818BFFCF7C0FD40F23010C2F2000034
:1037C00015A9CDE915441794FEF7B6F9002818BFDE
:1037D000FCF7B2FD60200E9032200F9040F23010C6
:1037E0000024C2F200000EA90022CDE91044CDE968
:1037F00012441494FEF760FB002818BFFCF79CFDF0
:103800004FF40050CDE906044FF000700594CDE967
:103810000344CDE90144CDE90844CDE90A040C9400
:1038200040F230144FF48040C2F200040D9001A920
:103830002046FEF71DF9002818BFFCF77DFD206823
:1038400040F20041C4F2000188424FF000011D9196
:10385000CDE91B11CDE9191112D0A8422BD141F2AB
:103860004C00C4F20200016841F0010101600068EF
:10387000802100F001001890189806200FE000BF8A
:1038800041F24C00C4F20200016841F00101016004
:103890000068402100F0010018901898022019914A
:1038A00002211A910021CDE91B111D9019A94FF099
:1038B0009040FDF71FF91EB0B0BD000010B58CB0F0
:1038C00040F27C100021C2F200004FF08042A92398
:1038D0004FF0FF340A910691CDE90411CDE90211B0
:1038E000CDE90011C0E90023C0E902140161816142
:1038F000FEF776F9002818BFFCF71EFD40F27C1099
:10390000C2F20000FEF7A4FA002818BFFCF714FD6D
:10391000042007906020089040F27C100024C2F23E
:10392000000007A909940B94FEF70AFD002818BFB0
:10393000FCF702FD40F27C10C2F2000004A90494DE
:103940000694FEF7F9F8002818BFFCF7F5FC0220F2
:10395000CDE9000040F27C100024C2F2000069466C
:103960000022CDE90244FEF79FF9002818BFFCF7BA
:10397000E3FC0120019040F27C10C2F20000694695
:1039800004220094FEF790F9002818BFFCF7D4FC3D
:103990000CB010BD70B590B040F2C81040F20045B8
:1039A0000024C2F20000C4F20005A92140F2E7326F
:1039B0000894CDE90544CDE90344C0E90051C0E9CC
:1039C000024204618461FEF75BFC002818BFFCF72B
:1039D000B3FC40F2C810C2F2000007A90794099492
:1039E000FEF7AAF8002818BFFCF7A6FC602040F2FA
:1039F000C81400906420C2F20004019000266946B9
:103A00002046002202960496FEF756FA002818BFB8
:103A1000FCF792FC20680F96A842CDE90D660C9643
:103A20000B9615D042F60041C4F2010188422AD11A
:103A300041F24C00C4F20200016841F00101016052
:103A40000068802100F001000A900A9806200EE02C
:103A500041F24C00C4F20200016841F00101016032
:103A60000068402100F001000A900A9802200B91A2
:103A700002210C910021CDE90D110F900BA94FF0FF
:103A80009040FDF737F810B070BD000080B540F2EF
:103A9000142043F60001C2F20000C4F201014FF409
:103AA0001652002380E80E0010214FF00C0C8162AA
:103AB0004FF48051C0E90333C0E905C3C361C0E9D5
:103AC0000833C163FEF710FD002818BFFCF734FC73
:103AD00040F21420C2F200000021FEF7BFFC0028D3
:103AE00018BFFCF729FC40F21420C2F200000021AC
:103AF000FEF76EFC002818BFFCF71EFC40F21420F5
:103B0000C2F20000FEF748FC002808BF80BDBDE8F7
:103B10008040FCF711BC0000FEE70000FEE700005B
:103B20007047000040F21840C4F60000016900220E
:103B300041F40071016101694FF0030C41F480719F
:103B40000161016841F020010160C0F8FC230169B6
:103B500041F02001016100BF00BF00BF016841F0DA
:103B600020010160016841F4807101600121C0F809
:103B7000FC13036943F02003036100BF00BF00BFD3
:103B8000036843F020030360036843F48073036019
:103B9000036943F400730361036943F480730361B1
:103BA000036843F020030360C0F8FC13036943F08B
:103BB0002003036100BF00BF00BF036843F0200380
:103BC0000360036843F480730360C0F8FC23026958
:103BD00042F02002026100BF00BF00BF026842F055
:103BE00020020260026842F480720260026942F4BC
:103BF00000720261026942F480720261026842F05E
:103C0000200202601022C0F8FC23026942F0200268
:103C1000026100BF00BF00BF026842F020020260E4
:103C2000026842F48072026041F29072C0F8FC2394
:103C3000026942F02002026100BF00BF00BF0268BB
:103C400042F020020260026842F48072026002695F
:103C500042F400720261026942F4807202610268F9
:103C600042F0200202606022C0F8FC23026942F0A8
:103C70002002026100BF00BF00BF026842F02002C4
:103C80000260026842F4807202604FF41C52C0F875
:103C9000FC23026942F02002026100BF00BF00BFA6
:103CA000026842F020020260026842F48072026000
:103CB000026942F400720261026942F48072026198
:103CC000026842F0200202606122C0F8FC2302690F
:103CD00042F02002026100BF00BF00BF026842F054
:103CE00020020260026842F480720260C0F8FC1395
:103CF000016941F02001016100BF00BF00BF016800
:103D000041F020010160016841F4807101600169A6
:103D100041F400710161016941F480710161016840
:103D200041F0200101604621C0F8FC13016941F017
:103D30002001016100BF00BF00BF016841F0200108
:103D40000160016841F4807101600221C0F8FC1338
:103D5000026942F02002026100BF00BF00BF02689A
:103D600042F020020260026842F48072026002693E
:103D700042F400720261026942F4807202610268D8
:103D800042F0200202601322C0F8FC23026942F0D4
:103D90002002026100BF00BF00BF026842F02002A3
:103DA0000260026842F48072026048F21002C0F8B9
:103DB000FC23026942F02002026100BF00BF00BF85
:103DC000026842F020020260026842F480720260DF
:103DD000026942F400720261026942F48072026177
:103DE000026842F0200202601222C0F8FC2302693D
:103DF00042F02002026100BF00BF00BF026842F033
:103E000020020260026842F48072026048F2FE0200
:103E1000C0F8FC23026942F02002026100BF00BF2B
:103E200000BF026842F020020260026842F4807221
:103E30000260026942F400720261026942F4807217
:103E40000261026842F020020260C0F8FC130169BE
:103E500041F02001016100BF00BF00BF016841F0D7
:103E600020010160016841F4807101604FF4A0619C
:103E7000C0F8FC13016941F02001016100BF00BFDF
:103E800000BF016841F020010160016841F48071C8
:103E90000160016941F400710161016941F48071BF
:103EA0000161016841F020010160C0F8FCC30269B2
:103EB00042F02002026100BF00BF00BF026842F072
:103EC00020020260026842F48072026041F2300215
:103ED000C0F8FC23026942F02002026100BF00BF6B
:103EE00000BF026842F020020260026842F4807261
:103EF0000260026942F400720261026942F4807257
:103F00000261026842F0200202603022C0F8FC2305
:103F1000026942F02002026100BF00BF00BF0268D8
:103F200042F020020260026842F48072026040F2B5
:103F30000332C0F8FC23036943F02003036100BF90
:103F400000BF00BF036843F020030360036843F42D
:103F500080730360036943F400730361036943F4EE
:103F600080730361036843F0200303603123C0F8CA
:103F7000FC33036943F02003036100BF00BF00BFAF
:103F8000036843F020030360036843F48073036015
:103F9000C0F8FC23036943F02003036100BF00BFA6
:103FA00000BF036843F020030360036843F4807399
:103FB0000360036943F400730361036943F480738E
:103FC0000361036843F0200303603223C0F8FC332D
:103FD000036943F02003036100BF00BF00BF036813
:103FE00043F020030360036843F480730360C0F868
:103FF000FC23036943F02003036100BF00BF00BF3F
:10400000036843F020030360036843F48073036094
:10401000036943F400730361036943F4807303612C
:10402000036843F0200303603323C0F8FC330369C3
:1040300043F02003036100BF00BF00BF036843F0EB
:1040400020030360036843F4807303604FF44073FC
:10405000C0F8FC33016941F02001016100BF00BFDD
:1040600000BF016841F020010160016841F48071E6
:104070000160016941F400710161016941F48071DD
:104080000161016841F0200101603421C0F8FC1396
:10409000016941F02001016100BF00BF00BF01685C
:1040A00041F020010160016841F480710160C0F8B5
:1040B000FCC3016941F02001016100BF00BF00BFE6
:1040C000016841F020010160016841F480710160E4
:1040D000016941F400710161016941F4807101617C
:1040E000016841F0200101603521C0F8FC1301692D
:1040F00041F02001016100BF00BF00BF016841F035
:1041000020010160016841F480710160C0F8FC2366
:10411000016941F02001016100BF00BF00BF0168DB
:1041200041F020010160016841F480710160016982
:1041300041F400710161016941F48071016101681C
:1041400041F0200101603621C0F8FC13016941F003
:104150002001016100BF00BF00BF016841F02001E4
:104160000160016841F4807101601421C0F8FC1302
:10417000016941F02001016100BF00BF00BF01687B
:1041800041F020010160016841F480710160016922
:1041900041F400710161016941F4807101610168BC
:1041A00041F0200101603721C0F8FC13016941F0A2
:1041B0002001016100BF00BF00BF016841F0200184
:1041C0000160016841F480710160C0F8FC2301695D
:1041D00041F02001016100BF00BF00BF016841F054
:1041E00020010160016841F480710160016941F4BE
:1041F00000710161016941F480710161016841F060
:10420000200101603821C0F8FC13016941F0200150
:10421000016100BF00BF00BF016841F020010160E3
:10422000016841F480710160C0F8FC23016941F02C
:104230002001016100BF00BF00BF016841F0200103
:104240000160016841F480710160016941F400710D
:104250000161016941F480710161016841F020014F
:1042600001603921C0F8FC13016941F020010161AE
:1042700000BF00BF00BF016841F02001016001687C
:1042800041F480710160C0F8FC23016941F0200114
:10429000016100BF00BF00BF016841F02001016063
:1042A000016841F480710160016941F400710161AC
:1042B000016941F480710161016841F020010160F0
:1042C0003A21C0F8FC13016941F02001016100BFEF
:1042D00000BF00BF016841F020010160016841F4A6
:1042E00080710160C0F8FC33016941F02001016177
:1042F00000BF00BF00BF016841F0200101600168FC
:1043000041F480710160016941F40071016101694A
:1043100041F480710161016841F0200101603B219D
:10432000C0F8FC13016941F02001016100BF00BF2A
:1043300000BF016841F020010160016841F4807113
:104340000160C0F8FCC3016941F02001016100BFB8
:1043500000BF00BF016841F020010160016841F425
:1043600080710160016941F400710161016941F4EA
:1043700080710161016841F0200101603C21C0F8B9
:10438000FC13016941F02001016100BF00BF00BFC3
:10439000016841F020010160016841F48071016011
:1043A000C0F8FC23016941F02001016100BF00BF9A
:1043B00000BF016841F020010160016841F4807193
:1043C0000160016941F400710161016941F480718A
:1043D0000161016841F0200101603D21C0F8FC133A
:1043E000016941F02001016100BF00BF00BF016809
:1043F00041F020010160016841F4807101604FF4D7
:10440000A051C0F8FC13016941F02001016100BF17
:1044100000BF00BF016841F020010160016841F464
:1044200080710160016941F400710161016941F429
:1044300080710161016841F0200101609221C0F8A2
:10444000FC13016941F02001016100BF00BF00BF02
:10445000016841F020010160016841F48071016050
:104460004FF40071C0F8FC13016941F020010161B3
:1044700000BF00BF00BF016841F02001016001687A
:1044800041F480710160016941F4007101610169C9
:1044900041F480710161016841F0200101609321C4
:1044A000C0F8FC13016941F02001016100BF00BFA9
:1044B00000BF016841F020010160016841F4807192
:1044C0000160C0F8FC23016941F02001016100BFD7
:1044D00000BF00BF016841F020010160016841F4A4
:1044E00080710160016941F400710161016941F469
:1044F00080710161016841F0200101609021C0F8E4
:10450000FC13016941F02001016100BF00BF00BF41
:10451000016841F020010160016841F4807101608F
:1045200040F60D01C0F8FC13016941F02001016162
:1045300000BF00BF00BF016841F0200101600168B9
:1045400041F480710160016941F400710161016908
:1045500041F480710161016841F020010160C0F8FF
:10456000FCC3016941F02001016100BF00BF00BF31
:10457000016841F020010160016841F4807101602F
:1045800041F21801C0F8FC13016941F020010161FA
:1045900000BF00BF00BF016841F020010160016859
:1045A00041F480710160016941F4007101610169A8
:1045B00041F480710161016841F02001016007212F
:1045C000C0F8FC13016941F02001016100BF00BF88
:1045D00000BF016841F020010160016841F4807171
:1045E000016040F27311C0F8FC13016941F0200131
:1045F000016100BF00BF00BF016841F02001016000
:10460000016841F480710160704700002DE9F04FAE
:1046100081B040F21844C4F6000420694FF012093A
:1046200040F4007020612069002540F48070206112
:104630002068112640F020002060E320C4F8FC032D
:1046400020694FF0130B40F02000206100BF00BF35
:1046500000BF2068102740F02000206020684FF045
:10466000070840F48070206043F20800C4F8FC039F
:10467000206940F02000206100BF00BF00BF20681B
:1046800040F020002060206840F4807020602069A5
:1046900040F400702061206940F48070206120683F
:1046A00040F020002060E720C4F8FC03206940F0BF
:1046B0002000206100BF00BF00BF206840F0200044
:1046C0002060206840F480702060C4F8FC9320696A
:1046D00040F02000206100BF00BF00BF206840F014
:1046E00020002060206840F480702060206940F441
:1046F00000702061206940F480702061206840F0E3
:1047000020002060EF20C4F8FC03206940F0200066
:10471000206100BF00BF00BF206840F02000206083
:10472000206840F48070206041F23120C4F8FC031E
:10473000206940F02000206100BF00BF00BF20685A
:1047400040F020002060206840F4807020602069E4
:1047500040F400702061206940F48070206120687E
:1047600040F0200020600120C4F8FC03206940F0E4
:104770002000206100BF00BF00BF206840F0200083
:104780002060206840F480702060C4F8FC532069E9
:1047900040F02000206100BF00BF00BF206840F053
:1047A00020002060206840F480702060206940F480
:1047B00000702061206940F480702061206840F022
:1047C000200020600220C4F8FC03206940F0200093
:1047D000206100BF00BF00BF206840F020002060C3
:1047E000206840F4807020604FF4E060C4F8FC035F
:1047F000206940F02000206100BF00BF00BF20689A
:1048000040F020002060206840F480702060206923
:1048100040F400702061206940F4807020612068BD
:1048200040F0200020600320C4F8FC03206940F021
:104830002000206100BF00BF00BF206840F02000C2
:104840002060206840F48070206041F23000C4F89D
:10485000FC03206940F02000206100BF00BF00BFC2
:10486000206840F020002060206840F480702060C4
:10487000206940F400702061206940F4807020615C
:10488000206840F0200020600420C4F8FC03206968
:1048900040F02000206100BF00BF00BF206840F052
:1048A00020002060206840F480702060C4F8FC5331
:1048B000206940F02000206100BF00BF00BF2068D9
:1048C00040F020002060206840F480702060206963
:1048D00040F400702061206940F4807020612068FD
:1048E00040F0200020600820C4F8FC03206940F05C
:1048F0002000206100BF00BF00BF206840F0200002
:104900002060206840F48070206040F20720C4F8E6
:10491000FC03206940F02000206100BF00BF00BF01
:10492000206840F020002060206840F48070206003
:10493000206940F400702061206940F4807020619B
:10494000206840F0200020600920C4F8FC032069A2
:1049500040F02000206100BF00BF00BF206840F091
:1049600020002060206840F480702060C4F8FC5370
:10497000206940F02000206100BF00BF00BF206818
:1049800040F020002060206840F4807020602069A2
:1049900040F400702061206940F48070206120683C
:1049A00040F0200020600A20C4F8FC03206940F099
:1049B0002000206100BF00BF00BF206840F0200041
:1049C0002060206840F480702060C4F8FC532069A7
:1049D00040F02000206100BF00BF00BF206840F011
:1049E00020002060206840F480702060206940F43E
:1049F00000702061206940F480702061206840F0E0
:104A0000200020600C20C4F8FC03206940F0200046
:104A1000206100BF00BF00BF206840F02000206080
:104A2000206840F480702060C4F8FC53206940F096
:104A30002000206100BF00BF00BF206840F02000C0
:104A40002060206840F480702060206940F400708D
:104A50002061206940F480702061206840F02000CF
:104A600020600D20C4F8FC03206940F02000206184
:104A700000BF00BF00BF206840F020002060206819
:104A800040F480702060C4F8FC53206940F020009E
:104A9000206100BF00BF00BF206840F02000206000
:104AA000206840F480702060206940F4007020612C
:104AB000206940F480702061206840F02000206070
:104AC0000F20C4F8FC03206940F02000206100BFE3
:104AD00000BF00BF206840F020002060206840F444
:104AE00080702060C4F8FC53206940F020002061F1
:104AF00000BF00BF00BF206840F020002060206899
:104B000040F480702060206940F4007020612069CA
:104B100040F480702061206840F020002060102068
:104B2000C4F8FC03206940F02000206100BF00BFF2
:104B300000BF206840F020002060206840F48070B2
:104B40002060C4F8FC53206940F02000206100BFC1
:104B500000BF00BF206840F020002060206840F4C3
:104B600080702060206940F400702061206940F46A
:104B700080702061206840F020002060C4F8FC6351
:104B8000206940F02000206100BF00BF00BF206806
:104B900040F020002060206840F4807020600720F2
:104BA000C4F8FC03206940F02000206100BF00BF72
:104BB00000BF206840F020002060206840F4807032
:104BC0002060206940F400702061206940F480700A
:104BD0002061206840F020002060C4F8FC93206928
:104BE00040F02000206100BF00BF00BF206840F0FF
:104BF00020002060206840F480702060C4F8FC53DE
:104C0000206940F02000206100BF00BF00BF206885
:104C100040F020002060206840F48070206020690F
:104C200040F400702061206940F4807020612068A9
:104C300040F020002060C4F8FCB3206940F0200060
:104C4000206100BF00BF00BF206840F0200020604E
:104C5000206840F480702060C4F8FC53206940F064
:104C60002000206100BF00BF00BF206840F020008E
:104C70002060206840F480702060C820FBF726FF89
:104C800020694FF0320A40F400702061206940F43E
:104C900080702061206840F020002060C4F8FC7320
:104CA0002069102740F02000206100BF00BF00BF36
:104CB000206840F020002060206840F48070206070
:104CC00041F29060C4F8FC03206940F020002061AC
:104CD00000BF00BF00BF206840F0200020602068B7
:104CE00040F480702060206940F4007020612069E9
:104CF00040F480702061206840F020002060C4F8FB
:104D0000FC63206940F02000206100BF00BF00BFAD
:104D1000206840F020002060206840F4807020600F
:104D200040F22720C4F8FC03206940F020002061F5
:104D300000BF00BF00BF206840F020002060206856
:104D400040F4807020603220FBF7C0FE206940F400
:104D500000702061206940F480702061206840F07C
:104D600020002060C4F8FC93206940F020002061FE
:104D700000BF00BF00BF206840F020002060206816
:104D800040F4807020601D20C4F8FC03206940F0CE
:104D90002000206100BF00BF00BF206840F020005D
:104DA0002060206840F4807020603220FBF78EFE87
:104DB000206940F400702061206940F48070206117
:104DC000206840F020002060C4F8FCB3206940F067
:104DD0002000206100BF00BF00BF206840F020001D
:104DE0002060206840F4807020604FF40060C4F8B8
:104DF000FC03206940F02000206100BF00BF00BF1D
:104E0000206840F020002060206840F4807020601E
:104E1000206940F400702061206940F480702061B6
:104E2000206840F0200020602920C4F8FC0320699D
:104E300040F02000206100BF00BF00BF206840F0AC
:104E400020002060206840F4807020601420C4F8A6
:104E5000FC03206940F02000206100BF00BF00BFBC
:104E6000206840F020002060206840F480702060BE
:104E7000206940F400702061206940F48070206156
:104E8000206840F0200020602B20C4F8FC0320693B
:104E900040F02000206100BF00BF00BF206840F04C
:104EA00020002060206840F4807020600B20C4F84F
:104EB000FC03206940F02000206100BF00BF00BF5C
:104EC000206840F020002060206840F4807020605E
:104ED0003220FBF7FBFD2069032140F400702061C4
:104EE0002069072240F480702061206840F0200093
:104EF00020602020C4F8FC03206940F020002061DD
:104F000000BF00BF00BF206840F020002060206884
:104F100040F480702060C4F8FC53206940F0200009
:104F2000206100BF00BF00BF206840F0200020606B
:104F3000206840F480702060206940F40070206197
:104F4000206940F480702061206840F020002060DB
:104F50002120C4F8FC03206940F02000206100BF3C
:104F600000BF00BF206840F020002060206840F4AF
:104F700080702060C4F8FC53206940F0200020615C
:104F800000BF00BF00BF206840F020002060206804
:104F900040F480702060206940F400702061206936
:104FA00040F480702061206840F0200020603020B4
:104FB000C4F8FC03206940F02000206100BF00BF5E
:104FC00000BF206840F020002060206840F480701E
:104FD0002060C4F8FC83206940F02000206100BFFD
:104FE00000BF00BF206840F020002060206840F42F
:104FF00080702060206940F400702061206940F4D6
:1050000080702061206840F0200020603120C4F8CA
:10501000FC03206940F02000206100BF00BF00BFFA
:10502000206840F020002060206840F480702060FC
:1050300040F20770C4F8FC03206940F020002061B2
:1050400000BF00BF00BF206840F020002060206843
:1050500040F480702060206940F400702061206975
:1050600040F480702061206840F020002060C4F887
:10507000FCA3206940F02000206100BF00BF00BFFA
:10508000206840F020002060206840F4807020609C
:105090000620C4F8FC03206940F02000206100BF16
:1050A00000BF00BF206840F020002060206840F46E
:1050B00080702060206940F400702061206940F415
:1050C00080702061206840F0200020603520C4F806
:1050D000FC03206940F02000206100BF00BF00BF3A
:1050E000206840F020002060206840F4807020603C
:1050F00040F20470C4F8FC03206940F020002061F5
:1051000000BF00BF00BF206840F020002060206882
:1051100040F480702060206940F4007020612069B4
:1051200040F480702061206840F02000206036202C
:10513000C4F8FC03206940F02000206100BF00BFDC
:1051400000BF206840F020002060206840F480709C
:10515000206041F60470C4F8FC03206940F0200090
:10516000206100BF00BF00BF206840F02000206029
:10517000206840F480702060206940F40070206155
:10518000206940F480702061206840F02000206099
:105190003720C4F8FC03206940F02000206100BFE4
:1051A00000BF00BF206840F020002060206840F46D
:1051B000807020600420C4F8FC03206940F02000C7
:1051C000206100BF00BF00BF206840F020002060C9
:1051D000206840F480702060206940F400702061F5
:1051E000206940F480702061206840F02000206039
:1051F0003820C4F8FC03206940F02000206100BF83
:1052000000BF00BF206840F020002060206840F40C
:1052100080702060C4F8FC53206940F020002061B9
:1052200000BF00BF00BF206840F020002060206861
:1052300040F480702060206940F400702061206993
:1052400040F480702061206840F020002060392008
:10525000C4F8FC03206940F02000206100BF00BFBB
:1052600000BF206840F020002060206840F480707B
:10527000206040F20670C4F8FC03206940F0200072
:10528000206100BF00BF00BF206840F02000206008
:10529000206840F480702060206940F40070206134
:1052A000206940F480702061206840F02000206078
:1052B0003C20C4F8FC03206940F02000206100BFBE
:1052C00000BF00BF206840F020002060206840F44C
:1052D0008070206040F20170C4F8FC03206940F047
:1052E0002000206100BF00BF00BF206840F0200008
:1052F0002060206840F480702060206940F40070D5
:105300002061206940F480702061206840F0200016
:1053100020603D20C4F8FC03206940F0200020619B
:1053200000BF00BF00BF206840F020002060206860
:1053300040F4807020600F20C4F8FC03206940F026
:105340002000206100BF00BF00BF206840F02000A7
:105350002060206840F480702060206940F4007074
:105360002061206940F480702061206840F02000B6
:1053700020605020C4F8FC03206940F02000206128
:1053800000BF00BF00BF206840F020002060206800
:1053900040F480702060C4F8FC53206940F0200085
:1053A000206100BF00BF00BF206840F020002060E7
:1053B000206840F480702060206940F40070206113
:1053C000206940F480702061206840F02000206057
:1053D0005120C4F8FC03206940F02000206100BF88
:1053E00000BF00BF206840F020002060206840F42B
:1053F00080702060EF20C4F8FC03206940F020009A
:10540000206100BF00BF00BF206840F02000206086
:10541000206840F480702060206940F400702061B2
:10542000206940F480702061206840F020002060F6
:105430005220C4F8FC03206940F02000206100BF26
:1054400000BF00BF206840F020002060206840F4CA
:1054500080702060C4F8FC53206940F02000206177
:1054600000BF00BF00BF206840F02000206020681F
:1054700040F480702060206940F400702061206951
:1054800040F480702061206840F0200020605320AC
:10549000C4F8FC03206940F02000206100BF00BF79
:1054A00000BF206840F020002060206840F4807039
:1054B000206040F23F10C4F8FC03206940F0200057
:1054C000206100BF00BF00BF206840F020002060C6
:1054D000206840F480702060206940F400702061F2
:1054E000206940F480702061206840F02000206036
:1054F0006020C4F8FC03206940F02000206100BF58
:1055000000BF00BF206840F020002060206840F409
:10551000807020604FF41C50C4F8FC03206940F0F8
:105520002000206100BF00BF00BF206840F02000C5
:105530002060206840F480702060206940F4007092
:105540002061206940F480702061206840F02000D4
:1055500020606120C4F8FC03206940F02000206135
:1055600000BF00BF00BF206840F02000206020681E
:1055700040F4807020600120C4F8FC03206940F0F2
:105580002000206100BF00BF00BF206840F0200065
:105590002060206840F480702060206940F4007032
:1055A0002061206940F480702061206840F0200074
:1055B00020606A20C4F8FC03206940F020002061CC
:1055C00000BF00BF00BF206840F0200020602068BE
:1055D00040F480702060C4F8FC53206940F0200043
:1055E000206100BF00BF00BF206840F020002060A5
:1055F000206840F480702060206940F400702061D1
:10560000206940F480702061206840F02000206014
:105610008020C4F8FC03206940F02000206100BF16
:1056200000BF00BF206840F020002060206840F4E8
:1056300080702060C4F8FC53206940F02000206195
:1056400000BF00BF00BF206840F02000206020683D
:1056500040F480702060206940F40070206120696F
:1056600040F480702061206840F02000206081209C
:10567000C4F8FC03206940F02000206100BF00BF97
:1056800000BF206840F020002060206840F4807057
:105690002060C4F8FC53206940F02000206100BF66
:1056A00000BF00BF206840F020002060206840F468
:1056B00080702060206940F400702061206940F40F
:1056C00080702061206840F0200020608220C4F8B3
:1056D000FC03206940F02000206100BF00BF00BF34
:1056E000206840F020002060206840F48070206036
:1056F000C4F8FC53206940F02000206100BF00BFC7
:1057000000BF206840F020002060206840F48070D6
:105710002060206940F400702061206940F48070AE
:105720002061206840F0200020608320C4F8FC0342
:10573000206940F02000206100BF00BF00BF20684A
:1057400040F020002060206840F480702060C4F8A1
:10575000FC53206940F02000206100BF00BF00BF63
:10576000206840F020002060206840F480702060B5
:10577000206940F400702061206940F4807020614D
:10578000206840F0200020608420C4F8FC032069D9
:1057900040F02000206100BF00BF00BF206840F043
:1057A00020002060206840F480702060C4F8FC5322
:1057B000206940F02000206100BF00BF00BF2068CA
:1057C00040F020002060206840F480702060206954
:1057D00040F400702061206940F4807020612068EE
:1057E00040F0200020608520C4F8FC03206940F0D0
:1057F0002000206100BF00BF00BF206840F02000F3
:105800002060206840F480702060C4F8FC53206958
:1058100040F02000206100BF00BF00BF206840F0C2
:1058200020002060206840F480702060206940F4EF
:1058300000702061206940F480702061206840F091
:10584000200020609020C4F8FC03206940F0200074
:10585000206100BF00BF00BF206840F02000206032
:10586000206840F480702060C4F8FC73206940F028
:105870002000206100BF00BF00BF206840F0200072
:105880002060206840F480702060206940F400703F
:105890002061206940F480702061206840F0200081
:1058A00020609220C4F8FC03206940F020002061B1
:1058B00000BF00BF00BF206840F0200020602068CB
:1058C00040F480702060C4F8FC53206940F0200050
:1058D000206100BF00BF00BF206840F020002060B2
:1058E000206840F480702060206940F400702061DE
:1058F000206940F480702061206840F02000206022
:105900009320C4F8FC03206940F02000206100BF10
:1059100000BF00BF206840F020002060206840F4F5
:1059200080702060C4F8FC13206940F020002061E2
:1059300000BF00BF00BF206840F02000206020684A
:1059400040F480702060206940F40070206120697C
:1059500040F480702061206840F020002060952095
:10596000C4F8FC03206940F02000206100BF00BFA4
:1059700000BF206840F020002060206840F4807064
:1059800020604FF48870C4F8FC03206940F02000C8
:10599000206100BF00BF00BF206840F020002060F1
:1059A000206840F480702060206940F4007020611D
:1059B000206940F480702061206840F02000206061
:1059C0009720C4F8FC03206940F02000206100BF4C
:1059D00000BF00BF206840F020002060206840F435
:1059E00080702060C4F8FC53206940F020002061E2
:1059F00000BF00BF00BF206840F02000206020688A
:105A000040F480702060206940F4007020612069BB
:105A100040F480702061206840F0200020609820D1
:105A2000C4F8FC03206940F02000206100BF00BFE3
:105A300000BF206840F020002060206840F48070A3
:105A40002060C4F8FC53206940F02000206100BFB2
:105A500000BF00BF206840F020002060206840F4B4
:105A600080702060206940F400702061206940F45B
:105A700080702061206840F020002060C4F8FC1392
:105A8000206940F02000206100BF00BF00BF2068F7
:105A900040F020002060206840F48070206041F2D7
:105AA0001800C4F8FC03206940F02000206100BF0A
:105AB00000BF00BF206840F020002060206840F454
:105AC00080702060206940F400702061206940F4FB
:105AD00080702061206840F020002060C4F8FC2322
