:020000040800F2
:10000000B8060020ED0100085731000867250008F8
:10001000553100087504000821490008000000005F
:10002000000000000000000000000000813900080E
:100030007704000800000000AB360008853900088E
:10004000070200080702000807020008070200086C
:10005000070200080702000807020008070200085C
:10006000070200080702000807020008070200084C
:10007000070200080702000807020008070200083C
:10008000070200080000000007020008070200083D
:10009000070200080702000807020008070200081C
:1000A000070200080702000807020008070200080C
:1000B00007020008070200080702000807020008FC
:1000C00007020008070200080702000807020008EC
:1000D0000702000815490008070200080702000887
:1000E00007020008070200080702000807020008CC
:1000F00007020008070200080702000800000000CD
:1001000000000000070200080000000007020008CD
:1001100007020008000000000702000807020008AC
:10012000070200080702000807020008070200088B
:10013000070200080000000000000000070200089D
:10014000070200080702000800000000000000008D
:10015000000000000000000000000000000000009F
:10016000000000000000000000000000070200087E
:10017000070200080000000000000000000000006E
:10018000000000000702000800000000000000005E
:10019000000000000000000000000000000000005F
:1001A000000000000000000007020008070200082D
:1001B000070200080702000807020008000000000C
:1001C000000000000702000800000000000000001E
:1001D0000702000807020008DFF80CD000F07AF8E8
:1001E0000048004735490008B80600200648804707
:1001F00006480047FEE7FEE7FEE7FEE7FEE7FEE70C
:10020000FEE7FEE7FEE7FEE7313A0008D901000805
:100210002DE9F05F0546002092469B46884606463B
:10022000814640241BE0284641464746224600F0CE
:1002300041F853465A46C01A914110D31146184608
:10024000224600F028F82D1A67EB01084F46224697
:100250000120002100F01FF817EB00094E41201E7D
:10026000A4F10104DFDC484631462A464346BDE896
:10027000F09FD2B201E000F8012B491EFBD270477B
:100280000022F6E710B513460A4604461946FFF762
:10029000F0FF204610BD202A04DB203A00FA02F1CC
:1002A000002070479140C2F1200320FA03F3194364
:1002B00090407047202A04DB203A21FA02F0002106
:1002C000704721FA02F3D040C2F120029140084366
:1002D000194670471CB50948009009480190054629
:1002E000009C06E0E06840F0010394E807009847AE
:1002F0001034AC42F6D3FFF773FF0000A86000088B
:10030000C8600008B0B50C4D0446284600F08AFCD1
:1003100028460A2100F0F0FB18B9074800F0C6FA99
:10032000208005480A2100F0E7FB00B1B0BD02487B
:1003300000F0BCFA6080B0BD6400002010B5084C2D
:10034000204600F06FFC20460A2100F0D5FB08B1E2
:10035000002002E0024800F0A9FA80B210BD00BF00
:10036000D0000020B0B5016804468A688868C007DC
:100370004FF0000022D012F002021FD1886800F076
:100380000D00012818D188682D4A1040023088607D
:100390000320086000F004FE054620688068C0075E
:1003A00004BF0020B0BD00F0FBFD401B0328F4D3C8
:1003B00020688068C007F0D002F0FDFEB0BD00BF2D
:1003C0007CB504460020019021688A68D2072AD1B2
:1003D0001B4E886806F17F02104222D188683040A7
:1003E00040F0010088601748006800021CD400F04B
:1003F000D7FD054620680168C9071CBF00207CBDE9
:100400008168C90704D18168314041F001018160F0
:1004100000F0C6FD401B0328ECD320680068C0072D
:10042000E8D102F0C8FE7CBD0748084903F003F993
:10043000019001980028DAD001980138F8E700BF50
:10044000C0FFFF7F0803005014000020400D030090
:1004500010B5074CE079642808D30020E07104F15E
:100460000E00FFF74FFFFFF769FF608210BD00BF6E
:1004700018000020FEE77047EFF3108072B6FEE729
:10048000BCB504460020019094F85800012804BF30
:100490000220BCBD01200D4684F8580003F09FF8EF
:1004A000E16D10B141F0100124E041F20212144B51
:1004B00091430231E16521688A681A4005F0804362
:1004C0001A4402F100428A600E4A8B68B3F1FF3F82
:1004D0000CDC019B01330193019B9342F5D3E06D4A
:1004E00040F0100020F00201012003E0E16D012244
:1004F00062F30101002284F85820E165BCBD00BF11
:10050000C0FFFF3F02DE040090F85820012A01D10D
:10051000022135E07CB50022019200920368B3F11C
:10052000A04F23D1204AD2F800419B6823435B07A8
:100530001CD40B68D2F8004324F4604413B390F841
:1005400038504E6846EA45352C43C2F800431468DB
:10055000D2F800512C43E40723D1D2F8004340F6EF
:100560001F758968AC432143194318E0C16D41F000
:100570002001C1650121002280F85820BDE87C409F
:1005800008467047C2F800431168D2F80031194399
:10059000C90706D1D2F8001340F61F739943C2F879
:1005A00000130021E7E700BF080000502DE9FC41DF
:1005B00004460020019094F85800012804BF02204E
:1005C000BDE8FC810120884684F8580020688168D5
:1005D000490724D4D8E900121F2602F01F03C2F3F2
:1005E0000122C1F3846100EB82029E409940176BA7
:1005F00027EA06063143116302F080FE40F09A803C
:10060000D8F80820D8F80010B2F1004F0DD1002220
:1006100002F0E4FA2068416941F000410BE0E06D2E
:1006200040F02000E065012027E102F0D7FA2068C1
:10063000416921F000414161D8E90412C3680429ED
:1006400049D1016E066ED8F800308F4D1946C3F3BC
:10065000846293FAA3F3C6F384666FF3DF41B3FABF
:1006600083F300291F4608BF1746BE4205D1016E1D
:1006700021F00041016602F00CFE1E46002908BF71
:100680001646476E476EC7F38467B74205D1416E81
:1006900021F00041416602F0FCFD1E46002908BF22
:1006A0001646876E876EC7F38467B74205D1816EA1
:1006B00021F00041816602F0ECFD002908BF1346DD
:1006C000C16EC16EC1F38461994233D1C16E21F014
:1006D0000041C1662EE000F16007D8F800C0694E05
:1006E00057F821E00EEA060E062606EA93039A4022
:1006F0000CF0F8431A4342EA0E0242F0004247F877
:100700002120D8F81010D8F8182057F8213023F0FD
:1007100080731A4347F82120D8F8101057F8212089
:1007200098F81C3022F00072012B08BF02F1007211
:1007300047F82120D8F800108268D20752D1D0F8AB
:10074000B030D8F80C60504D0A466FF3DF4206F027
:1007500018079343FD400D402B43C0F8B0304B4B7E
:100760009E423FD1DAB191FAA1F1B1FA81F2531C64
:10077000910603F01E05092D19D8013201F180619F
:1007800003F01F03012502F01F0201F0F84105FAF2
:1007900003F302EB420241EA025119431CE0012239
:1007A00002EB91638A0E03F01E050A2DE5D3013298
:1007B00003F01F03012501F1806102F01F0205FA19
:1007C00003F3334D01F0F84102EB420205EB025214
:1007D0001143194341F00071D8F8082002F0FEF9E6
:1007E000D8F800102B48014246D02B4A2B481568F8
:1007F000814205F0E07302D02948814216D12802D7
:1008000027D42068B0F1A04F36D11068904920F06D
:10081000E070184340F4000010608C4802F00BFFB9
:100820000190019840B301980138F9E71D488142D1
:100830000FD10020B0EB136F0BD12168A2F502702D
:10084000814219D0106820F0E070184340F08070A9
:1008500011E0154E0020B14208BF15F480010CD103
:100860002168A2F50270814206D0106820F0E07085
:10087000184340F4800010600020002184F85810D4
:10088000BDE8FC8100F0FF03FFFF070000007F4090
:10089000000020FE0000088008030050000021C373
:1008A0001000C090000052C7000084CB0068006CAC
:1008B00070470000F8B50446002000906CB3E06D6E
:1008C00028B9204600F0CCF802F00AFD2066216825
:1008D000886880005C4802D58A6802408A608A681D
:1008E000D20014D48A6800F180501040584A40F079
:1008F0008050886055480068B0FBF2F0022202EB9D
:1009000040000090009810B100980138F9E788681D
:10091000C00004D402F04FFC02E00120F8BD00202A
:100920008A68E36D02F0040203F01003D218E26D4E
:1009300056D122F481720232E2658A68D2070ED162
:10094000444A1368D2F800512B43DB0707D1636890
:10095000D2F8005325F47C152B43C2F80033627F94
:10096000E36B43EA4232D4E902352A431A4394F84E
:10097000243042EA0342012B04D1A36A364D05EB31
:1009800043431A43E36A23B1256B03F478732B4383
:100990001A43CB68314D2B401A43CA60626B0B6916
:1009A00023F040631A430A618A6812073BD4CA687D
:1009B00094F8385044F202039A43237F6D0045EACD
:1009C00083331A43CA6022690B696AB143F48033E6
:1009D00043F6FF750B61D1F8C030AB431A430BE00F
:1009E00042F0100101202CE023F4803243F6FF7323
:1009F0000A61D1F8C0209A43C1F8C0200A6994F86E
:100A00004030012B0CD140F2FD7304F144079A43AE
:100A1000E8CF1A432A4332433A4342F0010201E04D
:100A200022F001020A610A6B636922F00F02012BB6
:100A300002D1236A013B1A430A630122E16D62F38A
:100A40000101E165F8BD00BFC0FFFF5F1400002099
:100A5000400D0300080000500000FEFF0740F0FFBB
:100A600010B598B0044613A81421FFF709FC02A89A
:100A70004421FFF705FC20689449884217D0B0F163
:100A8000A04F31D102F000FD02A800F077FB08B1C1
:100A9000FFF7F2FC154801684A1C0260144809B9C6
:100AA00002F0D4FB02F07BFC4FF4A04013E002F014
:100AB000EBFC02A800F062FB08B1FFF7DDFC0B487D
:100AC00001684A1C02600A4809B902F0BFFB02F043
:100AD00066FC4FF40040002115910321CDE913017C
:100AE000044813A900F07AF918B010BD580000208E
:100AF0004C100240000400482DE9F84F484AD0F855
:100B0000188082460D461068B8F1080F00F01F09E2
:100B100002D19346082710E0B9F1090F73D80120DC
:100B200040F2212100FA09F008426CD0DAF8000006
:100B3000C068C0076BD19346042700F031FA06461F
:100B40006C1CDAF800000168394219D1002CF8D089
:100B500000F026FA801BA84201D8002DF1D1DAF866
:100B6000000000683842ECD100208AF85800DAF81A
:100B70005C0040F00400CAF85C000320BDE8F88F78
:100B8000DAF85C1041F40071CAF85C10C16811F425
:100B9000406F15D19AF81D1091B9016809070FD55A
:100BA000DAF85C1021F48071CAF85C10DAF85C1095
:100BB000C90405D4DAF85C1041F00101CAF85C10F0
:100BC000ABF5027102468842014608BF4FF0A041D2
:100BD00081420BD0B9F1090F07D8012240F221233D
:100BE00002FA09F21A42024600D10A46D168B8F167
:100BF000080F01D1082102E0490401D40C21016051
:100C00000020BDE8F88F106810F4604F93D0DAF838
:100C10005C0040F02000CAF85C000120BDE8F88FBD
:100C20000803005070B5294D02F09EFB03D494F8E0
:100C30005800012801D1022070BD02F030FD18B12A
:100C400002F04EFB012070BD02F07DFC08BF4FF0AA
:100C5000A041814218BF002A03D1E36D23F4801321
:100C6000E365E36D0025DB0444BF256E25F0060532
:100C70002566002384F858301C238142036008D085
:100C8000092A15D8012303FA02F240F221231A425D
:100C90000ED0C168890104D5E16D012262F30D31E6
:100CA000E16581680A4A114004318160002070BD0D
:100CB000E06D40F48010E065C8688001F6D5E06D15
:100CC000012161F30D30E065F0E700BF0001005045
:100CD000C0FFFF7F90F82510022926D1B0B501682A
:100CE00000F140041CCC0D6825F00E050D60256850
:100CF00025F4807525600C6824F001040C6003F075
:100D00001F01012303FA01F15160D0E913124A6077
:100D1000416D31B10A6822F480720A60D0E916127E
:100D20004A600021BDE8B04002E00421C163012116
:100D3000002280F82420012280F8252008467047F0
:100D400090F8251002292ED1B0B50168D0E91032F3
:100D5000846C0D6825F00E050D600D6825F0010509
:100D60000D60216821F48071216002F01F010122D1
:100D700002FA01F15960D0E913134B60416D31B1B2
:100D80000B6823F480730B60D0E916134B600021CD
:100D900080F8241080F82520826B0AB1904700214A
:100DA000BDE8B04007E00421C163002180F82410B1
:100DB000012180F82510084670470000B0B50446B0
:100DC00000F0EEF805469448611C406818BF0444E2
:100DD00000F0E6F8401BA042FAD3B0BD2DE9FF4F6A
:100DE000644A06244FF0010A4FF0000B904200F1D4
:100DF000384208BF05244FEAB223052B38BF4FEA1B
:100E0000B22400F1200201940C460092002100223D
:100E10000294266836FA0BF708BFBDE8FF8F0AFA7E
:100E20000BF916EA090600F09F80D4F804C00323EA
:100E300003FA01F70CF0030E6FEA0708AEF10107A1
:100E4000012F14D88768D4F80CA00AFA01F507EA34
:100E500008074FF0010A3D438560CCF30015476851
:100E600005FA0BF527EA09073D43456005E0BEF1A9
:100E7000030F02D14FF0030E22E0C568A76805EA10
:100E800008058F403D43BEF1020FC56018D102F046
:100E90001C050F23009C03FA05FC6FF0030303EA13
:100EA0005B03E75827EA0C0C029F3F6907FA05F538
:100EB00045EA0C05E550029CD4F804C00CF0030E82
:100EC00005680EFA01F305EA08052B431CF4403FC0
:100ED000036049D02A4C2BF00307236843F0010339
:100EE000236023680F2403F00103039302F00C0333
:100EF00004FA03F5204CA4462744039C214CA64643
:100F00003C59AC43019D05FA03F3234347F80E30E7
:100F1000DCF80830029D6D6843EA0604EF0258BF12
:100F200023EA0604154BCCF80840AF029E461B6826
:100F300043EA060458BF23EA0604CEF80040AF0394
:100F4000DCF8043043EA060458BF23EA0604CCF870
:100F50000440ED03DCF8003043EA060458BF23EAFE
:100F60000604CCF80040029C023104320BF1010B64
:100F70004FE700BF00140048000401400C0401408A
:100F80006010024008FCFFFF0069084018BF012004
:100F900070471823002A08BF2823C150704700005B
:100FA00005480068704700BF1B48034940680A684D
:100FB00010440860704700BFB402002080B50320D1
:100FC00000F07CF80F2000F007F808B1012080BD88
:100FD00000F024F8002080BD70B50F4E0446706804
:100FE000B0B14FF47A71B1FBF0F05F490968B1FB21
:100FF000F0F000F0F5FC01250F2C0AD848B94FF0AD
:10100000FF3021460022002500F032F8346000E075
:101010000125284670BD00BF0800002082B00B48A3
:10102000816841F001018160816801F00101019155
:101030000199016841F080510160006800F0805022
:101040000090009802B000F093B800BF5810024022
:10105000002809D41C21012201EAD00100F01F0060
:1010600002FA00F0014A8850704700BF00E100E03A
:10107000F0B5184B4FF0FF361C68C4F30224E51E90
:1010800084F0070438BF002506FA05F7BA43042C9C
:1010900028BF042406FA04F4A14300F00F04A94079
:1010A000043C1143044A234409010244002848BF78
:1010B00003F10C021170F0BD00E400E005494FF6A9
:1010C000FF030A681A4060F30A22034810430860CD
:1010D000704700BF0CED00E00000FA0510B5A34911
:1010E000B0F5007F0A681AD0C0BBD1F8800020F4A8
:1010F000807002F035FA35D102F0D3F91A48006851
:1011000050431A4AB0FBF2F0002201304C6901381A
:1011100042F1000364051BD5002BF7D118E0D1F88C
:10112000800040F4807002F01BFA1BD102F0B9F984
:101130000D48006850430D4AB0FBF2F00022013028
:101140004C69013842F10003640501D5002BF7D149
:101150004869400544BF032010BD03E0022060F34E
:101160004A220A60002010BD1400002040420F00F7
:10117000014802F09DB800BF087000402DE9FC4115
:1011800004468078784E000701D400204BE0F06CD4
:101190005FEAC00808D4F06C40F08050F064F06C56
:1011A00000F0805001900198704F386840F48070D2
:1011B0003860FFF7F5FE05463868C00506D4FFF72E
:1011C000EFFE401B0228F7D9032025E0D6F8840063
:1011D00010F4407017D0216C884211D0D6F88400EA
:1011E000D6F8841041F4803120F44070C6F88410A1
:1011F000D6F8841021F48031C6F88410C6F8840033
:10120000C00740F0A180206CD6F8841021F4407112
:101210000843C6F884000020B8F1000F03D4F16C35
:1012200021F08051F1642168CA0705D06268F36F2C
:1012300023F003031A43F2678A0705D5A268F36F08
:1012400023F00C031A43F2674A0705D5E268F36FEF
:1012500023F030031A43F2670A0705D52269F36FBA
:1012600023F0C0031A43F2678A0605D56269F36F5B
:1012700023F440631A43F2674A0605D5A269F36F67
:1012800023F440531A43F2670A0605D5E269F36F67
:1012900023F440431A43F267CA0505D5226AF36F67
:1012A00023F440331A43F2678A0505D5626AF36F67
:1012B00023F440231A43F2674A050AD5A26AF36F62
:1012C00023F440131343B2F5801FF36701D101F0FB
:1012D00084FF0A050AD5E26AF36F23F4400313433F
:1012E000B2F5800FF36701D101F077FFCA040AD588
:1012F000226BF36F23F040731343B2F1807FF367E7
:1013000001D101F06AFF8A0405D5626B02F061F831
:1013100001D101F062FF4A0405D5A26B02F059F831
:1013200001D101F05AFF09040CD5E16BF26F22F0F4
:1013300040520A43B1F1805FF26703D1316841F452
:1013400080313160BDE8FC81FFF72AFE054641F29D
:101350008837D6F8840080073FF555AFFFF720FEA9
:10136000401BB842F5D92FE70C1002400070004036
:101370002DE9F047002853D0714B04460D461868FC
:1013800000F00F00814209D9186820F00F002843AF
:101390001860186800F00F00A84241D120688F4EF5
:1013A0009A46C107B14602D1810774D486E06268CB
:1013B00056F8081C022A31D0032A34D189012FD5CE
:1013C000716872687368B4467668022701F0030199
:1013D000C6F341660329C2F3031107EB4606804FAB
:1013E000C3F3062201F1010104BF43F20067C0F21A
:1013F0006E17B7FBF1F15143524AB1FBF6F191423E
:1014000020D9DCF80010664611F0F00F12D08007EA
:1014100001D5A06870B14FF0000816E0880304D42D
:101420000120BDE8F0874805FAD500F0A9F8454944
:101430008842F0D9306808214FF0010861F30710A5
:10144000306002E04FF0000866466068316821F0C5
:101450000301084302F022F8064641F2883760682B
:10146000D9F8001001F00C01B1EB800F05D0FFF7A7
:1014700097FD801BB842F2D93AE02068810708D472
:10148000B8F1000F4E46534618D0316821F0F001F4
:1014900013E04E465346410703D5316841F4E061FD
:1014A0003160010704D53168072262F30D213160F4
:1014B000A168326822F0F00211433160196801F02E
:1014C0000F018D4219D2186820F00F0028431860D0
:1014D000FFF766FD064641F28837DAF8000000F0B3
:1014E0000F00A84207D0FFF75BFD801BB842F4D97C
:1014F0000320BDE8F08720684E46410705D5E16826
:10150000326822F4E06211433160000706D5206999
:10151000316821F4605141EAC000306000F030F8D9
:101520003168094AC1F30311515C01F01F01C84041
:101530001149086005480068BDE8F047FFF74CBD59
:101540000020024000B4C404884E000808000020B7
:1015500009482249094A00680968C1F3022101F0DB
:1015600033BF00BF04481D49044A00680968C1F33D
:10157000C22101F029BF00BF14000020984E0008CE
:101580001649174A086800F00C000428104624D0B9
:10159000086800F00C031348082B1ED00B6803F0FA
:1015A0000C030C2B1CBF002070474B6803F0030397
:1015B000032B08BF02464868C0F303100130B2FB9A
:1015C000F0F04A684968C2F30622C1F34161504312
:1015D000022202EB4101B0FBF1F07047081002401B
:1015E0000024F40000366E01002863D02DE9FC4190
:1015F00004460078CF4EC00712D0B068F16800F002
:101600000C000C2803D101F00301032902D00828A3
:1016100040F0D1803068800302D56068002865D032
:101620002078800748D42078000762D420784007CB
:1016300076D42078800600F1A780E769002F00F0BB
:10164000B481B06800F00C000C2840F0E880012F55
:101650004CD0216AF06800F003028A4246D1616AE8
:101660006FF00F0202EB011100F0F0028A423DD14F
:10167000A16A00F4FE42B2EB012F37D1E16A00F01B
:101680007842B2EBC16F31D1216BD44A02EA0151E9
:1016900000F4C002A1F500118A4227D1616B4FF01E
:1016A0007E4200F0C06002EA016101F17E418842A1
:1016B0001CD17AE101207047B068F16800F00C009D
:1016C0000C2803D101F00301022902D0042840F0C4
:1016D00094803068400501D5E06838B101F075FDAF
:1016E000BA480068FFF778FC00289CD00120BDE8CC
:1016F000FC81D6F89400616900296CD040F00100AB
:10170000C6F89400FFF74CFC0546D6F89400800715
:101710003FF58CAFFFF744FC401B0228F5D9DBE016
:10172000B06D5FEAC00808D4B06D40F08050B0657D
:10173000B06D00F0805001900198A54F3868C00549
:101740000FD4386840F480703860FFF729FC0546F4
:101750003868C00505D4FFF723FC401B0228F7D9E1
:10176000BAE0D6F89000A168012908D0052940F018
:10177000848040F00400C6F89000D6F8900040F055
:101780000100C6F8900083E0D6F89800A16900290E
:1017900061D040F00100C6F89800FFF701FC054653
:1017A000D6F8980080073FF548AFFFF7F9FB01F046
:1017B0007BFDF5D99BE730686168B1F5803F06D0C5
:1017C000B1F5A02F73D140F480203060306840F430
:1017D0008030306074E020F00100C6F89400FFF71C
:1017E000DFFB0546D6F8940080077FF51FAFFFF7B3
:1017F000D7FB401B0228F5D96EE03068E16800296C
:101800006DD040F4807001F049FE05463068400517
:1018100074D4FFF7C5FB01F047FDF7D967E73068DF
:1018200020F0807001F03AFE0546022F09D13068A1
:10183000800140F18180FFF7B3FB01F035FDF6D95F
:1018400055E73068800140F1AC80FFF7A9FB01F05B
:101850002BFDF6D94BE720F00100C6F89800FFF702
:101860009FFB0546D6F8980080077FF5E6AEFFF7A8
:1018700097FB01F019FDF5D939E720F00100C6F812
:101880009000D6F8900020F00400C6F89000C1B394
:10189000FFF786FB054641F28837D6F890008007AF
:1018A0003FD4FFF77DFB401BB842F6D914E020F48B
:1018B000803000293060306820F48020306077D09C
:1018C000FFF76EFB0546306880033FF5A9AEFFF7D2
:1018D00067FB401B6428F6D90320BDE8FC8120F497
:1018E000807001F0DBFD0546306840057FF59BAE5A
:1018F000FFF756FB01F0D8FCF6D9F8E601F065FCDD
:1019000091E6FFF74DFB054641F28837D6F8900087
:10191000800706D5FFF744FB411B0320B942F5D9E8
:10192000E5E6B8F1000F3FF584AEB06D20F08050D1
:10193000B0657EE60010024004F120036FF00F0551
:10194000254F0FCB05EB0111F5683D4028430843B7
:10195000216B40EA0220214A02EA01514FF07E4207
:10196000A1F500110843616B40EAC36002EA01611E
:1019700001F17E410843F060306840F080703060D3
:10198000F06840F08070F060FFF70AFB04463068B2
:1019900080010AD4FFF704FB011B03200229F6D9BA
:1019A000A5E6F0680B490840F0600020BDE8FC8126
:1019B000FFF7F6FA0546306880037FF531AEFFF792
:1019C000EFFA411B03206429F5D990E608000020B6
:1019D00000700040FCFFEEFE0C809F010000E0FF65
:1019E000411E0020B0EB116F1CBF01207047044A5C
:1019F000F023516003490B7007219060116070471C
:101A000010E000E023ED00E090F83C20012A01D135
:101A1000022142E0F0B591E87800214A26F47C5694
:101A200025F47055144035432C4302F500652B40D6
:101A30000D69234302F5C0542C4023434C692343D2
:101A400002F5605402F5F04223400C6B2240154C25
:101A50001A43CB691A438B6904EA0343CA4C134304
:101A60000268A24202D0E14CA24210D10E4C01F118
:101A700020060E4FC96A234070CE07EA065633434C
:101A800024F00854234325F0005423430B43002142
:101A900080F83C105364BDE8F0400846704700BF32
:101AA000FF87F0EF0000FFEFFFFF0FDC0000F0DC2E
:101AB00090F83C300222012B32D070B580F83D20E6
:101AC000B14C026855689368A24202D0C74EB24238
:101AD00003D14E6825F470053543124E35400E682B
:101AE0003543B2F1804F55600DD0BF4DAA420AD0A8
:101AF000A34DAA4207D0BD4DAA4204D0A14DAA428F
:101B000001D0A24204D1896823F080031943916077
:101B10000022012180F83C2080F83D10BDE8704093
:101B2000104670478FFFFFFD70B110B501F06EFDDC
:101B300003D101F0A0FC00F009F801F0B9FC01208C
:101B400001F050FB01F077BC0120704710B586B062
:101B5000044601A81421FEF793FB2068B0F1804FE2
:101B60001BD1A348C16841F00101C160C16801F007
:101B700001010091009901F073FB01F0FDFA0120D1
:101B800005900020CDE903000220CDE90100009876
:101B900001A94FF09040FFF721F906B010BD00BF3A
:101BA000F8B501F071FD04BF0220F8BD0D4601201B
:101BB0004FEAB201032984F83C0067D8DFE801F05E
:101BC0000254102FD5E90012EB68206802F090F95A
:101BD000206850F8181F21F00C010160A96851E03D
:101BE0002268136A106A20F4807023F42063106264
:101BF000D5E90067D5E9021060F30717104650F8E1
:101C00001C5F25F0F3053D43056006F00A0543EA35
:101C100005231362026822F00C02026032E02168A0
:101C20004FF2FF070A6A086A20F4805022F420422B
:101C30000862D5E90030D5E90265000203F00A0325
:101C400020EA0707084642EA033265F30F3750F8E7
:101C50001C5F25F473453D4305600A62016821F469
:101C60004061016031020DE0D5E90012EB682068A7
:101C700002F084F9206850F8181F21F440610160D7
:101C8000A9680902026811430160002001F0E1FC2B
:101C9000F8BD70B110B501F0B9FC03D101F0EBFB58
:101CA00000F009F801F004FC012001F09BFA01F0BA
:101CB000C2BB012070477047B0B5044661B101F066
:101CC000DCFC38BF02EBB005625D042908D00829AE
:101CD00014BF4720462004E094F83E20442000E052
:101CE0004520235C0120012A08BF012B00D0B0BD94
:101CF00059B1081F4FEAB000032812D8DFE800F0FE
:101D0000020E080B01F079FC0DE001F019FB15E063
:101D100001F085FC07E001F086FC04E001F087FC9F
:101D200001E001F078FC082906D0042914BF84F8EA
:101D3000470084F8450001E084F84600206801F07F
:101D400030FC2168B1F1804F0ED0A64881420BD003
:101D5000A548814208D0A548814205D0A4488142C7
:101D600002D0A448814207D18868A44A01F07AFCD5
:101D7000BDD0B2F5803FBAD001F0D2FAB0BD00BFFD
:101D800000080040004001400034014010B586B01A
:101D9000044601A81421FEF773FA2068914988428D
:101DA0000BD0924988421CD1114801F059FA062102
:101DB00001F0E2F90098802007E00D4801F050FAA8
:101DC000022101F0D9F90098402005910021CDE9C8
:101DD00003110221CDE9010101A94FF09040FEF766
:101DE000FDFF06B010BD00BF00040040002C014004
:101DF0004C100240B0B501F047FC04BF0220B0BD5A
:101E00000D4601204FEAB201052984F83C0048D86C
:101E1000DFE801F0032B13230B332068294601F080
:101E20009FFE206850F8181F0EE02068294601F038
:101E30008BFF206850F8501F06E02068294601F00B
:101E400007FF206850F81C1F41F00801016001687D
:101E500021F00401016029691FE02068294601F092
:101E600033FF206850F81C1F0EE02068294601F05F
:101E7000B7FE206850F8181F06E02068294601F0D8
:101E80008DFF206850F8501F41F400610160016827
:101E900021F480610160296909020268114301602F
:101EA000002001F0D6FBB0BD70B110B501F0AEFB63
:101EB00003D101F0E0FA00F009F801F0F9FA01208D
:101EC00001F090F901F0B7BA0120704782B00068C4
:101ED000444988420DD04549884214D10B48816855
:101EE00041F400618160806800F400600190019815
:101EF00009E00648016841F002010160006800F055
:101F000002000090009802B0704700BF58100240D5
:101F1000B0B5044681B101F02EFA38BF03EBB2052B
:101F2000625D012A0FD1032818D8DFE800F00214FF
:101F30000E1101F062FB13E094F83E00012802D17B
:101F400001F049FB0CE00120B0BD01F068FB07E0A7
:101F500001F069FB04E001F06AFB01E001F05BFBCA
:101F600001F07BFB21681E4801F078FA1FD801F0D0
:101F700048FB1CD001F0FBFA0ED01A4881420BD06E
:101F80001948814208D01948814205D01848814239
:101F900002D01848814207D18868184A01F062FBD4
:101FA00004D0B2F5803F01D001F0BAF9B0BDB1F173
:101FB000804FF1D00B488142EED00B488142EBD0EC
:101FC0000A488142E8D00B488142E5D00848814266
:101FD000E2D009488142E7D101F03BFAE4E700BFD3
:101FE00000D4FEBF0004004000080040002C014067
:101FF000004001400034014000480140070001005A
:102000004FEAB10103298FBF0020006800EB810077
:10201000406B7047B0B501F0EAFA0FD001F0C7FA93
:1020200000284FF0010005D12068C16821F040016F
:1020300001F01CFB01F00DFB84F83D50B0BD90F8A1
:102040008410012901D1022112E02421C0F8881056
:1020500001680A680B6823F0010322F000520B604C
:102060000A6000212022416680F88410C0F8882090
:102070000846704770477047B0B501F020FA04BFBA
:102080000220B0BD01F0CFF822F0606201F081FAC9
:1020900001F01DB9B0B501F012FA04BF0220B0BDC5
:1020A00001F0C1F822F0604201F073FA01F00FB9BB
:1020B0007047704770470000F8B50168044640F665
:1020C0000F05CA6908688B682A424FEA826567D0A3
:1020D000AA4E00EA0607AA4E1E40BF1968D0D707CD
:1020E00009D0C70507D501270F62D4F8907047F0D3
:1020F0000107C4F89070970709D5DF0707D00227BA
:102100000F62D4F8907047F00407C4F89070570736
:1021100009D5DF0707D004270F62D4F8907047F085
:102120000207C4F8907017070BD500F020073E4354
:1021300007D008260E62D4F8906046F00806C4F86E
:10214000906012050AD5420108D54FF400620A6278
:10215000D4F8902042F02002C4F89020D4F89020C7
:10216000002A00F00681002D0AD503F0805200F00D
:102170002000801804D0626F12B120469047216879
:10218000D4F89000896800F0280001F04001401860
:102190004ED12046FFF78EFF0020C4F89000F8BD16
:1021A000002D05D503F0805500F02006AD1959D15A
:1021B000E56E012D03D1D50601D5C5065AD4D50249
:1021C00001D55D022CD4110605D503F4000100F001
:1021D0008003C91844D1510601D5410610D411021B
:1021E00002D5410000F18280D10140F1C280B0F1FE
:1021F000FF3F00F3BE802046BDE8F840FFF73BBF3D
:1022000001F0F0F920F0400001F096F8F8D100203C
:10221000A06701F0D4F92046BDE8F84000F0A2B96B
:102220004FF4801008622046BDE8F840FFF741BF38
:10223000204601F085FF20688068400651D501F0F6
:102240003CF8FCD101F01CF94BD04E498163FEF7FC
:1022500077FD002800F08D80D4F88000816B06E0C7
:10226000A16F00E0616F002900F083802046BDE887
:10227000F840084710200862886840063BD4B4F84C
:102280005E00B4F85C10B4F85E20002A71D0814280
:102290006FD0081A216851E8001F226821F490715C
:1022A00042E80013002BF5D13749226852E8022F8B
:1022B00023680A4043E80225002DF6D12021C4F806
:1022C0008C1000216167E166216851E8001F2268D7
:1022D00021F0100142E80013002BF5D10221216703
:1022E0003CE02046BDE8F840FFF7E4BE2046BDE8EC
:1022F000F840FFF7DDBED4F88000B4F85C20006839
:10230000436899B281B391422ED2A4F85E3000683E
:1023100080061CD401F066F920F4807001F00CF8FE
:10232000F8D101F091F920F0010001F00FF8F8D197
:1023300000F0C3FFFCD12020C4F88C000020E06630
:1023400000F067FFFCD1D4F88000FEF7C3FC022048
:102350002067B4F85C00B4F85E10401A81B22046E1
:10236000BDE8F840FFF786BE8A4202D100688006C9
:1023700000D4F8BD02202067F1E700BF200100046F
:102380000100001033410008FEFFFFEF10B560B1FF
:1023900001F01DF908B901F07CF901F0EFF801D066
:1023A00001F0FCF801F000F908B1012010BD01F0C6
:1023B000B3F821F02A01816000F0B8FFBDE81040B9
:1023C00001F06EBE10B598B0044613A81421FDF7B5
:1023D00057FF02A83C210830FDF752FF20681C4936
:1023E000884232D1002401200394029002A8FEF713
:1023F000C5FE08B1FEF740F81648416941F4804136
:102400004161416901F4804101910199016841F004
:1024100001010160006800F0010001900720CDE992
:1024200015441790022014904FF4C0601390019847
:1024300013A94FF09040FEF7D1FC25200021002287
:10244000FEF716FE2520FEF703FE18B010BD00BFF4
:10245000003801404C100240D0F88C30202B1CBFBB
:102460000220704789B182B1B0B50023084CC36621
:102470000368A34205D05B681B0202D500F082FF0F
:10248000FCD102F079F90020B0BD0120704700BFF7
:102490000080004006490A784B7802EB820203EB89
:1024A0004202044B103A1A700222FFF7D5BF00BF58
:1024B0002C0000201C0000202DE9F84301F087F8D3
:1024C00020281CBF0220BDE8F883884699B3174630
:1024D0008AB300201D46C4F890002120C4F888006B
:1024E000FEF75EFDA4F856700646A4F85470A06886
:1024F000B0F5805F01D1206988B34FF000094746ED
:10250000B4F85600D0B12046802100F0F6FF08BB99
:1025100027B117F8010B2168886206E039F8021B21
:10252000206800276FF35F218162B4F856000138FC
:10253000A4F85600E4E70120BDE8F88320464021D6
:1025400000F0DBFF2021C4F88810002818BF03200A
:10255000BDE8F88301F033F80320BDE8F8830027D5
:10256000C146CDE77047FEE7B0B501F0E1F90024C0
:102570000825280609D000F024FF00F019FE01F01C
:10258000D3F940EA4404013DF3E700F01AFF01F0FB
:10259000E5F9E0B2B0BD80B5002001F0D7F900F058
:1025A00007FE0020BDE8804001F0B6B9B0B5044692
:1025B000082528060AD000F004FF04F0800001F08E
:1025C000C5F900F0F5FD6400013DF2E70020BDE82B
:1025D000B04001F0A1B980B5012001F0B7F900F0D9
:1025E000E7FD0020BDE8804001F096B980B50120EC
:1025F00001F0ACF900F0DCFD002001F0A7F90020AB
:10260000BDE8804001F088B980B500F0DAFE002016
:1026100001F09CF900F0CCFD0120BDE8804001F004
:1026200095B910B501F084F900F0C2FD052401F060
:102630007BF940B1013C2004F9D101F08FF9FFF79B
:10264000E3FF012405E001F089F90020002401F0F6
:1026500063F9204610BD000010B500F031F8CD49F7
:102660004A78904215D00228487013D0012810D122
:10267000887880F001008870CF4801781031CAB2A4
:102680008F2A08BF0F210170C8B2BDE8104000F0CA
:10269000B4BA10BDC84C60780A30C1B2642908BF12
:1026A0000A20C1B26070890051FA80F001F0C8F9C7
:1026B000607800EB80004000BDE8104001F0D8B920
:1026C000B0B55E4D01212846FEF75EFC08B100243E
:1026D00008E000F061FE28460121FEF755FCB0FA43
:1026E00080F0440928460221FEF74EFC40B900F074
:1026F00053FE28460221FEF747FC002808BF0224AB
:1027000028460421FEF740FC40B900F045FE28466B
:102710000421FEF739FC002808BF032400F091FDD6
:1027200030B900F039FE00F08CFD002808BF042409
:102730002046B0BDFEB503204FF6FF710490002087
:1027400001910290059003900B4801A9FEF746FB0A
:1027500006B080BDFEB503200490012002904FF624
:10276000FF700190002005900390034801A9FEF737
:1027700035FB06B080BD00BF00080048B0B5044678
:102780000020002100F076F900F0B2F94FF4963500
:1027900025B1204600F086F9013DF9E7B0BD000003
:1027A0002DE9F04186B00DF1040814214046FDF7F3
:1027B00067FD2148214D032601270024016841F0CF
:1027C00004010160016801F00401009100990168B1
:1027D00041F001010160016801F0010100910099DF
:1027E000016841F0020101604146006800F002000A
:1027F000009000980496029703944FF4487001905B
:102800002846FEF7EBFA4FF4807041460496029793
:10281000039401904FF09040FEF7E0FAFFF79AFF23
:102820000748295841F480712950A86940F408707C
:10283000A86106B0BDE8F0814C10024000040048D9
:1028400018FCFFFF203AD3B25B0053FA82F2024B2E
:1028500003EB021200F014B8A04E0008F8B50C46C5
:10286000054640F23F160027E25D42B1132F06D81D
:10287000B1B22846FFF7E6FF0137103EF4E7F8BD96
:102880002DE9F04714468846814600F0F3F8DFF85A
:10289000E0A1834E0027182F08BFBDE8F08700F0A5
:1028A00027F90025102D0BD034F81700E840C00799
:1028B000304608BF5046008800F0F4F80135F1E7D3
:1028C00009F1010941465FFA89F000F0D3F80137B8
:1028D000E1E700BF10B5FFF763FF002000F09EF8AE
:1028E000084C48F2302120802088884202D100F034
:1028F000DDFE01E000F044FF002000F08FF82080B2
:1029000010BD00BF600000202DE9F041214D288955
:10291000B0F5FA7F38BFBDE8F08100202B782A7926
:1029200005F12804224E1CA128812046B047214FE2
:1029300030202146B847DFF880806A8A1FA12046F0
:1029400098F80030B04760202146B8472B8AEA89C2
:1029500020A12046B04778202146B84705F10A005B
:1029600001F074F8A889204998F80130B1FBF0F221
:102970001EA12046B047A8202146B8476B89AA89E6
:1029800020A12046B047C02021463A46BDE8F0418C
:10299000104700BF18000020205345433A2530332C
:1029A00075202020434E543A253033752000000016
:1029B000D54900085D280008040000202052333764
:1029C0003A25303475202042313A20307825303293
:1029D00058000000205233383A2530347520204DFD
:1029E00043503A253033750040420F00204652458F
:1029F0003A25303475202042323A20253032752570
:102A000025200000205045523A25303475202057AB
:102A100049443A253033752000000000B0B50D4C14
:102A2000D4F8101441F40071C4F81014D4F8101440
:102A300041F48071C4F81014D4F8001441F020015E
:102A4000C4F800140449086000F09BFB00F00DFC82
:102A500000F0AFBC180000481408004881B0ADF881
:102A600002000348BDF80210018001B0704700BFAA
:102A70001000002010B50C460146202000F060F840
:102A800021202146BDE8104000F05AB881B0ADF8D1
:102A900002000348BDF80210018001B0704700BF7A
:102AA0005E00002033490A6942F400720A610A6834
:102AB00042F480720A600A6842F020020A60C1F89B
:102AC000FC03086940F02000086100BF00BF00BFA0
:102AD000086840F020000860086840F480700860D2
:102AE00000BF00BF00BF086840F400700860704776
:102AF0002048016941F400710161016941F480716C
:102B00000161016841F0200101602221C0F8FC133D
:102B1000016941F02001016100BF00BF00BF0168F1
:102B200041F020010160016841F48071016000BF43
:102B300000BF00BF016841F400710160704700BF31
:102B40000C4A136943F400731361136943F48073EF
:102B50001361136843F020031360C2F8FC0373464B
:102B600000F0E1FC9E46C2F8FC13714600F0DBFC6D
:102B70008E4670471804004810B5C0430749084CFA
:102B800001220002605020460421FEF702FA20468E
:102B900004210022BDE81040FEF7FBB914FCFFFF42
:102BA000000C00480C48C27801798A4208BF70477F
:102BB000C1708178427929B15108022A38BF6FF07B
:102BC0007F0104E05100C9B2012998BF0121417180
:102BD000C8B2FFF7D1BF00BF1800002010B5C1F385
:102BE0000453C1F34061072400EB81009C409A40EC
:102BF0004169A1431143416110BD10B50446FFF77F
:102C0000F5FC5E20FFF7D2FCFFF70BFD2046FFF737
:102C1000CDFCFFF706FDBDE81040FFF7F5BC000056
:102C20002DE9F04100F030FBDFF84080A020C047E4
:102C30000F4FB8473046C047B847FFF7D7FCA12031
:102C4000C047B84720060CD0013CFFF78DFC05F8C3
:102C5000010B200602D0FFF79EFCF3E7FFF7BBFC59
:102C6000F0E7BDE8F041FFF7CFBC00BFAD2500089D
:102C70002326000870B500F007FBA020FFF796FCA4
:102C8000FFF7CFFCF0B2FFF791FCFFF7CAFC20067C
:102C900003D015F8016B013CF4E7BDE87040FFF785
:102CA000B3BC0000B0B58CB0002420210B94CDE95A
:102CB000094401A8FDF7E4FA2248022104224FF456
:102CC00040334FF0A0450162012100F04BFAC0E90A
:102CD0000053C0E9024482618183C0E90441FDF7E9
:102CE000E9FD08B1FDF7C8FB1648099409A9FDF7ED
:102CF0000BFC08B1FDF7C0FB0421002005917F21EA
:102D00000690CDE90301062002900F4801900D487E
:102D100001A9FDF74BFC08B1FDF7AEFB05200390C0
:102D20000C20029009480190064801A9FDF73EFCDD
:102D300008B1FDF7A1FB03487F21FDF7A1FB0CB013
:102D4000B0BD00BF640000200008302E2000F01449
:102D5000B0B588B01748184A00244FF44031012319
:102D60000425CDE9064400F0FDF903628483C0E93F
:102D70000021C0E90244C0E904448561FDF79AFDE1
:102D800008B1FDF779FB7F206946CDE90454CDE910
:102D9000024006200190094800900648FDF706FC15
:102DA00008B1FDF769FB03487F21FDF769FB08B017
:102DB000B0BD00BFD0000020000100500080F03EF8
:102DC0002DE9F04F87B00DF1080814214046FDF7BA
:102DD00057FA4148424D00224FF6FF7A002401681D
:102DE00041F004010160016801F0040101910199C1
:102DF000016841F020010160016801F020010191AA
:102E00000199016841F001010160016801F00101CF
:102E100001910199016841F002010160016801F02E
:102E2000020101910199016841F0080101604FF62A
:102E3000FF71006800F0080001900198274800F534
:102E4000806783463846A8474FF090404FF4807122
:102E50000022A8470BF50066042100223046A8474F
:102E600058464FF470710022A8471E4D4FF00109DB
:102E700038464146CDE90444CDE902A9A8474FF0C0
:102E8000904041460494CDE90294A847072041466A
:102E9000CDE9034402905846A8474FF4807000F0F3
:102EA0005BF94FF09040A847042000F055F93046F8
:102EB000A84711204146CDE904440390C020029068
:102EC0005846A8474FF4407000F046F95846A847C6
:102ED00007B0BDE8F08F00BF4C100240000400486E
:102EE000930F0008DD0D0008B0B598B00EAC1C21A2
:102EF0002046FDF7C5F901A83421FDF7C1F929489D
:102F0000294B002540F2F311A922C0E90032C0E9A3
:102F10000251C0E904558561FEF7C6FF08B1FDF70F
:102F2000ABFA20481795CDE9155515A9FEF7C0FD58
:102F300008B1FDF7A1FA322014210F9060200E9005
:102F400004F10800FDF79CF91648214600220025EF
:102F5000FEF750FF08B1FDF78FFA01AC14212046AF
:102F6000FDF78EF94FF480402146CDE90B55CDE9B0
:102F700007550D904FF00070CDE909504FF4005007
:102F800006900848FEF740FD08B1FDF775FA054CBC
:102F900002212046FEF7BCFF2046FEF7F7FE18B0E0
:102FA000B0BD00BF3C010020002C014010B58CB02A
:102FB0002D4800214FF0FF32A9234FF080440A91A1
:102FC0000691CDE90411CDE90211CDE9001181612D
:102FD000C0E90043C0E902120161FEF7A5FD08B196
:102FE000FDF74AFA2048FEF754FE08B1FDF744FA0F
:102FF00060200024089004200B94099407901A483C
:1030000007A9FFF707F808B1FDF736FA1648069446
:10301000049404A9FEF74CFD08B1FDF72DFA022037
:10302000002469460022CDE900000F48CDE90244A2
:10303000FEF7B6FD08B1FDF71FFA0120694604222C
:10304000CDE900400848FEF7ABFD08B1FDF714FAE2
:10305000054C00212046FEF72FFE20460421FEF7F6
:103060002BFE0CB010BD00BF8801002010B58AB047
:103070001B481C4B002440F2E731A9220894CDE9FB
:103080000544CDE903448461C0E90032C0E902414E
:103090000461FEF709FF08B1FDF7EEF91048099445
:1030A000079407A9FEF704FD08B1FDF7E5F9002034
:1030B00069460022049002906420019060200090F4
:1030C0000748FEF797FE08B1FDF7D6F9044C00213A
:1030D0002046FEF71DFF2046FEF758FE0AB010BD41
:1030E000D40100200004004010B5184800210C2233
:1030F000174C4FF41653C0E904124FF48052C0E944
:103100000043C0E90211C0E90611C0E90811C26319
:1031100010228262FFF73AF908B1FDF7ADF90B48CA
:103120000021FEF7B7FF08B1FDF7A6F90748002117
:10313000FEF7A2FF08B1FDF79FF90448FEF77FFFF5
:1031400018B1BDE81040FDF797B910BD200200206E
:1031500000380140FEE7FEE741460594CDE90394BF
:103160000290704780F84040C46380F83840C0E95E
:103170000B4480F824407047006800F00100009084
:103180007047D4F8100440F02000C4F8100400BFC9
:1031900000BF00BFD4F8000440F02000C4F80004D1
:1031A000D4F8000440F48070C4F80004FFF7C2BAF9
:1031B000012000F0B1BBE06D40F01000E065206E32
:1031C00040F001002066012070472069716821F0FD
:1031D000FE4141EA006070607047326842F480123C
:1031E0003260704784F8480084F83E0084F83F005D
:1031F00084F8400084F8410084F8420084F84300D9
:1032000084F8440084F8450084F8460084F84700B8
:103210007047206850E8000F216820F0100041E856
:103220000002002A70472420C4F88800206805683E
:10323000026822F001020260012284F88420826880
:1032400070474FF090400121FDF79EBE016841F4A8
:1032500000510160016801F400510191019970472A
:10326000016841F0010101607047206940F48070FD
:10327000206100BF00BF00BFD4F8F857206840F4B9
:1032800080702060FFF766BA14460E460546FFF7C9
:10329000ADB9D8F8003003EA0501C3F3846293FAAC
:1032A000A3F3B3FA83F37047411B0320022970474D
:1032B000016841F4804101607047206850E8020FC6
:1032C000216820F0400041E80202002A704720688F
:1032D00020210560002084F88400C4F88810B0BD67
:1032E000002084F858007047016851E8021F026806
:1032F00021F0010142E80213002B704781688268C7
:1033000001F0040102F0080289187047016851E8D1
:10331000001F026821F0100142E80013002B7047E3
:10332000086840F00100086000207047016841F023
:10333000010101602046704741E80002002A704701
:10334000022084F83E0084F84400704741E80202FD
:10335000002A7047016851E8001F026821F490714B
:1033600042E80013002B70470446D5F80862006855
:103370008068400770470A1F3F2343254FEAB20089
:1033800004287047036853E8003F046843F08063F3
:1033900044E80035002D70470A20FDF70FBD016895
:1033A00041F002010160006800F002000190019804
:1033B0007047D4F8000440F40070C4F80004A8B2C8
:1033C000B0BD002000F0A8BA515C01F01F01C84058
:1033D0007047F36F23F040631343B2F1006FF3675C
:1033E0007047216851E8021F2268014042E8021339
:1033F000002B704704210162D4F8900040F00200D5
:10340000C4F890007047C0F820B0D4F8902042F083
:103410000402C4F890207047C0F820A0D4F890208F
:1034200042F00102C4F890207047906940F0080013
:103430009061BDE8F88F84F83D00002010BD0022A7
:103440002B460090204601F021BAB0F85C10FEF740
:1034500011BE486C40F400404864704708444FEA8D
:10346000B02006287047C4F88C00002060672067F1
:10347000206888427047002084F83C00204670474E
:10348000D4F88000002870474FF0005011904FF49E
:1034900000400290704740F2033120473060FDF752
:1034A0007FBD0868012262F34A203222086070471B
:1034B0000220211D84F83D00206800F0DFBA044698
:1034C00090F884000128704710689168B4F8605043
:1034D000D4F88C30222B7047016851E8001F026835
:1034E00041F4807142E80013002B7047B042026241
:1034F0008C68D1F800C045687047002233460095BB
:1035000001F0C4B9886940F008008861704720461E
:10351000B4F85C10FEF7AEBD2068416821F490411C
:10352000416081687047106940F02000106100BF61
:1035300000BF00BF106840F020001060106840F429
:103540008070106070472068E16D40F6017306F0EE
:103550001F02994301F58071A842E1650146704759
:10356000C1F8800002F4C060B0F5806F7047486C0D
:10357000B1F1804F40F40040486470472420C4F803
:1035800088002068A16A0268002922F00102026016
:10359000704711438160204600F00ABD204600F0CC
:1035A0002BBD012200F0CCBA204600F0DBBF84F82E
:1035B0003D000125204684F83C5000F01DBC202031
:1035C000C4F888007047B4F85E00002870470446CD
:1035D000D0F888007047022084F83E0070472046EB
:1035E000FCF7C0BE206850E8000F2168704790F8D3
:1035F0003C2004460220012A7047022084F83F0044
:10360000704705FA00F010F0650F7047044690F817
:103610003D0000287047022084F8430070470220D4
:1036200084F841007047022084F84200704702206D
:1036300084F8400070470068B0FBF1F00C2100EB0B
:10364000400001EB80007047206850E8020F2168BD
:103650007047002184F83C10704720680122012542
:1036600000F06EBA02400020062A7047C160C168AF
:1036700021F48041C16000207047081F3F2243258C
:103680004FEAB003042B7047044690F83C00012831
:103690007047002084F884002046FEF793BE012086
:1036A00084F858002046FCF78BBE704710B5984C44
:1036B00000200121A04701200021A047102041F255
:1036C0009071A04760204FF41C51A0476120012158
:1036D000A04746200221A047132048F21001A0472E
:1036E000122048F2FE01A04702204FF4A061A0473B
:1036F000032041F23001A0473020FFF7CCFE3120FB
:10370000FFF7C9FE3220FFF7C6FE33204FF44071A9
:10371000A04734200321A0473520FFF7BCFE362008
:103720001421A0473720FFF7B6FE3820FFF7B3FE7D
:103730003920FFF7B0FE3A204FF44071A0473B20FC
:103740000321A0473C20FFF7A6FE3D204FF4A051E7
:10375000A04792204FF40071A0479320FFF79BFEF3
:10376000902040F60D01A047032041F21801A04728
:10377000072040F273112246BDE81040104700BFF9
:10378000B0B5634DE32043F20801A847E7201221BA
:10379000A847EF2041F23121A84701200021A84786
:1037A00002204FF4E061A847032041F23001A8470E
:1037B00004200021A847082040F20721A84709203B
:1037C0000021A8470A200021A8470C200021A84773
:1037D0000D200021A8470F200021A847102000211C
:1037E000A84711200721A84712200021A84713202D
:1037F0000021A847474CC820A047102041F2906103
:10380000A847112040F22721A8473220A0471220C4
:103810001D21A8473220A04713204FF40061A8477C
:1038200029201421A8472B200B21A8473220A0478C
:1038300020200021A84721200021A847302007216F
:10384000A847312040F20771A84732200621A84737
:10385000352040F20471A847362041F60471A8478C
:1038600037200421A84738200021A847392040F2FA
:103870000671A8473C2040F20171A8473D200F2166
:10388000A84750200021A8475120EF21A8475220E7
:103890000021A847532040F23F11A84760204FF471
:1038A0001C51A84761200121A8476A200021A84790
:1038B00080200021A84781200021A84782200021E4
:1038C000A84783200021A84784200021A8478520FD
:1038D0000021A84790201021A84792200021A84746
:1038E00093200321A84795204FF48871A84797207B
:1038F0000021A84798200021A847032041F2180181
:10390000A847072040F273112A46BDE8B04010478F
:10391000412B0008BD0D000802460028174818BFBB
:1039200001224021FDF735BB14488021FDF72CBB57
:10393000FEB50020CDE90400CDE902008020019011
:103940000E4801A9FDF74AFA06B080BD02460028DC
:103950000A4818BF01228021FDF71BBBFEB50020DD
:10396000112102918021CDE90300059003480191C6
:1039700001A9FDF733FA06B080BD00BF000400487E
:103980007047000080B5FDF70FFB0B48018801313F
:10399000018089B2B1F57A7F05D100210180074805
:1039A0000178013101700648018801310180054824
:1039B00001780131017080BD5C0000201C000020F6
:1039C000200000201F00002070B594B0FDF7F6FA2B
:1039D00006AC142104F10800FCF752FC002000257D
:1039E000FDF77CFB0220032655211390CDE9110041
:1039F000CDE90D064FF4803010910621079001208B
:103A00000F9106902046FDF7EFFD08B1FCF734FD5D
:103A10000F20CDE90455CDE902650421019001A8EC
:103A2000FDF7A6FC08B1FCF727FD14B070BD00003F
:103A30000248016841F470010160704788ED00E0C0
:103A400001490968486370473C010020B0B5074D43
:103A5000044600212846FEF7D3FA013004212080D5
:103A60002846FEF7CDFA01306080B0BD8801002005
:103A70000149096848637047D401002070B5AF4A16
:103A80000368904225D0B0F1804F08D0264CA04268
:103A900005D0264CA04202D0254CA04203D14C6850
:103AA00023F070032343B0F1804F16D01E4CA04288
:103AB00013D01F4CA04210D01C4CA0420DD01D4C66
:103AC000A0420AD01C4CA04207D01C4CA04204D0FB
:103AD00007E04C6823F070032343CC6823F4407361
:103AE00023434E6923F080030C688D683343904272
:103AF0000360C56284620BD0914A02444FEAB2224D
:103B0000052A07D8012303FA02F212F0390F01D077
:103B100009690163012141610169C90703D0016994
:103B200021F00101016170BD00040040003401403A
:103B300000080040004001400048014000440140AE
:103B400010B501F01F010123046A8B4002FA01F154
:103B500024EA03030362026A1143016210BD0000FC
:103B6000F0B5026A036A764E23F0010322F00202E6
:103B700003628B68D1F800C04568D0F818E01343A1
:103B8000F24A904209D087194FEAB727052F0FD87C
:103B90000124BC4014F0390F0AD0CC6823F00C0388
:103BA00024F004042343904209D082194FEAB2273B
:103BB000052F0AD80122BA4012F0390F05D025F49A
:103BC0004072D1E90545224315433E4A456002EA69
:103BD0000E0242EA0C028261496841630362F0BD51
:103BE000F0B5036A026AD94E22F0100223F02003D6
:103BF000FFF77CFC43EA0413846903D006F50067F1
:103C0000B84209D1CF686FF0400223F0C00302EA46
:103C100007121343B0420AD0494A02444FEAB2267F
:103C2000052E0BD80122B24012F0390F06D025F430
:103C30004062D1E90556354342EA8505414A45606F
:103C4000224042EA0C228261496881630362F0BD2E
:103C5000F0B5036A026ABD4E22F4807223F4007349
:103C6000FFF744FC43EA0423C46903D006F5006768
:103C7000B8420AD1CF6840F2FF4223F440633F02CA
:103C800027EA02021343B0420AD02D4A02444FEA07
:103C9000B226052E0BD80122B24012F0390F06D001
:103CA00025F44052D1E90556354342EA0515054A47
:103CB0004560224042EA0C02C2614968C163036266
:103CC000F0BD00BF8CFFFEFFF0B5036A026A9F4E95
:103CD00022F4805223F40053FFF708FC43EA043334
:103CE000C46903D006F50067B8420AD1CF6844F62C
:103CF000FF7223F440433F0327EA02021343B0421A
:103D00000AD00F4A02444FEAB226052E0BD80122F0
:103D1000B24012F0390F06D025F44042D1E90556E1
:103D2000354342EA8515074A4560224042EA0C22A3
:103D3000C261496801640362F0BD00BF002C01400C
:103D400000CCFEBFFF8CFFFEF0B5D0F820C0036AA8
:103D500023F480330362264B46680C6803444FEA21
:103D6000B3278B68056D072F09D80122BA4012F0DE
:103D7000E50F1EBF4A6926F4803646EA0226064A47
:103D800046602A4022430265496881642CF4003170
:103D900041EA03410162F0BD8FFFFEFFF0B5D0F8AC
:103DA00020C0036A23F480130362114B46680C6839
:103DB00003444FEAB3278B68056D072F09D801220A
:103DC000BA4012F0E50F1EBF4A6926F4802646EA83
:103DD0008226084A46602A4042EA0422026549686F
:103DE000C1642CF4001141EA03510162F0BD00BF2F
:103DF00000D4FEBFFF8FFFFE70B5D1E900322D4C1D
:103E00002D4E02EA04050468A06830402843184398
:103E1000A0600020002A44D0102A42D0202A40D09E
:103E2000302A3ED0402A20D0502A3BD0602A30D0C1
:103E3000224B9A4235D0B2F1101F32D0204B9A4219
:103E40002FD0204B9A422CD01F4B9A4229D0702A57
:103E500026D1D1E902020969104340EA0120A16894
:103E600021F47F410843A06022E00120052B18D0F7
:103E7000B3F1011F15D0206A226A22F001022262EA
:103E80000969A26922F0F00242EA0111A1612062EF
:103E90000EE08B680A692046194600F05DF807E0DD
:103EA000012070BD8B680A692046194600F00EF8A3
:103EB000002070BDF8FFFEFF88FFCEFF70001000ED
:103EC00020001000300010004000100010B5036A00
:103ED000046A24F001040462846924F0F00444EAD2
:103EE0000212826123F00A021143016210BD000038
:103EF00070B5046A056AB0F1804F25F001050562CE
:103F000085690ED00F4EB0420BD00F4EB04208D094
:103F10000E4EB04205D00E4EB04202D00D4EB04211
:103F20000CD125F003052A4363F3071201F00A01BF
:103F3000826124F00A021144016270BD45F0010261
:103F4000F2E700BF0004004000080040002C0140E0
:103F5000004001400034014010B5036A046A24F0B7
:103F600010040462846924F4704444EA02328261D9
:103F700023F0A00242EA0111016210BDB0B5046A4B
:103F8000056A120201F00A0125F0100505624FF2E0
:103F9000FF05AA4363F30F32836923F473431A4383
:103FA000826124F0A00242EA01110162B0BD00006A
:103FB000416EA9B1B0B502680D4B0E4D9168C1F3C9
:103FC00042615C5C695C9268520FC9009B5CAA5CB0
:103FD000B1FBF4F1D200B2FBF3F2BDE8B04001E076
:103FE00001220121A0F86810A0F86A20704700BFE4
:103FF000A06000089860000810B5816A0A0706D51D
:104000000268836B546824F4004423435360CA0756
:1040100006D00268C36A546824F400342343536012
:104020008A0706D50268036B546824F4803423435E
:1040300053604A0706D50268436B546824F4802411
:1040400023435360CA0606D50268C36B946824F400
:104050008054234393608A0606D50268036C9468F3
:1040600024F40054234393604A060FD50268436C3E
:10407000546824F480141C43B3F5801F546005D1A8
:10408000836C546824F4C00423435360090606D5A6
:104090000168C06C4A6822F400221043486010BDD9
:1040A000BCB504460020C4F89000FCF779FF054633
:1040B00020680168090712D56FF07E404FF40011A7
:1040C000FFF7BDF950B1FFF78DFA20F08000FFF740
:1040D00033F9F8D103202021882225E020680068E8
:1040E000400718D56FF07E404FF48001FFF7A7F925
:1040F00088B1FFF777FA20F49070FFF71DF9F8D137
:10410000FFF7A2FA20F00100FFF720F9F8D1032011
:1041100020218C2208E0202000217022C4F8880091
:10412000C4F88C00E1660020A150002184F88410BE
:10413000BCBD806A0021A0F85E10FDF7BBBF000087
:1041400010B5FFF707F9FCD19149026852E8022F38
:1041500003680A4043E80224002CF6D1C16E01290D
:1041600002D1FFF7D3F8FCD12021C0F88C10002138
:104170004167C16610BD00BF10B50D4C2279A07912
:10418000904205D004F128010AA0A27100F012FCAF
:1041900004F11400022100F013F800B110BD207DDD
:1041A000617D00EB800001EB40001038207110BDF4
:1041B00018000020257320253033750D0A000000FB
:1041C0000A4601460148FEF747B900BF2002002019
:1041D0000168D0F88C20222A4BD1B0F86020496ABF
:1041E0001140826D22F8021BB0F85E100139A0F870
:1041F0005E108265B0F85E1001B170474DF808EDB1
:10420000FFF7A8F85DF808EBF8D14DF808EDFFF7D7
:104210006BF85DF808EBF8D12021D14AC0F88C107A
:10422000002141670167016891420CD04968090289
:1042300009D5016851E8001F026821F0806142E859
:104240000013002BF5D1C16E012918BFFEF722B96A
:104250000021C1664DF808EDFFF758F85DF808EB4E
:10426000F8D10168CA69D20644BF10220A62FFF77A
:10427000ECB8FFF747B900BF2DE9F84F02680446D4
:10428000D769FFF721F965D1B4F86820002A66D014
:1042900000F4807801F001064FF000094FF0020BA6
:1042A0004FF0010AB8065AD52068A16D426A2A402B
:1042B00021F8022BB4F85E20013AA4F85E20A16533
:1042C000C769790718D0FA0718BFB8F1000F01D0F5
:1042D000FFF7A2F8BA0702D50EB1FFF794F800294C
:1042E00002D50EB1FFF786F8D4F8900020B1204631
:1042F000FDF7E0FEC4F89090FFF765F9D2D1FFF723
:1043000071F920F48070FFF717F8F8D19348FFF7A0
:1043100068F8FCD120209249FFF7A5F809D0406841
:10432000000206D5FFF75EF920F08060FFF704F881
:10433000F8D1E06E01280FD10020E066FEF769FF9A
:10434000FCD12068C169C90644BF10210162FFF792
:10435000DEF804E0FFF769B82046FEF79BF8FFF7A8
:1043600032F913D0B4F8681088420FD2FFF76CF915
:1043700020F08050FEF7EAFFF8D106486067FFF7AB
:1043800031F940F02000FEF7D7FFF8D1BDE8F88FF3
:10439000FEFFFFEFD14100080168D0F88C20222AEF
:1043A0004CD1B0F86020496A1140826D1170B0F8AC
:1043B0005E100139A0F85E10816D01318165B0F8A1
:1043C0005E1001B170474DF808EDFEF7C3FF5DF8D0
:1043D00008EBF8D14DF808EDFEF786FF5DF808EB25
:1043E000F8D12021D54AC0F88C100021416701671F
:1043F000016891420CD04968090209D5016851E869
:10440000001F026821F0806142E80013002BF5D103
:10441000C16E012918BFFEF73DB80021C1664DF8F5
:1044200008EDFEF773FF5DF808EBF8D10168CA6983
:10443000D20644BF10220A62FFF707B8FFF762B83E
:104440002DE9F84F02680446D669FFF73DF867D1B9
:10445000B4F86820002A68D000F4807901F00107E0
:104460004FF000084FF0020B4FF0010AB0065CD588
:104470002068A16D406A28400870B4F85E000138D9
:10448000A4F85E00A16D20680131A165C6697107BD
:1044900018D0F20718BFB9F1000F01D0FEF7BCFF2A
:1044A000B20702D50FB1FEF7AEFF002902D50FB15A
:1044B000FEF7A0FFD4F8900020B12046FDF7FAFDEA
:1044C000C4F89080FFF77FF8D0D1FFF78BF820F485
:1044D0008070FEF731FFF8D12048FEF782FFFCD153
:1044E00020209649FEF7BFFF09D04068000206D59C
:1044F000FFF778F820F08060FEF71EFFF8D1E06E3D
:1045000001280FD10020E066FEF783FEFCD1206871
:10451000C169C90644BF10210162FEF7F8FF04E03B
:10452000FEF783BF2046FDF7B5FFFFF74CF813D029
:10453000B4F8681088420FD2FFF786F820F0805058
:10454000FEF704FFF8D1CC486067FFF74BF840F066
:104550002000FEF7F1FEF8D1BDE8F88FFEFFFFEF77
:104560000080004070B5016804468068724ED4E94E
:1045700003230D681843E369354066693043704E84
:1045800028436E4D18430860486820F4405010439B
:104590004860A942A0691CBF226A10438A68324061
:1045A00010438860626AC86A20F00F001043C86236
:1045B000644881421CD0644881420BD063488142E8
:1045C00010D0A9420AD0624881420FD1614863A647
:1045D000006811E05F48006800090CE05D48006871
:1045E000800A08E05B480068800904E0102607E0C4
:1045F000584800688008584E00F0030056F82060C4
:104600005A48A94210D00121B3F5004F1AD1082E03
:1046100000F28A80DFE806F0054759884D888888CF
:104620005700FCF795FF46E00121082E00F27C8040
:10463000DFE806F0057A1D7A157A7A7A1B00FCF716
:1046400087FF0EE0082E00F26F80DFE806F0052FEE
:10465000586D376D6D6D5600FCF77AFF30E0FCF752
:104660008FFF00285DD0626A01E04FF400404049AE
:1046700031F812106268B0FBF1F002EB420188429F
:1046800051D3B0EB023F4ED8010E000210EB5200A6
:1046900041F100010023FBF7BBFD364AA0F5407154
:1046A00091423CD33FE0FCF75DFF04E0FCF75AFF8A
:1046B00006E0FCF765FFA0B3626A06E0FCF760FF66
:1046C00078B3626A1BE04FF40040294931F81210B8
:1046D000B0FBF1F061684A0802EB40004FF6EF7260
:1046E000B0FBF1F0A0F1100191421CD84FF6F0712F
:1046F0000140C0F34200084411E04FF400401C495F
:1047000031F812104FF6EF72B0FBF1F0616800EB78
:104710005100B0FBF1F0A0F11001914203D82168E3
:10472000C860002100E001210020C4E91D004FF015
:104730000110A066084670BDF369FFCF00800040FD
:10474000FFF4FF110044004000480040004C0040CE
:104750000038014088100240886000080100000015
:104760000400000002000000080000000024F40023
:104770007060000800FD0F00A0F85E208165002138
:10478000A0F85C204167816871B1B1F1805F07D00A
:10479000B1F5805F0ED1016951B940F2FF110AE015
:1047A000016919B13F2106E0016909B17F2102E0E9
:1047B000FF2100E00021A0F8601010B50021C0F832
:1047C00090102221C0F88C10016851E8021F036884
:1047D00041F0010143E80214002CF5D1416EB1F122
:1047E000005F03D1B0F868108A4216D2826801696E
:1047F000B2F5805F03D1C9B11F49416702E01E4A8B
:104800004267A9B1016851E8001F026841F4907144
:1048100042E80013002BF5D128E082680169B2F567
:10482000805F10D1B1B1124941670FE01349416770
:10483000016851E8001F026841F0200142E80013BE
:10484000002BF5D112E00A4A426729B1FEF744FE77
:10485000FCD101E007494167016851E8021F026885
:1048600041F0805142E80213002BF5D1002010BD29
:10487000414400087942000899430008D1410008EA
:104880000A46014625486423FDF716BE2DE9F04788
:10489000DDF8209082460068984616460F460325AC
:1048A00009F10104C1693940C91BB1FA81F1490913
:1048B0008E421ED1002CF5D0FCF772FBA0EB080055
:1048C000484517D8B9F1000F14D0DAF80000016894
:1048D0004907E7D5402FE5D0802FE3D0C16909070C
:1048E0000BD4C1690905DDD5032520244FF40061EF
:1048F00006E000252846BDE8F087012508210824A8
:1049000001625046FFF71CFC00208AF88400CAF8B8
:104910009040EFE70148FDF7CFBB00BF2002002029
:10492000FEE7E0B5019001A80121FFF7A9FF01987A
:104930008CBD0000FFF748F8FEF742FAFEF7B2F927
:10494000FEF706FAFEF7D0FAFEF730FBFEF78EFB15
:10495000FEF7CAFBFDF7BEFF6420FCF72FFA00202C
:10496000FDF70CFF4FF6FF70FEF790F80020FEF702
:1049700075F80E4C002101222046FEF751F92078EF
:1049800000210122013020702046FEF773F908480B
:104990000078FEF732F9FDF75FFEFEF703F9FDF749
:1049A000B3FFFFF7E9FBFBF753FDF4E71800002026
:1049B000040000200FB4054B10B503A9044A029867
:1049C00000F02CF810BC5DF814FB0000234900082F
:1049D000000000200FB4084B10B504A902AA0398E8
:1049E00000F01CF8044602A9002000F048FA204616
:1049F00010BC5DF814FB00007F4E000802E008C800
:104A0000121F08C1002AFAD170477047002001E048
:104A100001C1121F002AFBD1704700002DE9FF4F92
:104A20008DB00F460546002606E025280BD0DDE9AF
:104A30000F1290476D1C761C28780028F5D111B014
:104A40003046BDE8F08F0024A246A1460122EC4981
:104A500000E0044315F8013F203B02FA03F008424E
:104A6000F7D128782A2810D06FF02F022878A0F1EB
:104A70003001092914D80AEB8A0102EB410144F004
:104A8000020400EB010A6D1CF0E701CF5FEA000AA7
:104A900003D544F40054CAF1000A44F002046D1C2A
:104AA00028782E2817D115F8010F44F004042A287D
:104AB0000ED06FF02F022878A0F1300109290AD812
:104AC00009EB890102EB410100EB01096D1CF2E7E2
:104AD00057F8049B6D1C28786C280FD006DC4C28F6
:104AE00017D068280DD06A2814D104E0742810D09B
:104AF0007A280FD10DE044F400140AE044F4801445
:104B000001E044F440146978814202D104F5801434
:104B10006D1C6D1C2A786E2A1FD00CDC632A31D0E4
:104B200004DC002A8BD0582A11D1A3E0642A68D073
:104B3000692A0CD165E0732A2ED004DC6F2A73D069
:104B4000702A04D19BE0752A6FD0782A6ED0104667
:104B5000DDE90F129047761C50E1C4F302500228A1
:104B600006D0032809D0042801CF09D0066045E10A
:104B700001CFF117C0E9006140E101CF06803DE1BE
:104B800006703BE117F8040B8DF8000000208DF84B
:104B90000100EB46012003E057F804BB4FF0FF3063
:104BA00061074FF0000102D40DE008F101018846D1
:104BB00049450FDA8045F8DB1BF808100029F4D1CD
:104BC00008E008F1010188468142FADB1BF8081071
:104BD0000029F6D1DDE90F23AAEB08008146214622
:104BE00000F036F9304400EB080604E0DDE90F126E
:104BF0001BF8010B9047B8F10108F7D2214648464F
:104C0000F7E00A21C4F302534FF0000B0891022B86
:104C100004D001CFC117032B09D00AE0FF1D27F0F4
:104C20000707F7E8020108E032E01FE020E000B2E9
:104C3000C117042B01D140B2C117031E71F100034B
:104C400007DA4FF0000CD0EB0C006CEB01012D23C8
:104C500002E0230504D52B238DF82430012303E043
:104C6000E30701D02023F7E7984658E00A2110E037
:104C700010210EE010204FF0000B08900CE01021E6
:104C80004FF0000B44F004044FF00809089103E0D2
:104C900008214FF0000B0891C4F30253022B04D0FB
:104CA00001CF0021032B06D006E0FF1D27F00707E8
:104CB000F7E8020103E080B2042B00D1C0B24FF04C
:104CC000000823072BD5702A07D0DDF820C08CF010
:104CD000100C5CEA0B0C05D00EE040238DF824305C
:104CE000012308E050EA010306D030238DF8243078
:104CF0008DF8252002239846DDF820C08CF0080CA2
:104D00005CEA0B0C0BD150EA010301D1630706D515
:104D100030238DF824304FF00108A9F10109582AF9
:104D200004D038A20B9208AA0A920BE03AA2F9E743
:104D30005B46089AFBF76CFA0B9B9B5C0A9A521E27
:104D40000A92137050EA0102F2D10A98ADEB00000A
:104D500000F1200B600702D524F4803401E04FF00D
:104D60000109D94502DDA9EB0B0000E0002000EBB2
:104D70000B0141440890AAEB010AE00306D4DDE9E7
:104D80000F232146504600F063F806444FF0000917
:104D900008E009A911F80900DDE90F12904709F1AF
:104DA0000109761CC145F4DBE0030CD5DDE90F23D6
:104DB0002146504600F04CF8064404E0DDE90F12AD
:104DC00030209047761C0899481E08900029F5DC91
:104DD00008E00A980A990078491C0A91DDE90F1247
:104DE0009047761CBBF10001ABF1010BF1DC2146D1
:104DF0005046DDE90F2300F019F806446D1C1BE650
:104E000009280100303132333435363738396162A0
:104E10006364656600000000303132333435363764
:104E20003839414243444546000000002DE9F04135
:104E3000044600251E461746880404D405E039467A
:104E40002020B0476D1C641EF9D52846BDE8F081CE
:104E50002DE9F041044600251E469046C80301D5C1
:104E6000302700E02027880404D505E04146384675
:104E7000B0476D1C641EF9D52846BDE8F0810A686C
:104E8000531C0B6010707047000000000000000011
:104E900001020304060708090000000001020304E0
:104EA0000000000000000000000000000000000002
:104EB00000000000000000000000000000000000F2
:104EC00000000000000000000000000000000000E2
:104ED000000080018001800180018001800180014B
:104EE00080018001800180018001800100000000BC
:104EF00080018001000000000000000000000000B0
:104F000000000000CC00CC00CC00CC00CC00CC00D9
:104F10000000000000000000000000000000000091
:104F20000000000000000000000000000000000081
:104F3000000000000000000000000000600C600C99
:104F4000600C30063006FE1FFE1F300638071803BF
:104F5000FE1FFE1F180318038C018C018C0100003A
:104F600000008000E003F80F9C0E8C1C8C188C0055
:104F70009800F801E007800E801C8C188C189C1893
:104F8000B80CF00FE003800080000000000000007B
:104F90000000000000000E181B0C110C1106110679
:104FA000110311039B018E01C038C06C6044604442
:104FB000304430441844186C0C38000000000000E5
:104FC0000000E001F0033807180618063003F0016E
:104FD000F000F8009C310E33061E061C061C063F2E
:104FE000FC73F02100000000000000000000000041
:104FF000000000000C000C000C000C000C000C0069
:1050000000000000000000000000000000000000A0
:105010000000000000000000000000000000000090
:105020000000000200038001C000C00060006000BA
:1050300030003000300030003000300030003000F0
:1050400060006000C000C00080010003000200009A
:10505000000020006000C000800180010003000308
:105060000006000600060006000600060006000610
:105070000003000380018001C000600020000000E8
:10508000000000000000000000000000C000C000A0
:10509000D806F807E00130033807000000000000E0
:1050A0000000000000000000000000000000000000
:1050B00000000000000000000000000080018001EE
:1050C000800180018001FC3FFC3F80018001800164
:1050D00080018001000000000000000000000000CE
:1050E00000000000000000000000000000000000C0
:1050F00000000000000000000000000000000000B0
:10510000000080018001000100018000000000001B
:10511000000000000000000000000000000000008F
:105120000000000000000000E007E00700000000B1
:10513000000000000000000000000000000000006F
:10514000000000000000000000000000000000005F
:10515000000000000000000000000000000000004F
:105160000000C000C00000000000000000000000BF
:105170000000000C000C00060006000600030003FF
:1051800000038003800180018001C000C000C000D6
:10519000600060000000000000000000000000004F
:1051A0000000E003F007380E180C0C180C180C184F
:1051B0000C180C180C180C180C180C18180C380EAD
:1051C000F007E00300000000000000000000000005
:1051D000000000018001C001F001980188018001F8
:1051E00080018001800180018001800180018001B7
:1051F00080018001000000000000000000000000AD
:105200000000E003F80F180C0C180C180018001818
:10521000000C000600038001C00060003000180090
:10522000FC1FFC1F00000000000000000000000048
:105230000000E001F807180E0C0C0C0C000C000626
:10524000C003C007000C001800180C180C18180C2C
:10525000F807E0030000000000000000000000006C
:105260000000000C000E000F000F800DC00C600C41
:10527000600C300C180C0C0CFC3FFC3F000C000CBC
:10528000000C000C00000000000000000000000006
:105290000000F80FF80F180018000C00EC03FC07D2
:1052A0001C0E001C0018001800180C181C0C180EFE
:1052B000F807E0030000000000000000000000000C
:1052C0000000C007F00F381C181818000C00CC03A1
:1052D000EC0F3C0E1C1C0C180C180C18181C380E6B
:1052E000F007E003000000000000000000000000E4
:1052F0000000FC1FFC1F000C0006000600038003DA
:105300008001C001C000E00060006000700030005B
:10531000300030000000000000000000000000002D
:105320000000E003F007380E180C180C180C3806B3
:10533000F007F007180C0C180C180C180C18380C87
:10534000F80FE00300000000000000000000000073
:105350000000E003F007380E1C0C0C180C180C1899
:105360001C1C381EF81BE0190018000C000C1C0E49
:10537000F807F0010000000000000000000000003D
:10538000000000000000000000000000800180011B
:10539000000000000000000000000000000000000D
:1053A00080018001000000000000000000000000FB
:1053B00000000000000000000000000080018001EB
:1053C00000000000000000000000000000000000DD
:1053D0008001800100010001800000000000000049
:1053E00000000000000000000000000000000000BD
:1053F0000010001C800FE003F8001800F800E00324
:10540000800F001C001000000000000000000000E1
:10541000000000000000000000000000000000008C
:10542000F81F000000000000F81F0000000000004E
:10543000000000000000000000000000000000006C
:10544000000000000000000000000000000000005C
:1054500008003800F001C007001F0018001FC00737
:10546000F00138000800000000000000000000000B
:105470000000E003F80F180C0C180C180018000CB2
:10548000000600038001C000C000C0000000000052
:10549000C000C0000000000000000000000000008C
:1054A00000000000E00718180420C229224A114415
:1054B00009440944094409221113E20C0240042062
:1054C0001818E007000000000000000000000000C5
:1054D000000080038003C006C006C006600C600C9C
:1054E000301830183018F83FF83F1C700C600C6012
:1054F00006C006C000000000000000000000000020
:105500000000FC03FC0F0C0C0C180C180C180C0CF5
:10551000FC07FC0F0C180C300C300C300C300C1845
:10552000FC1FFC070000000000000000000000005D
:105530000000C007F01F38381C300C7006600600F1
:105540000600060006000600060006600C701C300F
:10555000F01FE00700000000000000000000000055
:105560000000FE03FE0F060E061806180630063071
:105570000630063006300630063006180618060ECD
:10558000FE0FFE030000000000000000000000000D
:105590000000FC3FFC3F0C000C000C000C000C0059
:1055A000FC1FFC1F0C000C000C000C000C000C007D
:1055B000FC3FFC3F00000000000000000000000075
:1055C0000000F83FF83F18001800180018001800F5
:1055D000F81FF81F1800180018001800180018000D
:1055E000180018000000000000000000000000008B
:1055F0000000E00FF83F3C780E6006E007C00300B3
:10560000030003FE03FE03C007C006C00EC03CF04B
:10561000F83FE00F00000000000000000000000064
:1056200000000C300C300C300C300C300C300C30D6
:10563000FC3FFC3F0C300C300C300C300C300C308C
:105640000C300C30000000000000000000000000E2
:1056500000008001800180018001800180018001C3
:105660008001800180018001800180018001800132
:105670008001800100000000000000000000000028
:1056800000000006000600060006000600060006F0
:105690000006000600060006000618061806380771
:1056A000F003E00100000000000000000000000026
:1056B000000006300618060C060606038601C60022
:1056C00066007600DE008E0106030606060C06184C
:1056D000063006600000000000000000000000002E
:1056E0000000180018001800180018001800180012
:1056F00018001800180018001800180018001800EA
:10570000F81FF81F0000000000000000000000006B
:1057100000000EE01EF01EF01EF036D836D836D847
:1057200036D866CC66CC66CCC6C6C6C6C6C6C6C6A5
:1057300086C386C3000000000000000000000000D7
:1057400000000C301C303C303C306C306C30CC30C5
:10575000CC308C310C330C330C360C360C3C0C3CFE
:105760000C380C30000000000000000000000000B9
:105770000000E007F81F1C380E70066003C003C06D
:1057800003C003C003C003C003C006600E701C3812
:10579000F81FE0070000000000000000000000000B
:1057A0000000FC0FFC1F0C380C300C300C300C309F
:1057B0000C18FC1FFC070C000C000C000C000C006B
:1057C0000C000C00000000000000000000000000C1
:1057D0000000E007F81F1C380E70066003E003C0ED
:1057E00003C003C003C003C007E006630E3F1C3CB8
:1057F000F83FE0F700C000000000000000000000DB
:105800000000FE0FFE1F0638063006300630063850
:10581000FE1FFE0706030606060C061806180630CD
:1058200006300660000000000000000000000000DC
:105830000000E003F80F1C0C0C180C180C001C00E6
:10584000F803E00F001E0038063006300E301C1C36
:10585000F80FE0070000000000000000000000005A
:105860000000FE7FFE7F80018001800180018001B9
:105870008001800180018001800180018001800120
:105880008001800100000000000000000000000016
:1058900000000C300C300C300C300C300C300C3064
:1058A0000C300C300C300C300C300C300C30181824
:1058B000F81FE007000000000000000000000000EA
:1058C000000003600630063006300C180C180C1867
:1058D000180C180C380E3006300670076003600391
:1058E000C001C00100000000000000000000000036
:1058F00000000360C361C361C3616633663366330E
:105900006633663366336C1B6C1B6C1B2C1A3C1E97
:10591000380E380E000000000000000000000000FB
:1059200000000FE00C7018303018700C600EC007CB
:1059300080038003C003E006700C301C18180C3084
:105940000E6007E000000000000000000000000002
:10595000000003C006600C301C383818300C60069C
:10596000E007C00380018001800180018001800187
:105970008001800100000000000000000000000025
:105980000000FC7FFC7F006000300018000C000667
:1059900000038001C0006000300018000C00060009
:1059A000FE7FFE7F000000000000000000000000FD
:1059B0000000E003E0036000600060006000600041
:1059C00060006000600060006000600060006000D7
:1059D00060006000600060006000E003E003000021
:1059E000000030003000600060006000C000C000B7
:1059F000C000C0018001800180010003000300039A
:105A0000000600060000000000000000000000008A
:105A10000000E003E00300030003000300030003B1
:105A2000000300030003000300030003000300035E
:105A300000030003000300030003E003E003000091
:105A400000000000C001C001600360036003300675
:105A50003006180C180C00000000000000000000C8
:105A60000000000000000000000000000000000036
:105A70000000000000000000000000000000000026
:105A80000000000000000000000000000000000016
:105A90000000FFFFFFFF000000000000000000000A
:105AA00000000C000C000C000C000C000C000000AE
:105AB00000000000000000000000000000000000E6
:105AC00000000000000000000000000000000000D6
:105AD000000000000000000000000000F003F807D4
