:020000040800F2
:10000000B8060020ED010008372B00080B2000087F
:10001000352B000875040008513C00080000000062
:10002000000000000000000000000000BD310008DA
:100030007704000800000000E72E0008C131000826
:10004000070200080702000807020008070200086C
:10005000070200080702000807020008070200085C
:10006000070200080702000807020008070200084C
:10007000070200080702000807020008070200083C
:10008000070200080000000007020008070200083D
:10009000070200080702000807020008070200081C
:1000A000070200080702000807020008070200080C
:1000B00007020008070200080702000807020008FC
:1000C00007020008070200080702000807020008EC
:1000D00007020008070200080702000807020008DC
:1000E00007020008070200080702000807020008CC
:1000F00007020008070200080702000800000000CD
:1001000000000000070200080000000007020008CD
:1001100007020008000000000702000807020008AC
:10012000070200080702000807020008070200088B
:10013000070200080000000000000000070200089D
:10014000070200080702000800000000000000008D
:10015000000000000000000000000000000000009F
:10016000000000000000000000000000070200087E
:10017000070200080000000000000000000000006E
:10018000000000000702000800000000000000005E
:10019000000000000000000000000000000000005F
:1001A000000000000000000007020008070200082D
:1001B000070200080702000807020008000000000C
:1001C000000000000702000800000000000000001E
:1001D0000702000807020008DFF80CD000F07AF8E8
:1001E00000480047653C0008B806002006488047E4
:1001F00006480047FEE7FEE7FEE7FEE7FEE7FEE70C
:10020000FEE7FEE7FEE7FEE76D320008D9010008D1
:100210002DE9F05F0546002092469B46884606463B
:10022000814640241BE0284641464746224600F0CE
:1002300041F853465A46C01A914110D31146184608
:10024000224600F028F82D1A67EB01084F46224697
:100250000120002100F01FF817EB00094E41201E7D
:10026000A4F10104DFDC484631462A464346BDE896
:10027000F09FD2B201E000F8012B491EFBD270477B
:100280000022F6E710B513460A4604461946FFF762
:10029000F0FF204610BD202A04DB203A00FA02F1CC
:1002A000002070479140C2F1200320FA03F3194364
:1002B00090407047202A04DB203A21FA02F0002106
:1002C000704721FA02F3D040C2F120029140084366
:1002D000194670471CB50948009009480190054629
:1002E000009C06E0E06840F0010394E807009847AE
:1002F0001034AC42F6D3FFF773FF0000D853000868
:10030000F8530008B0B50C4D0446284600F08AFCAE
:1003100028460A2100F0F0FB18B9074800F0C6FA99
:10032000208005480A2100F0E7FB00B1B0BD02487B
:1003300000F0BCFA6080B0BD6000002010B5084C31
:10034000204600F06FFC20460A2100F0D5FB08B1E2
:10035000002002E0024800F0A9FA80B210BD00BF00
:10036000CC000020B0B5016804468A688868C007E0
:100370004FF0000022D012F002021FD1886800F076
:100380000D00012818D188682D4A1040023088607D
:100390000320086000F090FD054620688068C007D3
:1003A00004BF0020B0BD00F087FD401B0328F4D33C
:1003B00020688068C007F0D002F0EDFBB0BD00BF40
:1003C0007CB504460020019021688A68D2072AD1B2
:1003D0001B4E886806F17F02104222D188683040A7
:1003E00040F0010088601748006800021CD400F04B
:1003F00063FD054620680168C9071CBF00207CBD5D
:100400008168C90704D18168314041F001018160F0
:1004100000F052FD401B0328ECD320680068C007A1
:10042000E8D102F0B8FB7CBD0748084902F031FD75
:10043000019001980028DAD001980138F8E700BF50
:10044000C0FFFF7F0803005010000020400D030094
:1004500010B5074CE079642808D30020E07104F15E
:100460000A00FFF74FFFFFF769FFE08110BD00BFF3
:1004700018000020FEE77047EFF3108072B6FEE729
:10048000BCB504460020019094F85800012804BF30
:100490000220BCBD01200D4684F8580002F0E6FCA5
:1004A000E16D10B141F0100124E041F20212144B51
:1004B00091430231E16521688A681A4005F0804362
:1004C0001A4402F100428A600E4A8B68B3F1FF3F82
:1004D0000CDC019B01330193019B9342F5D3E06D4A
:1004E00040F0100020F00201012003E0E16D012244
:1004F00062F30101002284F85820E165BCBD00BF11
:10050000C0FFFF3F02DE040090F85820012A01D10D
:10051000022135E07CB50022019200920368B3F11C
:10052000A04F23D1204AD2F800419B6823435B07A8
:100530001CD40B68D2F8004324F4604413B390F841
:1005400038504E6846EA45352C43C2F800431468DB
:10055000D2F800512C43E40723D1D2F8004340F6EF
:100560001F758968AC432143194318E0C16D41F000
:100570002001C1650121002280F85820BDE87C409F
:1005800008467047C2F800431168D2F80031194399
:10059000C90706D1D2F8001340F61F739943C2F879
:1005A00000130021E7E700BF080000502DE9FC41DF
:1005B00004460020019094F85800012804BF02204E
:1005C000BDE8FC810120884684F8580020688168D5
:1005D000490724D4D8E900121F2602F01F03C2F3F2
:1005E0000122C1F3846100EB82029E409940176BA7
:1005F00027EA06063143116302F052FB40F09A806D
:10060000D8F80820D8F80010B2F1004F0DD1002220
:1006100001F0E8FF2068416941F000410BE0E06D26
:1006200040F02000E065012027E101F0DBFF2068B9
:10063000416921F000414161D8E90412C3680429ED
:1006400049D1016E066ED8F800308F4D1946C3F3BC
:10065000846293FAA3F3C6F384666FF3DF41B3FABF
:1006600083F300291F4608BF1746BE4205D1016E1D
:1006700021F00041016602F0F2FA1E46002908BF8F
:100680001646476E476EC7F38467B74205D1416E81
:1006900021F00041416602F0E2FA1E46002908BF3F
:1006A0001646876E876EC7F38467B74205D1816EA1
:1006B00021F00041816602F0D2FA002908BF1346FA
:1006C000C16EC16EC1F38461994233D1C16E21F014
:1006D0000041C1662EE000F16007D8F800C0694E05
:1006E00057F821E00EEA060E062606EA93039A4022
:1006F0000CF0F8431A4342EA0E0242F0004247F877
:100700002120D8F81010D8F8182057F8213023F0FD
:1007100080731A4347F82120D8F8101057F8212089
:1007200098F81C3022F00072012B08BF02F1007211
:1007300047F82120D8F800108268D20752D1D0F8AB
:10074000B030D8F80C60504D0A466FF3DF4206F027
:1007500018079343FD400D402B43C0F8B0304B4B7E
:100760009E423FD1DAB191FAA1F1B1FA81F2531C64
:10077000910603F01E05092D19D8013201F180619F
:1007800003F01F03012502F01F0201F0F84105FAF2
:1007900003F302EB420241EA025119431CE0012239
:1007A00002EB91638A0E03F01E050A2DE5D3013298
:1007B00003F01F03012501F1806102F01F0205FA19
:1007C00003F3334D01F0F84102EB420205EB025214
:1007D0001143194341F00071D8F8082001F002FFDD
:1007E000D8F800102B48014246D02B4A2B481568F8
:1007F000814205F0E07302D02948814216D12802D7
:1008000027D42068B0F1A04F36D11068904920F06D
:10081000E070184340F4000010608C4802F039FB8F
:100820000190019840B301980138F9E71D488142D1
:100830000FD10020B0EB136F0BD12168A2F502702D
:10084000814219D0106820F0E070184340F08070A9
:1008500011E0154E0020B14208BF15F480010CD103
:100860002168A2F50270814206D0106820F0E07085
:10087000184340F4800010600020002184F85810D4
:10088000BDE8FC8100F0FF03FFFF070000007F4090
:10089000000020FE0000088008030050000021C373
:1008A0001000C090000052C7000084CB0068006CAC
:1008B00070470000F8B50446002000906CB3E06D6E
:1008C00028B9204600F0CCF802F0E6F9206621684D
:1008D000886880005C4802D58A6802408A608A681D
:1008E000D20014D48A6800F180501040584A40F079
:1008F0008050886055480068B0FBF2F0022202EB9D
:1009000040000090009810B100980138F9E788681D
:10091000C00004D402F03FF902E00120F8BD00203D
:100920008A68E36D02F0040203F01003D218E26D4E
:1009300056D122F481720232E2658A68D2070ED162
:10094000444A1368D2F800512B43DB0707D1636890
:10095000D2F8005325F47C152B43C2F80033627F94
:10096000E36B43EA4232D4E902352A431A4394F84E
:10097000243042EA0342012B04D1A36A364D05EB31
:1009800043431A43E36A23B1256B03F478732B4383
:100990001A43CB68314D2B401A43CA60626B0B6916
:1009A00023F040631A430A618A6812073BD4CA687D
:1009B00094F8385044F202039A43237F6D0045EACD
:1009C00083331A43CA6022690B696AB143F48033E6
:1009D00043F6FF750B61D1F8C030AB431A430BE00F
:1009E00042F0100101202CE023F4803243F6FF7323
:1009F0000A61D1F8C0209A43C1F8C0200A6994F86E
:100A00004030012B0CD140F2FD7304F144079A43AE
:100A1000E8CF1A432A4332433A4342F0010201E04D
:100A200022F001020A610A6B636922F00F02012BB6
:100A300002D1236A013B1A430A630122E16D62F38A
:100A40000101E165F8BD00BFC0FFFF5F100000209D
:100A5000400D0300080000500000FEFF0740F0FFBB
:100A600010B598B0044613A81421FFF709FC02A89A
:100A70004421FFF705FC20689449884217D0B0F163
:100A8000A04F31D102F071F902A800F0F3FA08B1D9
:100A9000FFF7F2FC154801684A1C0260144809B9C6
:100AA00002F0BAF802F030F94FF4A04013E002F07F
:100AB0005CF902A800F0DEFA08B1FFF7DDFC0B4894
:100AC00001684A1C02600A4809B902F0A5F802F060
:100AD0001BF94FF40040002115910321CDE91301CA
:100AE000044813A900F006F918B010BD5400002006
:100AF0004C100240000400482DE9F84F484AD0F855
:100B0000188082460D461068B8F1080F00F01F09E2
:100B100002D19346082710E0B9F1090F73D80120DC
:100B200040F2212100FA09F008426CD0DAF8000006
:100B3000C068C0076BD19346042700F0BDF9064694
:100B40006C1CDAF800000168394219D1002CF8D089
:100B500000F0B2F9801BA84201D8002DF1D1DAF8DB
:100B6000000000683842ECD100208AF85800DAF81A
:100B70005C0040F00400CAF85C000320BDE8F88F78
:100B8000DAF85C1041F40071CAF85C10C16811F425
:100B9000406F15D19AF81D1091B9016809070FD55A
:100BA000DAF85C1021F48071CAF85C10DAF85C1095
:100BB000C90405D4DAF85C1041F00101CAF85C10F0
:100BC000ABF5027102468842014608BF4FF0A041D2
:100BD00081420BD0B9F1090F07D8012240F221233D
:100BE00002FA09F21A42024600D10A46D168B8F167
:100BF000080F01D1082102E0490401D40C21016051
:100C00000020BDE8F88F106810F4604F93D0DAF838
:100C10005C0040F02000CAF85C000120BDE8F88FBD
:100C20000803005070B5294D02F064F803D494F81D
:100C30005800012801D1022070BD02F04EF918B110
:100C400002F02AF8012070BD02F0D2F808BF4FF080
:100C5000A041814218BF002A03D1E36D23F4801321
:100C6000E365E36D0025DB0444BF256E25F0060532
:100C70002566002384F858301C238142036008D085
:100C8000092A15D8012303FA02F240F221231A425D
:100C90000ED0C168890104D5E16D012262F30D31E6
:100CA000E16581680A4A114004318160002070BD0D
:100CB000E06D40F48010E065C8688001F6D5E06D15
:100CC000012161F30D30E065F0E700BF0001005045
:100CD000C0FFFF7FB0B5044600F0EEF8054694482B
:100CE000611C406818BF044400F0E6F8401BA042B5
:100CF000FAD3B0BD2DE9FF4F644A06244FF0010A34
:100D00004FF0000B904200F1384208BF05244FEA33
:100D1000B223052B38BF4FEAB22400F12002019420
:100D20000C460092002100220294266836FA0BF746
:100D300008BFBDE8FF8F0AFA0BF916EA090600F0B2
:100D40009F80D4F804C0032303FA01F70CF0030ECC
:100D50006FEA0708AEF10107012F14D88768D4F8AD
:100D60000CA00AFA01F507EA08074FF0010A3D4313
:100D70008560CCF30015476805FA0BF527EA0907EB
:100D80003D43456005E0BEF1030F02D14FF0030E75
:100D900022E0C568A76805EA08058F403D43BEF11B
:100DA000020FC56018D102F01C050F23009C03FA46
:100DB00005FC6FF0030303EA5B03E75827EA0C0C1A
:100DC000029F3F6907FA05F545EA0C05E550029CCC
:100DD000D4F804C00CF0030E05680EFA01F305EA1E
:100DE00008052B431CF4403F036049D02A4C2BF0EC
:100DF0000307236843F00103236023680F2403F0F3
:100E00000103039302F00C0304FA03F5204CA446FB
:100E10002744039C214CA6463C59AC43019D05FA4E
:100E200003F3234347F80E30DCF80830029D6D6869
:100E300043EA0604EF0258BF23EA0604154BCCF838
:100E40000840AF029E461B6843EA060458BF23EAE7
:100E50000604CEF80040AF03DCF8043043EA060491
:100E600058BF23EA0604CCF80440ED03DCF8003058
:100E700043EA060458BF23EA0604CCF80040029C6B
:100E8000023104320BF1010B4FE700BF00140048A0
:100E9000000401400C0401406010024008FCFFFF08
:100EA0000069084018BF012070471823002A08BFB6
:100EB0002823C1507047000005480068704700BFF4
:100EC0001B48034940680A6810440860704700BF27
:100ED000B002002080B5032000F06CF80F2000F075
:100EE00007F808B1012080BD00F024F8002080BD83
:100EF00070B50F4E04467068B0B14FF47A71B1FB13
:100F0000F0F057490968B1FBF0F000F0E5FC01256D
:100F10000F2C0AD848B94FF0FF3021460022002597
:100F200000F022F8346000E00125284670BD00BFC3
:100F30000400002082B00B48816841F0010181600B
:100F4000816801F0010101910199016841F080512E
:100F50000160006800F080500090009802B000F03E
:100F600083B800BF58100240F0B5184B4FF0FF3661
:100F70001C68C4F30224E51E84F0070438BF002572
:100F800006FA05F7BA43042C28BF042406FA04F431
:100F9000A14300F00F04A940043C1143044A234438
:100FA00009010244002848BF03F10C021170F0BD92
:100FB00000E400E005494FF6FF030A681A4060F3B9
:100FC0000A22034810430860704700BF0CED00E0A0
:100FD0000000FA0510B5A349B0F5007F0A681AD0E1
:100FE000C0BBD1F8800020F4807001F00EFF35D135
:100FF00001F0C8FE1A48006850431A4AB0FBF2F0EC
:10100000002201304C69013842F1000364051BD510
:10101000002BF7D118E0D1F8800040F4807001F087
:10102000F4FE1BD101F0AEFE0D48006850430D4A9E
:10103000B0FBF2F0002201304C69013842F10003AC
:10104000640501D5002BF7D14869400544BF032052
:1010500010BD03E0022060F34A220A60002010BDA8
:101060001000002040420F00014801F007BE00BF01
:10107000087000402DE9FC4104468078784E000756
:1010800001D400204BE0F06C5FEAC00808D4F06C9B
:1010900040F08050F064F06C00F0805001900198B6
:1010A000704F386840F480703860FFF705FF0546E0
:1010B0003868C00506D4FFF7FFFE401B0228F7D9A9
:1010C000032025E0D6F8840010F4407017D0216C7E
:1010D000884211D0D6F88400D6F8841041F48031CB
:1010E00020F44070C6F88410D6F8841021F48031C2
:1010F000C6F88410C6F88400C00740F0A180206CB8
:10110000D6F8841021F440710843C6F8840000200A
:10111000B8F1000F03D4F16C21F08051F164216823
:10112000CA0705D06268F36F23F003031A43F2671E
:101130008A0705D5A268F36F23F00C031A43F26700
:101140004A0705D5E268F36F23F030031A43F267CC
:101150000A0705D52269F36F23F0C0031A43F2672B
:101160008A0605D56269F36F23F440631A43F26778
:101170004A0605D5A269F36F23F440531A43F26778
:101180000A0605D5E269F36F23F440431A43F26778
:10119000CA0505D5226AF36F23F440331A43F26778
:1011A0008A0505D5626AF36F23F440231A43F26778
:1011B0004A050AD5A26AF36F23F440131343B2F52C
:1011C000801FF36701D101F0F8FC0A050AD5E26A35
:1011D000F36F23F440031343B2F5800FF36701D19B
:1011E00001F0EBFCCA040AD5226BF36F23F04073C5
:1011F0001343B2F1807FF36701D101F0DEFC8A0472
:1012000005D5626B01F09AFD01D101F0D6FC4A04CC
:1012100005D5A26B01F092FD01D101F0CEFC0904CD
:101220000CD5E16BF26F22F040520A43B1F1805FBE
:10123000F26703D1316841F480313160BDE8FC814F
:10124000FFF73AFE054641F28837D6F8840080075A
:101250003FF555AFFFF730FE401BB842F5D92FE7F9
:101260000C100240007000402DE9F047002853D0D8
:10127000714B04460D46186800F00F00814209D9F1
:10128000186820F00F0028431860186800F00F005D
:10129000A84241D120688F4E9A46C107B14602D17B
:1012A000810774D486E0626856F8081C022A31D09F
:1012B000032A34D189012FD5716872687368B446E6
:1012C0007668022701F00301C6F341660329C2F3E1
:1012D000031107EB4606804FC3F3062201F101011B
:1012E00004BF43F20067C0F26E17B7FBF1F1514340
:1012F000524AB1FBF6F1914220D9DCF80010664663
:1013000011F0F00F12D0800701D5A06870B14FF036
:10131000000816E0880304D40120BDE8F0874805E2
:10132000FAD500F0A9F845498842F0D9306808217B
:101330004FF0010861F30710306002E04FF0000841
:1013400066466068316821F00301084301F017FD2B
:10135000064641F288376068D9F8001001F00C01A8
:10136000B1EB800F05D0FFF7A7FD801BB842F2D983
:101370003AE02068810708D4B8F1000F4E46534682
:1013800018D0316821F0F00113E04E465346410772
:1013900003D5316841F4E0613160010704D531685B
:1013A000072262F30D213160A168326822F0F00259
:1013B00011433160196801F00F018D4219D218688C
:1013C00020F00F0028431860FFF776FD064641F233
:1013D0008837DAF8000000F00F00A84207D0FFF7C6
:1013E0006BFD801BB842F4D90320BDE8F08720686C
:1013F0004E46410705D5E168326822F4E0621143A8
:101400003160000706D52069316821F4605141EA56
:10141000C000306000F030F83168094AC1F30311B0
:10142000515C01F01F01C84011490860054800687F
:10143000BDE8F047FFF75CBD0020024000B4C404E3
:10144000B84100080400002009482249094A006800
:101450000968C1F3022101F06CBC00BF04481D49BA
:10146000044A00680968C1F3C22101F062BC00BFF0
:1014700010000020C84100081649174A086800F00B
:101480000C000428104624D0086800F00C03134810
:10149000082B1ED00B6803F00C030C2B1CBF002084
:1014A00070474B6803F00303032B08BF02464868EC
:1014B000C0F303100130B2FBF0F04A684968C2F390
:1014C0000622C1F341615043022202EB4101B0FB0D
:1014D000F1F07047081002400024F40000366E015D
:1014E000002863D02DE9FC4104460078CF4EC007A8
:1014F00012D0B068F16800F00C000C2803D101F0A4
:101500000301032902D0082840F0D180306880030D
:1015100002D56068002865D02078800748D42078FC
:10152000000762D42078400776D42078800600F146
:10153000A780E769002F00F0B481B06800F00C00CC
:101540000C2840F0E880012F4CD0216AF06800F0B0
:1015500003028A4246D1616A6FF00F0202EB011169
:1015600000F0F0028A423DD1A16A00F4FE42B2EBE3
:10157000012F37D1E16A00F07842B2EBC16F31D16F
:10158000216BD44A02EA015100F4C002A1F5001116
:101590008A4227D1616B4FF07E4200F0C06002EAC0
:1015A000016101F17E4188421CD17AE1012070473E
:1015B000B068F16800F00C000C2803D101F00301C1
:1015C000022902D0042840F094803068400501D5FB
:1015D000E06838B101F0E9FABA480068FFF788FC22
:1015E00000289CD00120BDE8FC81D6F894006169F8
:1015F00000296CD040F00100C6F89400FFF75CFCB5
:101600000546D6F8940080073FF58CAFFFF754FCF1
:10161000401B0228F5D9DBE0B06D5FEAC00808D4B2
:10162000B06D40F08050B065B06D00F0805001901A
:101630000198A54F3868C0050FD4386840F4807011
:101640003860FFF739FC05463868C00505D4FFF758
:1016500033FC401B0228F7D9BAE0D6F89000A16805
:10166000012908D0052940F0848040F00400C6F824
:101670009000D6F8900040F00100C6F8900083E09A
:10168000D6F89800A169002961D040F00100C6F8A1
:101690009800FFF711FC0546D6F8980080073FF543
:1016A00048AFFFF709FC01F0E5FAF5D99BE7306890
:1016B0006168B1F5803F06D0B1F5A02F73D140F439
:1016C00080203060306840F48030306074E020F07A
:1016D0000100C6F89400FFF7EFFB0546D6F894002A
:1016E00080077FF51FAFFFF7E7FB401B0228F5D906
:1016F0006EE03068E16800296DD040F4807001F040
:101700003EFB05463068400574D4FFF7D5FB01F079
:10171000B1FAF7D967E7306820F0807001F02FFB4D
:101720000546022F09D13068800140F18180FFF722
:10173000C3FB01F09FFAF6D955E73068800140F10C
:10174000AC80FFF7B9FB01F095FAF6D94BE720F032
:101750000100C6F89800FFF7AFFB0546D6F89800E1
:1017600080077FF5E6AEFFF7A7FB01F083FAF5D916
:1017700039E720F00100C6F89000D6F8900020F07C
:101780000400C6F89000C1B3FFF796FB054641F28E
:101790008837D6F8900080073FD4FFF78DFB401BB9
:1017A000B842F6D914E020F4803000293060306867
:1017B00020F48020306077D0FFF77EFB054630684C
:1017C00080033FF5A9AEFFF777FB401B6428F6D9ED
:1017D0000320BDE8FC8120F4807001F0D0FA0546BA
:1017E000306840057FF59BAEFFF766FB01F042FADB
:1017F000F6D9F8E601F0D9F991E6FFF75DFB054669
:1018000041F28837D6F89000800706D5FFF754FBE1
:10181000411B0320B942F5D9E5E6B8F1000F3FF5C9
:1018200084AEB06D20F08050B0657EE600100240BE
:1018300004F120036FF00F05254F0FCB05EB0111CD
:10184000F5683D4028430843216B40EA0220214AC5
:1018500002EA01514FF07E42A1F500110843616B8D
:1018600040EAC36002EA016101F17E410843F06091
:10187000306840F080703060F06840F08070F06058
:10188000FFF71AFB0446306880010AD4FFF714FB07
:10189000011B03200229F6D9A5E6F0680B49084090
:1018A000F0600020BDE8FC81FFF706FB05463068CC
:1018B00080037FF531AEFFF7FFFA411B0320642957
:1018C000F5D990E60400002000700040FCFFEEFE19
:1018D0000C809F010000E0FF411E0020B0EB116F63
:1018E0001CBF01207047044AF023516003490B706C
:1018F000072190601160704710E000E023ED00E0E8
:1019000090F83C20012A01D1022142E0F0B591E893
:101910007800214A26F47C5625F47055144035434E
:101920002C4302F500652B400D69234302F5C0549A
:101930002C4023434C69234302F5605402F5F042E6
:1019400023400C6B2240154C1A43CB691A438B6918
:1019500004EA0343314C13430268A24202D0F64C1E
:10196000A24210D10E4C01F120060E4FC96A23404D
:1019700070CE07EA0656334324F00854234325F07B
:10198000005423430B43002180F83C105364BDE80E
:10199000F0400846704700BFFF87F0EF0000FFEF00
:1019A000FFFF0FDC0000F0DC90F83C300222012B3E
:1019B00032D070B580F83D20184C026855689368A5
:1019C000A24202D0DC4EB24203D14E6825F470052B
:1019D0003543134E35400E683543B2F1804F5560A4
:1019E0000DD0D44DAA420AD00E4DAA4207D0D24DF6
:1019F000AA4204D00C4DAA4201D0A24204D1896867
:101A000023F08003194391600022012180F83C20DB
:101A100080F83D10BDE8704010467047003401402A
:101A20008FFFFFFD000800400040014070B110B57D
:101A300001F02AFA03D101F093F900F009F801F05E
:101A4000A8F9012001F0BEF801F080B9012070472B
:101A500010B586B0044601A81421FEF711FC2068D9
:101A6000B0F1804F1BD16C48C16841F00101C160E9
:101A7000C16801F001010091009901F06DF801F0D9
:101A8000D5F8012005900020CDE903000220CDE922
:101A90000100009801A94FF09040FFF72BF906B024
:101AA00010BD00BFF8B501F00DFA04BF0220F8BD6B
:101AB0000D4601204FEAB201032984F83C0067D8A3
:101AC000DFE801F00254102FD5E90012EB6820681E
:101AD00001F0FEFD206850F8181F21F00C01016094
:101AE000A96851E02268136A106A20F4807023F418
:101AF00020631062D5E90067D5E9021060F307178B
:101B0000104650F81C5F25F0F3053D43056006F0D4
:101B10000A0543EA05231362026822F00C02026000
:101B200032E021684FF2FF070A6A086A20F4805009
:101B300022F420420862D5E90030D5E902650002AE
:101B400003F00A0320EA0707084642EA033265F376
:101B50000F3750F81C5F25F473453D4305600A625A
:101B6000016821F44061016031020DE0D5E9001205
:101B7000EB68206801F0F2FD206850F8181F21F48E
:101B800040610160A96809020268114301600020F8
:101B900001F08DF9F8BD70B110B501F075F903D100
:101BA00001F0DEF800F009F801F0F3F8012001F08F
:101BB00009F801F0CBB801207047704710B586B026
:101BC000044601A81421FEF75BFB206859498842AE
:101BD0000BD0594988421CD1AD4800F0BDFF062109
:101BE00001F024F80098802007E0A94800F0B4FF35
:101BF000022101F01BF80098402005910021CDE959
:101C000003110221CDE9010101A94FF09040FFF736
:101C100071F806B010BD00BF4C100240B0B501F025
:101C200051F904BF0220B0BD0D4601204FEAB201B8
:101C3000052984F83C0048D8DFE801F0032B132382
:101C40000B332068294601F07BFB206850F8181FF1
:101C50000EE02068294601F067FC206850F8501F0C
:101C600006E02068294601F0E3FB206850F81C1FBD
:101C700041F008010160016821F004010160296957
:101C80001FE02068294601F00FFC206850F81C1F57
:101C90000EE02068294601F093FB206850F8181FD9
:101CA00006E02068294601F069FC206850F8501FC2
:101CB00041F400610160016821F4806101602969DB
:101CC0000902026811430160002001F0F0F8B0BD84
:101CD00070B110B501F0D8F803D101F041F800F06F
:101CE00009F801F056F8012000F06CFF01F02EB861
:101CF0000120704782B000680E4988420DD00E491D
:101D0000884214D10D48816841F400618160806887
:101D100000F400600190019809E00848016841F072
:101D200002010160006800F002000090009802B01B
:101D3000704700BF00040040002C014058100240D2
:101D4000B0B501F09BF80FD001F07CF800284FF0FF
:101D5000010005D12068C16821F0400101F0ABF815
:101D600001F0A5F884F83D50B0BD90F88410012929
:101D700001D1022112E02421C0F8881001680A680C
:101D80000B6823F0010322F000520B600A6000216F
:101D90002022416680F88410C0F8882008467047E9
:101DA000B0B500F0FDFF04BF0220B0BD00F021FF80
:101DB00022F0606201F03BF800F065BFB0B500F0C2
:101DC000EFFF04BF0220B0BD00F013FF22F060421D
:101DD00001F02DF800F057BF10B560B101F042F8E6
:101DE00008B901F074F801F017F801D001F024F8F7
:101DF00001F025F808B1012010BD00F0E2FF21F04C
:101E00002A01816000F05EFFBDE8104001F038BD9E
:101E100010B598B0044613A81421FEF731FA02A8B1
:101E20003C210830FEF72CFA2068184988422AD154
:101E3000002401200394029002A8FFF71BF908B1C7
:101E4000FEF71AFB1248416941F480414161416942
:101E500001F4804101910199016841F001010160A3
:101E6000006800F0010001900720CDE915441790AB
:101E7000022014904FF4C0601390019813A94FF002
:101E80009040FEF737FF18B010BD00BF003801408A
:101E90004C1002402DE9FC470446D0F88C00202865
:101EA0001CBF0220BDE8FC87884609B31746FAB17B
:101EB000002022211D46C4F89000C4F88C10E06672
:101EC000FEF7FAFFA4F85E708146A4F85C70A06883
:101ED000A8B1B0F1805F0ED0B0F5805F15D1206958
:101EE00088B940F2FF170026C246A4F8607012E0DD
:101EF0000120BDE8FC87206918B13F2706E0206972
:101F000008B17F2702E0FF2700E000274FF0000A1A
:101F10004646A4F8607000F0A1FF18D020462021AA
:101F200000224B46009501F04FFE90B92068406AB0
:101F30001EB1384006F8010B03E0384000262AF8AD
:101F4000020BB4F85E000138A4F85E00E3E700205D
:101F500000E003202021C4F88C10BDE8FC872DE9A7
:101F6000F84300F07FFF20281CBF0220BDE8F88363
:101F7000884699B317468AB300201D46C4F89000DE
:101F80002120C4F88800FEF797FFA4F85670064693
:101F9000A4F85470A068B0F5805F01D1206988B3BF
:101FA0004FF000094746B4F85600D0B120468021D2
:101FB00000F002FF08BB27B117F8010B2168886207
:101FC00006E039F8021B206800276FF35F21816269
:101FD000B4F856000138A4F85600E4E70120BDE843
:101FE000F8832046402100F0E7FE2021C4F8881045
:101FF000002818BF0320BDE8F88300F02BFF032062
:10200000BDE8F8830027C146CDE7FEE7B0B501F093
:10201000ADF800240825280609D000F087FE00F05E
:10202000B7FD01F09FF840EA4404013DF3E700F0FA
:102030007DFE01F0B1F8E0B2B0BD80B5002001F046
:10204000A3F800F0A5FD0020BDE8804001F082B8B3
:10205000B0B50446082528060AD000F067FE04F053
:10206000800001F091F800F093FD6400013DF2E77B
:102070000020BDE8B04001F06DB880B5012001F04E
:1020800083F800F085FD0020BDE8804001F062B8D3
:1020900080B5012001F078F800F07AFD002001F011
:1020A00073F80020BDE8804001F054B880B500F01E
:1020B0003DFE002001F068F800F06AFD0120BDE857
:1020C000804001F061B810B501F050F800F060FDFB
:1020D000052401F047F840B1013C2004F9D101F09A
:1020E0005BF8FFF7E3FF012405E001F055F800205D
:1020F000002401F02FF8204610BD000080B500F04C
:1021000019F8B3494A78904213D00128487010D189
:10211000887880F001008870B64801781031CAB222
:102120008F2A08BF0F210170C8B2BDE8804000F0BF
:1021300068BA80BDB0B55E4D01212846FEF7B0FEFD
:1021400008B1002408E000F0DCFD28460121FEF77C
:10215000A7FEB0FA80F0440928460221FEF7A0FE4F
:1021600040B900F0CEFD28460221FEF799FE002876
:1021700008BF022428460421FEF792FE40B900F071
:10218000C0FD28460421FEF78BFE002808BF03246B
:1021900000F03DFD30B900F0B4FD00F038FD00283E
:1021A00008BF04242046B0BDFEB503204FF6FF71E2
:1021B0000490002001910290059003900B4801A922
:1021C000FEF798FD06B080BDFEB503200490012007
:1021D00002904FF6FF700190002005900390034895
:1021E00001A9FEF787FD06B080BD00BF00080048CA
:1021F000B0B504460020002100F040F900F07CF961
:102200004FF4963525B1204600F050F9013DF9E72D
:10221000B0BD00002DE9F04186B00DF10408142195
:102220004046FEF72DF82148214D032601270024C2
:10223000016841F004010160016801F004010091AE
:102240000099016841F001010160016801F001019C
:1022500000910099016841F0020101604146006867
:1022600000F00200009000980496029703944FF447
:10227000487001902846FEF73DFD4FF480704146BE
:1022800004960297039401904FF09040FEF732FDC0
:10229000FFF79AFF0748295841F480712950A8692F
:1022A00040F40870A86106B0BDE8F0814C1002400F
:1022B0000004004818FCFFFF203AD3B25B0053FA39
:1022C00082F2024B03EB021200F014B8D041000876
:1022D000F8B50C46054640F23F160027E25D42B1D4
:1022E000132F06D8B1B22846FFF7E6FF0137103E9C
:1022F000F4E7F8BD2DE9F04714468846814600F022
:10230000BDF8DFF874A1684E0027182F08BFBDE89C
:10231000F08700F0F1F80025102D0BD034F81700ED
:10232000E840C007304608BF5046008800F0BEF8BD
:102330000135F1E709F1010941465FFA89F000F042
:102340009DF80137E1E700BF10B5FFF763FF0020FC
:1023500000F068F8084C48F230212080208888423C
:1023600002D100F0C1FD01E000F028FE002000F0E5
:1023700059F8208010BD00BF5C000020F8B5144D56
:102380002889B0F5FA7F38BFF8BD00202B782A796C
:1023900005F12404154E0FA128812046B047144FA3
:1023A00030202146B8471348EA8913A10378204614
:1023B000B04760202146B847AB896A8914A12046FE
:1023C000B047782021463A46BDE8F840104700BFA4
:1023D00018000020205345433A2530337520202033
:1023E000434E543A2530337520000000053D000867
:1023F000D122000814000020205233373A2530340F
:1024000075202042313A20307825303258000000C3
:10241000205233383A2530347520204D43503A2528
:1024200030337500B0B50D4CD4F8101441F4007180
:10243000C4F81014D4F8101441F48071C4F81014C6
:10244000D4F8001441F02001C4F8001404490860D5
:1024500000F087FB00F0EFFB00F060BC18000048C4
:102460001408004881B0ADF802000348BDF802101E
:10247000018001B0704700BF0C00002010B50C4671
:102480000146202000F060F821202146BDE81040E0
:1024900000F05AB881B0ADF802000348BDF8021050
:1024A000018001B0704700BF5A00002033490A691B
:1024B00042F400720A610A6842F480720A600A6893
:1024C00042F020020A60C1F8FC03086940F02000D5
:1024D000086100BF00BF00BF086840F0200008602E
:1024E000086840F48070086000BF00BF00BF086843
:1024F00040F40070086070472048016941F40071A1
:102500000161016941F480710161016841F02001BC
:1025100001602221C0F8FC13016941F02001016132
:1025200000BF00BF00BF016841F0200101600168E9
:1025300041F48071016000BF00BF00BF016841F439
:1025400000710160704700BF0C4A136943F40073C7
:102550001361136943F480731361136843F020031C
:102560001360C2F8FC03734600F032FC9E46C2F8CA
:10257000FC13714600F02CFC8E467047180400488E
:1025800010B5C0430749084C0122000260502046A4
:102590000421FEF78AFC204604210022BDE81040F9
:1025A000FEF783BC14FCFFFF000C00480C48C27807
:1025B00001798A4208BF7047C1708178427929B198
:1025C0005108022A38BF6FF07F0104E05100C9B200
:1025D000012998BF01214171C8B2FFF7D1BF00BFE7
:1025E0001800002010B5C1F30453C1F34061072463
:1025F00000EB81009C409A404169A1431143416135
:1026000010BD10B50446FFF743FD5E20FFF720FD27
:10261000FFF759FD2046FFF71BFDFFF754FDBDE80E
:102620001040FFF743BD00002DE9F04100F012FB20
:10263000DFF84080A020C0470F4FB8473046C04762
:10264000B847FFF725FDA120C047B84720060CD0AA
:10265000013CFFF7DBFC05F8010B200602D0FFF779
:10266000ECFCF3E7FFF709FDF0E7BDE8F041FFF709
:102670001DBD00BF51200008C720000870B500F044
:10268000E9FAA020FFF7E4FCFFF71DFDF0B2FFF729
:10269000DFFCFFF718FD200603D015F8016B013CA5
:1026A000F4E7BDE87040FFF701BD0000B0B58CB0A5
:1026B000002420210B94CDE9094401A8FDF7E0FD99
:1026C0002248022104224FF440334FF0A04501621A
:1026D000012100F037FAC0E90053C0E902448261E9
:1026E0008183C0E90441FEF7E5F808B1FDF7C4FEB7
:1026F0001648099409A9FDF707FF08B1FDF7BCFECC
:102700000421002005917F210690CDE903010620D8
:1027100002900F4801900D4801A9FDF747FF08B14D
:10272000FDF7AAFE052003900C20029009480190B5
:10273000064801A9FDF73AFF08B1FDF79DFE0348E1
:102740007F21FDF79DFE0CB0B0BD00BF60000020F2
:102750000008302E2000F014B0B588B01748184A91
:1027600000244FF4403101230425CDE9064400F054
:10277000E9F903628483C0E90021C0E90244C0E9A9
:1027800004448561FEF796F808B1FDF775FE7F20D9
:102790006946CDE90454CDE902400620019009487C
:1027A00000900648FDF702FF08B1FDF765FE0348FB
:1027B0007F21FDF765FE08B0B0BD00BFCC00002052
:1027C000000100500080F03E2DE9F04F87B00DF180
:1027D000080814214046FDF753FD4148424D0022B0
:1027E0004FF6FF7A0024016841F00401016001689E
:1027F00001F0040101910199016841F0200101609B
:10280000016801F0200101910199016841F0010185
:102810000160016801F0010101910199016841F035
:1028200002010160016801F0020101910199016852
:1028300041F0080101604FF6FF71006800F00800E8
:1028400001900198274800F5806783463846A847DD
:102850004FF090404FF480710022A8470BF50066BE
:10286000042100223046A84758464FF470710022D8
:10287000A8471E4D4FF0010938464146CDE90444B2
:10288000CDE902A9A8474FF0904041460494CDE914
:102890000294A84707204146CDE9034402905846D8
:1028A000A8474FF4807000F047F94FF09040A847D8
:1028B000042000F041F93046A84711204146CDE9F7
:1028C00004440390C02002905846A8474FF440703B
:1028D00000F032F95846A84707B0BDE8F08F00BFB6
:1028E0004C10024000040048AB0E0008F50C000834
:1028F000B0B598B00EAC1C212046FDF7C1FC01A874
:102900003421FDF7BDFC2648264B002540F2F3118B
:10291000A922C0E90032C0E90251C0E9045585612D
:10292000FFF7D6F908B1FDF7A7FD1D481795CDE9CA
:10293000155515A9FFF738F808B1FDF79DFD3220B0
:1029400014210F9060200E9004F10800FDF798FC10
:102950001348214600220025FFF760F908B1FDF772
:102960008BFD01AC14212046FDF78AFC4FF480401A
:102970002146CDE90B55CDE907550D904FF000707C
:10298000CDE909504FF4005006900548FEF7B8FF16
:1029900008B1FDF771FD0248FFF710F918B0B0BD9E
:1029A00038010020002C014010B58CB028480021CF
:1029B0004FF0FF32A9234FF080440A910691CDE9F0
:1029C0000411CDE90211CDE900118161C0E9004394
:1029D000C0E902120161FFF729F808B1FDF74CFDCB
:1029E0001B48FFF7D8F808B1FDF746FD602000242A
:1029F000089004200B9409940790154807A9FFF745
:102A00009FF908B1FDF738FD11480694049404A914
:102A1000FEF7CAFF08B1FDF72FFD0220002469462A
:102A20000022CDE900000A48CDE90244FFF73AF858
:102A300008B1FDF721FD012069460422CDE90040DF
:102A40000348FFF72FF808B1FDF716FD0CB010BDD5
:102A50008401002010B58AB019481A4B002440F2B6
:102A6000E731A9220894CDE90544CDE90344846106
:102A7000C0E90032C0E902410461FFF729F908B159
:102A8000FDF7FAFC0E480994079407A9FEF78CFF9E
:102A900008B1FDF7F1FC0020694600220490029085
:102AA00064200190602000900548FFF7B7F808B156
:102AB000FDF7E2FC0248FFF781F80AB010BD00BF45
:102AC000D00100200004004010B5184800210C225D
:102AD000174C4FF41653C0E904124FF48052C0E96A
:102AE0000043C0E90211C0E90611C0E90811C26340
:102AF00010228262FFF770F908B1FDF7BDFC0B48A8
:102B00000021FFF75BF908B1FDF7B6FC074800218B
:102B1000FFF746F908B1FDF7AFFC0448FFF725F9C8
:102B200018B1BDE81040FDF7A7BC10BD1C02002085
:102B300000380140FEE7FEE741460594CDE90394E5
:102B40000290704780F84040C46380F83840C0E984
:102B50000B4480F824407047016841F00101016096
:102B60007047D4F8100440F02000C4F8100400BFEF
:102B700000BF00BFD4F8000440F02000C4F80004F7
:102B8000D4F8000440F48070C4F80004FFF70CBBD4
:102B9000012000F0DFBAE06D40F01000E065206E2B
:102BA00040F001002066012070472069716821F023
:102BB000FE4141EA006070607047326842F4801262
:102BC0003260704784F8480084F83E0084F83F0083
:102BD00084F8400084F8410084F8420084F84300FF
:102BE00084F8440084F8450084F8460084F84700DF
:102BF00070472420C4F8880020680568026822F025
:102C000001020260012284F88420826870474FF03C
:102C100090400121FEF744B9016841F40051016080
:102C2000016801F40051019101997047006800F0BA
:102C3000010000907047206940F48070206100BF5F
:102C400000BF00BFD4F8F857206840F480702060BF
:102C5000FFF7BABA14460E460546FFF719BAD8F878
:102C6000003003EA0501C3F3846293FAA3F3B3FAD5
:102C700083F37047411B032002297047016841F428
:102C8000804101607047206820210560002084F8A1
:102C90008400C4F88810B0BD002084F85800704744
:102CA0008168826801F0040102F008028918704707
:102CB000016851E8001F026821F0100142E800138A
:102CC000002B7047016841F0010101602046704708
:102CD00041E80002002A704741E80202002A7047DA
:102CE000016851E8001F026821F4907142E8001366
:102CF000002B70470446D5F80862006880684007DA
:102D000070470A20FDF7E6BF016841F0020101604B
:102D1000006800F00200019001987047D4F80004A8
:102D200040F40070C4F80004A8B2B0BD002000F068
:102D300011BA515C01F01F01C8407047F36F23F0D6
:102D400040631343B2F1006FF367704784F83D00AE
:102D5000002010BD00222B460090204600F034BF1A
:102D6000002084F83C00204670474FF0005011903E
:102D70004FF400400290704740F20331204730602A
:102D8000FEF79AB80868012262F34A2032220860EE
:102D900070470220211D84F83D00206800F06EBAC3
:102DA000044690F8840001287047B04202628C68A3
:102DB000D1F800C04568704700223346009500F006
:102DC00003BF2068416821F49041416081687047E9
:102DD000106940F02000106100BF00BF00BF106804
:102DE00040F020001060106840F480701060704760
:102DF0002068E16D40F6017306F01F02994301F56A
:102E00008071A842E16501467047C1F8800002F474
:102E1000C060B0F5806F70472420C4F88800206837
:102E2000A16A0268002922F0010202607047114382
:102E30008160204600F0ACBC204600F0CDBC2046AE
:102E400000F0B0BD84F83D000125204684F83C50D8
:102E500000F0C2BB2020C4F888007047B4F85E00C0
:102E6000002870470446D0F8880070472046FDF7D8
:102E700079BA206850E8000F2168704790F83C202C
:102E800004460220012A7047044690F83D000028BD
:102E900070470068B0FBF1F00C2100EB400001EB43
:102EA00080007047206850E8020F216870470021B9
:102EB00084F83C107047C160C16821F48041C16052
:102EC00000207047044690F83C000128704700201D
:102ED00084F884002046FEF79BBF012084F8580048
:102EE0002046FDF76DBA704710B5984C00200121BF
:102EF000A04701200021A047102041F29071A04777
:102F000060204FF41C51A04761200121A0474620BA
:102F10000221A047132048F21001A047122048F2D6
:102F2000FE01A04702204FF4A061A047032041F218
:102F30003001A0473020FFF71FFF3120FFF71CFFB3
:102F40003220FFF719FF33204FF44071A04734209F
:102F50000321A0473520FFF70FFF36201421A0479B
:102F60003720FFF709FF3820FFF706FF3920FFF76A
:102F700003FF3A204FF44071A0473B200321A047B4
:102F80003C20FFF7F9FE3D204FF4A051A0479220CE
:102F90004FF40071A0479320FFF7EEFE902040F61B
:102FA0000D01A047032041F21801A047072040F27D
:102FB00073112246BDE81040104700BFB0B5634D05
:102FC000E32043F20801A847E7201221A847EF2099
:102FD00041F23121A84701200021A84702204FF4E7
:102FE000E061A847032041F23001A84704200021F6
:102FF000A847082040F20721A84709200021A84738
:103000000A200021A8470C200021A8470D200021FC
:10301000A8470F200021A84710200021A847112011
:103020000721A84712200021A84713200021A84704
:10303000474CC820A047102041F29061A8471120BA
:1030400040F22721A8473220A04712201D21A8477F
:103050003220A04713204FF40061A84729201421F3
:10306000A8472B200B21A8473220A0472020002171
:10307000A84721200021A84730200721A847312058
:1030800040F20771A84732200621A847352040F2B8
:103090000471A847362041F60471A847372004215F
:1030A000A84738200021A847392040F20671A847D8
:1030B0003C2040F20171A8473D200F21A847502035
:1030C0000021A8475120EF21A84752200021A847FE
:1030D000532040F23F11A84760204FF41C51A847ED
:1030E00061200121A8476A200021A84780200021F3
:1030F000A84781200021A84782200021A8478320DB
:103100000021A84784200021A84785200021A84746
:1031100090201021A84792200021A8479320032146
:10312000A84795204FF48871A84797200021A84709
:1031300098200021A847032041F21801A847072042
:1031400040F273112A46BDE8B040104749250008F7
:10315000D50C000802460028174818BF012240215C
:10316000FDF7A3BE14488021FDF79ABEFEB50020EE
:10317000CDE90400CDE90200802001900E4801A9AC
:10318000FDF7B8FD06B080BD024600280A4818BF0A
:1031900001228021FDF789BEFEB500201121029198
:1031A0008021CDE9030005900348019101A9FDF7B5
:1031B000A1FD06B080BD00BF0004004870470000BC
:1031C00080B5FDF77DFE0B4801880131018089B291
:1031D000B1F57A7F05D100210180074801780131DE
:1031E00001700648018801310180054801780131EC
:1031F000017080BD580000201C000020200000202D
:103200001F00002070B594B0FDF764FE06AC1421D9
:1032100004F10800FDF734F800200025FDF7DAFE80
:103220000220032655211390CDE91100CDE90D06AA
:103230004FF4803010910621079001200F910690E5
:103240002046FEF74DF908B1FDF716F90F20CDE93C
:103250000455CDE902650421019001A8FEF704F8A8
:1032600008B1FDF709F914B070BD0000024801680B
:1032700041F470010160704788ED00E070B5A74A25
:103280000368904225D0B0F1804F08D0264CA04270
:1032900005D0264CA04202D0254CA04203D14C6858
:1032A00023F070032343B0F1804F16D01E4CA04290
:1032B00013D01F4CA04210D01C4CA0420DD01D4C6E
:1032C000A0420AD01C4CA04207D01C4CA04204D003
:1032D00007E04C6823F070032343CC6823F4407369
:1032E00023434E6923F080030C688D68334390427A
:1032F0000360C56284620BD0894A02444FEAB2225D
:10330000052A07D8012303FA02F212F0390F01D07F
:1033100009690163012141610169C90703D001699C
:1033200021F00101016170BD000400400034014042
:1033300000080040004001400048014000440140B6
:10334000F0B5026A036A764E23F0010322F002020E
:1033500003628B68D1F800C04568D0F818E01343C9
:10336000F24A904209D087194FEAB727052F0FD8A4
:103370000124BC4014F0390F0AD0CC6823F00C03B0
:1033800024F004042343904209D082194FEAB22763
:10339000052F0AD80122BA4012F0390F05D025F4C2
:1033A0004072D1E90545224315433E4A456002EA91
:1033B0000E0242EA0C028261496841630362F0BD79
:1033C000F0B5036A026AD94E22F0100223F02003FE
:1033D000FFF7EBFC43EA0413846903D006F50067AA
:1033E000B84209D1CF686FF0400223F0C00302EA6F
:1033F00007121343B0420AD0494A02444FEAB226A8
:10340000052E0BD80122B24012F0390F06D025F458
:103410004062D1E90556354342EA8505414A456097
:10342000224042EA0C228261496881630362F0BD56
:10343000F0B5036A026ABD4E22F4807223F4007371
:10344000FFF7B3FC43EA0423C46903D006F5006721
:10345000B8420AD1CF6840F2FF4223F440633F02F2
:1034600027EA02021343B0420AD02D4A02444FEA2F
:10347000B226052E0BD80122B24012F0390F06D029
:1034800025F44052D1E90556354342EA0515054A6F
:103490004560224042EA0C02C2614968C16303628E
:1034A000F0BD00BF8CFFFEFFF0B5036A026A9F4EBD
:1034B00022F4805223F40053FFF777FC43EA0433ED
:1034C000C46903D006F50067B8420AD1CF6844F654
:1034D000FF7223F440433F0327EA02021343B04242
:1034E0000AD00F4A02444FEAB226052E0BD8012219
:1034F000B24012F0390F06D025F44042D1E905560A
:10350000354342EA8515074A4560224042EA0C22CB
:10351000C261496801640362F0BD00BF002C014034
:1035200000CCFEBFFF8CFFFEF0B5D0F820C0036AD0
:1035300023F480330362264B46680C6803444FEA49
:10354000B3278B68056D072F09D80122BA4012F006
:10355000E50F1EBF4A6926F4803646EA0226064A6F
:1035600046602A4022430265496881642CF4003198
:1035700041EA03410162F0BD8FFFFEFFF0B5D0F8D4
:1035800020C0036A23F480130362114B46680C6861
:1035900003444FEAB3278B68056D072F09D8012232
:1035A000BA4012F0E50F1EBF4A6926F4802646EAAB
:1035B0008226084A46602A4042EA04220265496897
:1035C000C1642CF4001141EA03510162F0BD00BF57
:1035D00000D4FEBFFF8FFFFE70B5D1E900322D4C45
:1035E0002D4E02EA04050468A068304028431843C1
:1035F000A0600020002A44D0102A42D0202A40D0C7
:10360000302A3ED0402A20D0502A3BD0602A30D0E9
:10361000224B9A4235D0B2F1101F32D0204B9A4241
:103620002FD0204B9A422CD01F4B9A4229D0702A7F
:1036300026D1D1E902020969104340EA0120A168BC
:1036400021F47F410843A06022E00120052B18D01F
:10365000B3F1011F15D0206A226A22F00102226212
:103660000969A26922F0F00242EA0111A161206217
:103670000EE08B680A692046194600F05DF807E005
:10368000012070BD8B680A692046194600F00EF8CB
:10369000002070BDF8FFFEFF88FFCEFF7000100015
:1036A00020001000300010004000100010B5036A28
:1036B000046A24F001040462846924F0F00444EAFA
:1036C0000212826123F00A021143016210BD000060
:1036D00070B5046A056AB0F1804F25F001050562F6
:1036E00085690ED00F4EB0420BD00F4EB04208D0BD
:1036F0000E4EB04205D00E4EB04202D00D4EB0423A
:103700000CD125F003052A4363F3071201F00A01E7
:10371000826124F00A021144016270BD45F0010289
:10372000F2E700BF0004004000080040002C014008
:10373000004001400034014010B5036A046A24F0DF
:1037400010040462846924F4704444EA0232826101
:1037500023F0A00242EA0111016210BDB0B5046A73
:10376000056A120201F00A0125F0100505624FF208
:10377000FF05AA4363F30F32836923F473431A43AB
:10378000826124F0A00242EA01110162B0BD000092
:10379000416EA9B1B0B502680D4B0E4D9168C1F3F1
:1037A00042615C5C695C9268520FC9009B5CAA5CD8
:1037B000B1FBF4F1D200B2FBF3F2BDE8B04001E09E
:1037C00001220121A0F86810A0F86A20704700BF0C
:1037D000D0530008C853000810B5816A0A0706D5FF
:1037E0000268836B546824F4004423435360CA077F
:1037F00006D00268C36A546824F40034234353603B
:103800008A0706D50268036B546824F48034234386
:1038100053604A0706D50268436B546824F4802439
:1038200023435360CA0606D50268C36B946824F428
:103830008054234393608A0606D50268036C94681B
:1038400024F40054234393604A060FD50268436C66
:10385000546824F480141C43B3F5801F546005D1D0
:10386000836C546824F4C00423435360090606D5CE
:103870000168C06C4A6822F400221043486010BD01
:10388000BCB504460020C4F89000FDF715FB0546C2
:1038900020680168090712D56FF07E404FF40011CF
:1038A000FFF758FA50B1FFF7E4FA20F08000FFF775
:1038B0000FFAF8D103202021882225E02068006833
:1038C000400718D56FF07E404FF48001FFF742FAB1
:1038D00088B1FFF7CEFA20F49070FFF7F9F9F8D12C
:1038E000FFF7E0FA20F00100FFF7F6F9F8D1032026
:1038F00020218C2208E0202000217022C4F88800BA
:10390000C4F88C00E1660020A150002184F88410E6
:10391000BCBD000010B5FFF7E3F9FCD10B4902680C
:1039200052E8022F03680A4043E80224002CF6D133
:10393000C16E012902D1FFF7BBF9FCD12021C0F8EB
:103940008C1000214167C16610BD00BFFEFFFFEF74
:1039500010B50D4C2279A079904205D004F12401D4
:103960000AA0A27100F0BEF904F11000022100F0DB
:1039700013F800B110BD207C617C00EB800001EBEE
:1039800040001038207110BD18000020257320253C
:103990003033750D0A0000000A4601468948642349
:1039A000FEF778BA70B5016804468068724ED4E9B3
:1039B00003230D681843E369354066693043704E50
:1039C00028436E4D18430860486820F44050104367
:1039D0004860A942A0691CBF226A10438A6832402D
:1039E00010438860626AC86A20F00F001043C86202
:1039F000644881421CD0644881420BD063488142B4
:103A000010D0A9420AD0624881420FD1614863A612
:103A1000006811E05F48006800090CE05D4800683C
:103A2000800A08E05B480068800904E0102607E08F
:103A3000584800688008584E00F0030056F820608F
:103A40005A48A94210D00121B3F5004F1AD1082ECF
:103A500000F28A80DFE806F0054759884D8888889B
:103A60005700FDF7F1FC46E00121082E00F27C80B2
:103A7000DFE806F0057A1D7A157A7A7A1B00FDF7E1
:103A8000E3FC0EE0082E00F26F80DFE806F0052F61
:103A9000586D376D6D6D5600FDF7D6FC30E0FDF7C3
:103AA000EBFC00285DD0626A01E04FF40040404921
:103AB00031F812106268B0FBF1F002EB420188426B
:103AC00051D3B0EB023F4ED8010E000210EB520072
:103AD00041F100010023FCF79BFB364AA0F5407141
:103AE00091423CD33FE0FDF7B9FC04E0FDF7B6FCA2
:103AF00006E0FDF7C1FCA0B3626A06E0FDF7BCFC7E
:103B000078B3626A1BE04FF40040294931F8121083
:103B1000B0FBF1F061684A0802EB40004FF6EF722B
:103B2000B0FBF1F0A0F1100191421CD84FF6F071FA
:103B30000140C0F34200084411E04FF400401C492A
:103B400031F812104FF6EF72B0FBF1F0616800EB44
:103B50005100B0FBF1F0A0F11001914203D82168AF
:103B6000C860002100E001210020C4E91D004FF0E1
:103B70000110A066084670BDF369FFCF00800040C9
:103B8000FFF4FF110044004000480040004C00409A
:103B90000038014088100240B853000801000000BE
:103BA0000400000002000000080000000024F400EF
:103BB000A053000800FD0F000A4601460148642397
:103BC000FEF7CDB91C0200202DE9F047DDF820906A
:103BD00082460068984616460F46032509F10104FF
:103BE000C1693940C91BB1FA81F149098E421ED120
:103BF000002CF5D0FDF760F9A0EB0800484517D878
:103C0000B9F1000F14D0DAF8000001684907E7D5D0
:103C1000402FE5D0802FE3D0C16909070BD4C169DB
:103C20000905DDD5032520244FF4006106E00025B9
:103C30002846BDE8F0870125082108240162504686
:103C4000FFF768FE00208AF88400CAF89040EFE78A
:103C5000FEE7E0B5019001A80121FFF7ADFF019853
:103C60008CBD0000FFF7CEFAFEF7AEFDFEF71EFD9D
:103C7000FEF772FDFEF73CFEFEF796FEFEF7EAFE4B
:103C8000FEF722FFFEF760FB6420FDF723F800201B
:103C9000FEF7AEFA4FF6FF70FEF7FCFB0020FEF7D2
:103CA000E1FB0E4C002101222046FEF7BDFC2078EE
:103CB00000210122013020702046FEF7DFFC084879
:103CC0000078FEF79EFCFEF719FAFEF76FFCFEF790
:103CD00055FBFFF73DFEFCF7BBFBF4E718000020A7
:103CE000140000200FB4054B10B503A9044A029834
:103CF00000F02CF810BC5DF814FB0000533C0008E9
:103D0000000000200FB4084B10B504A902AA0398C4
:103D100000F01CF8044602A9002000F048FA2046F2
:103D200010BC5DF814FB0000AF41000802E008C8B9
:103D3000121F08C1002AFAD170477047002001E025
:103D400001C1121F002AFBD1704700002DE9FF4F6F
:103D50008DB00F460546002606E025280BD0DDE98C
:103D60000F1290476D1C761C28780028F5D111B0F1
:103D70003046BDE8F08F0024A246A1460122EC495E
:103D800000E0044315F8013F203B02FA03F008422B
:103D9000F7D128782A2810D06FF02F022878A0F1C8
:103DA0003001092914D80AEB8A0102EB410144F0E1
:103DB000020400EB010A6D1CF0E701CF5FEA000A84
:103DC00003D544F40054CAF1000A44F002046D1C07
:103DD00028782E2817D115F8010F44F004042A285A
:103DE0000ED06FF02F022878A0F1300109290AD8EF
:103DF00009EB890102EB410100EB01096D1CF2E7BF
:103E000057F8049B6D1C28786C280FD006DC4C28D2
:103E100017D068280DD06A2814D104E0742810D077
:103E20007A280FD10DE044F400140AE044F4801421
:103E300001E044F440146978814202D104F5801411
:103E40006D1C6D1C2A786E2A1FD00CDC632A31D0C1
:103E500004DC002A8BD0582A11D1A3E0642A68D050
:103E6000692A0CD165E0732A2ED004DC6F2A73D046
:103E7000702A04D19BE0752A6FD0782A6ED0104644
:103E8000DDE90F129047761C50E1C4F3025002287E
:103E900006D0032809D0042801CF09D0066045E1E7
:103EA00001CFF117C0E9006140E101CF06803DE19B
:103EB00006703BE117F8040B8DF8000000208DF828
:103EC0000100EB46012003E057F804BB4FF0FF3040
:103ED00061074FF0000102D40DE008F101018846AE
:103EE00049450FDA8045F8DB1BF808100029F4D1AA
:103EF00008E008F1010188468142FADB1BF808104E
:103F00000029F6D1DDE90F23AAEB080081462146FE
:103F100000F036F9304400EB080604E0DDE90F124A
:103F20001BF8010B9047B8F10108F7D2214648462B
:103F3000F7E00A21C4F302534FF0000B0891022B63
:103F400004D001CFC117032B09D00AE0FF1D27F0D1
:103F50000707F7E8020108E032E01FE020E000B2C6
:103F6000C117042B01D140B2C117031E71F1000328
:103F700007DA4FF0000CD0EB0C006CEB01012D23A5
:103F800002E0230504D52B238DF82430012303E020
:103F9000E30701D02023F7E7984658E00A2110E014
:103FA00010210EE010204FF0000B08900CE01021C3
:103FB0004FF0000B44F004044FF00809089103E0AF
:103FC00008214FF0000B0891C4F30253022B04D0D8
:103FD00001CF0021032B06D006E0FF1D27F00707C5
:103FE000F7E8020103E080B2042B00D1C0B24FF029
:103FF000000823072BD5702A07D0DDF820C08CF0ED
:10400000100C5CEA0B0C05D00EE040238DF8243038
:10401000012308E050EA010306D030238DF8243054
:104020008DF8252002239846DDF820C08CF0080C7E
:104030005CEA0B0C0BD150EA010301D1630706D5F2
:1040400030238DF824304FF00108A9F10109582AD6
:1040500004D038A20B9208AA0A920BE03AA2F9E720
:104060005B46089AFCF7D4F80B9B9B5C0A9A521E9D
:104070000A92137050EA0102F2D10A98ADEB0000E7
:1040800000F1200B600702D524F4803401E04FF0EA
:104090000109D94502DDA9EB0B0000E0002000EB8F
:1040A0000B0141440890AAEB010AE00306D4DDE9C4
:1040B0000F232146504600F063F806444FF00009F4
:1040C00008E009A911F80900DDE90F12904709F18C
:1040D0000109761CC145F4DBE0030CD5DDE90F23B3
:1040E0002146504600F04CF8064404E0DDE90F128A
:1040F00030209047761C0899481E08900029F5DC6E
:1041000008E00A980A990078491C0A91DDE90F1223
:104110009047761CBBF10001ABF1010BF1DC2146AD
:104120005046DDE90F2300F019F806446D1C1BE62C
:10413000092801003031323334353637383961627D
:104140006364656600000000303132333435363741
:104150003839414243444546000000002DE9F04112
:10416000044600251E461746880404D405E0394657
:104170002020B0476D1C641EF9D52846BDE8F081AB
:104180002DE9F041044600251E469046C80301D59E
:10419000302700E02027880404D505E04146384652
:1041A000B0476D1C641EF9D52846BDE8F0810A6849
:1041B000531C0B60107070470000000000000000EE
:1041C00001020304060708090000000001020304BD
:1041D00000000000000000000000000000000000DF
:1041E00000000000000000000000000000000000CF
:1041F00000000000000000000000000000000000BF
:104200000000800180018001800180018001800127
:104210008001800180018001800180010000000098
:10422000800180010000000000000000000000008C
:1042300000000000CC00CC00CC00CC00CC00CC00B6
:10424000000000000000000000000000000000006E
:10425000000000000000000000000000000000005E
:10426000000000000000000000000000600C600C76
:10427000600C30063006FE1FFE1F3006380718039C
:10428000FE1FFE1F180318038C018C018C01000017
:1042900000008000E003F80F9C0E8C1C8C188C0032
:1042A0009800F801E007800E801C8C188C189C1870
:1042B000B80CF00FE0038000800000000000000058
:1042C0000000000000000E181B0C110C1106110656
:1042D000110311039B018E01C038C06C604460441F
:1042E000304430441844186C0C38000000000000C2
:1042F0000000E001F0033807180618063003F0014B
:10430000F000F8009C310E33061E061C061C063F0A
:10431000FC73F0210000000000000000000000001D
:10432000000000000C000C000C000C000C000C0045
:10433000000000000000000000000000000000007D
:10434000000000000000000000000000000000006D
:104350000000000200038001C000C0006000600097
:1043600030003000300030003000300030003000CD
:1043700060006000C000C000800100030002000077
:10438000000020006000C0008001800100030003E5
:1043900000060006000600060006000600060006ED
:1043A0000003000380018001C000600020000000C5
:1043B000000000000000000000000000C000C0007D
:1043C000D806F807E00130033807000000000000BD
:1043D00000000000000000000000000000000000DD
:1043E00000000000000000000000000080018001CB
:1043F000800180018001FC3FFC3F80018001800141
:1044000080018001000000000000000000000000AA
:10441000000000000000000000000000000000009C
:10442000000000000000000000000000000000008C
:1044300000008001800100010001800000000000F8
:10444000000000000000000000000000000000006C
:104450000000000000000000E007E007000000008E
:10446000000000000000000000000000000000004C
:10447000000000000000000000000000000000003C
:10448000000000000000000000000000000000002C
:104490000000C000C000000000000000000000009C
:1044A0000000000C000C00060006000600030003DC
:1044B00000038003800180018001C000C000C000B3
:1044C000600060000000000000000000000000002C
:1044D0000000E003F007380E180C0C180C180C182C
:1044E0000C180C180C180C180C180C18180C380E8A
:1044F000F007E003000000000000000000000000E2
:10450000000000018001C001F001980188018001D4
:104510008001800180018001800180018001800193
:104520008001800100000000000000000000000089
:104530000000E003F80F180C0C180C1800180018F5
:10454000000C000600038001C0006000300018006D
:10455000FC1FFC1F00000000000000000000000025
:104560000000E001F807180E0C0C0C0C000C000603
:10457000C003C007000C001800180C180C18180C09
:10458000F807E00300000000000000000000000049
:104590000000000C000E000F000F800DC00C600C1E
:1045A000600C300C180C0C0CFC3FFC3F000C000C99
:1045B000000C000C000000000000000000000000E3
:1045C0000000F80FF80F180018000C00EC03FC07AF
:1045D0001C0E001C0018001800180C181C0C180EDB
:1045E000F807E003000000000000000000000000E9
:1045F0000000C007F00F381C181818000C00CC037E
:10460000EC0F3C0E1C1C0C180C180C18181C380E47
:10461000F007E003000000000000000000000000C0
:104620000000FC1FFC1F000C0006000600038003B6
:104630008001C001C000E000600060007000300038
:10464000300030000000000000000000000000000A
:104650000000E003F007380E180C180C180C380690
:10466000F007F007180C0C180C180C180C18380C64
:10467000F80FE00300000000000000000000000050
:104680000000E003F007380E1C0C0C180C180C1876
:104690001C1C381EF81BE0190018000C000C1C0E26
:1046A000F807F0010000000000000000000000001A
:1046B00000000000000000000000000080018001F8
:1046C00000000000000000000000000000000000EA
:1046D00080018001000000000000000000000000D8
:1046E00000000000000000000000000080018001C8
:1046F00000000000000000000000000000000000BA
:104700008001800100010001800000000000000025
:104710000000000000000000000000000000000099
:104720000010001C800FE003F8001800F800E00300
:10473000800F001C001000000000000000000000BE
:104740000000000000000000000000000000000069
:10475000F81F000000000000F81F0000000000002B
:104760000000000000000000000000000000000049
:104770000000000000000000000000000000000039
:1047800008003800F001C007001F0018001FC00714
:10479000F0013800080000000000000000000000E8
:1047A0000000E003F80F180C0C180C180018000C8F
:1047B000000600038001C000C000C000000000002F
:1047C000C000C00000000000000000000000000069
:1047D00000000000E00718180420C229224A1144F2
:1047E00009440944094409221113E20C024004203F
:1047F0001818E007000000000000000000000000A2
:10480000000080038003C006C006C006600C600C78
:10481000301830183018F83FF83F1C700C600C60EE
:1048200006C006C0000000000000000000000000FC
:104830000000FC03FC0F0C0C0C180C180C180C0CD2
:10484000FC07FC0F0C180C300C300C300C300C1822
:10485000FC1FFC070000000000000000000000003A
:104860000000C007F01F38381C300C7006600600CE
:104870000600060006000600060006600C701C30EC
:10488000F01FE00700000000000000000000000032
:104890000000FE03FE0F060E06180618063006304E
:1048A0000630063006300630063006180618060EAA
:1048B000FE0FFE03000000000000000000000000EA
:1048C0000000FC3FFC3F0C000C000C000C000C0036
:1048D000FC1FFC1F0C000C000C000C000C000C005A
:1048E000FC3FFC3F00000000000000000000000052
:1048F0000000F83FF83F18001800180018001800D2
:10490000F81FF81F180018001800180018001800E9
:104910001800180000000000000000000000000067
:104920000000E00FF83F3C780E6006E007C003008F
:10493000030003FE03FE03C007C006C00EC03CF028
:10494000F83FE00F00000000000000000000000041
:1049500000000C300C300C300C300C300C300C30B3
:10496000FC3FFC3F0C300C300C300C300C300C3069
:104970000C300C30000000000000000000000000BF
:1049800000008001800180018001800180018001A0
:10499000800180018001800180018001800180010F
:1049A0008001800100000000000000000000000005
:1049B00000000006000600060006000600060006CD
:1049C000000600060006000600061806180638074E
:1049D000F003E00100000000000000000000000003
:1049E000000006300618060C060606038601C600FF
:1049F00066007600DE008E0106030606060C061829
:104A0000063006600000000000000000000000000A
:104A100000001800180018001800180018001800EE
:104A200018001800180018001800180018001800C6
:104A3000F81FF81F00000000000000000000000048
:104A400000000EE01EF01EF01EF036D836D836D824
:104A500036D866CC66CC66CCC6C6C6C6C6C6C6C682
:104A600086C386C3000000000000000000000000B4
:104A700000000C301C303C303C306C306C30CC30A2
:104A8000CC308C310C330C330C360C360C3C0C3CDB
:104A90000C380C3000000000000000000000000096
:104AA0000000E007F81F1C380E70066003C003C04A
:104AB00003C003C003C003C003C006600E701C38EF
:104AC000F81FE007000000000000000000000000E8
:104AD0000000FC0FFC1F0C380C300C300C300C307C
:104AE0000C18FC1FFC070C000C000C000C000C0048
:104AF0000C000C000000000000000000000000009E
:104B00000000E007F81F1C380E70066003E003C0C9
:104B100003C003C003C003C007E006630E3F1C3C94
:104B2000F83FE0F700C000000000000000000000B7
:104B30000000FE0FFE1F063806300630063006382D
:104B4000FE1FFE0706030606060C061806180630AA
:104B500006300660000000000000000000000000B9
:104B60000000E003F80F1C0C0C180C180C001C00C3
:104B7000F803E00F001E0038063006300E301C1C13
:104B8000F80FE00700000000000000000000000037
:104B90000000FE7FFE7F8001800180018001800196
:104BA00080018001800180018001800180018001FD
:104BB00080018001000000000000000000000000F3
:104BC00000000C300C300C300C300C300C300C3041
:104BD0000C300C300C300C300C300C300C30181801
:104BE000F81FE007000000000000000000000000C7
:104BF000000003600630063006300C180C180C1844
:104C0000180C180C380E300630067007600360036D
:104C1000C001C00100000000000000000000000012
:104C200000000360C361C361C361663366336633EA
:104C30006633663366336C1B6C1B6C1B2C1A3C1E74
:104C4000380E380E000000000000000000000000D8
:104C500000000FE00C7018303018700C600EC007A8
:104C600080038003C003E006700C301C18180C3061
:104C70000E6007E0000000000000000000000000DF
:104C8000000003C006600C301C383818300C600679
:104C9000E007C00380018001800180018001800164
:104CA0008001800100000000000000000000000002
:104CB0000000FC7FFC7F006000300018000C000644
:104CC00000038001C0006000300018000C000600E6
:104CD000FE7FFE7F000000000000000000000000DA
:104CE0000000E003E003600060006000600060001E
:104CF00060006000600060006000600060006000B4
:104D000060006000600060006000E003E0030000FD
:104D1000000030003000600060006000C000C00093
:104D2000C000C00180018001800100030003000376
:104D30000006000600000000000000000000000067
:104D40000000E003E003000300030003000300038E
:104D5000000300030003000300030003000300033B
:104D600000030003000300030003E003E00300006E
:104D700000000000C001C001600360036003300652
:104D80003006180C180C00000000000000000000A5
:104D90000000000000000000000000000000000013
:104DA0000000000000000000000000000000000003
:104DB00000000000000000000000000000000000F3
:104DC0000000FFFFFFFF00000000000000000000E7
:104DD00000000C000C000C000C000C000C0000008B
:104DE00000000000000000000000000000000000C3
:104DF00000000000000000000000000000000000B3
:104E0000000000000000000000000000F003F807B0
:104E10001C0C0C0C000FF00FF80C0C0C0C0C1C0FE5
:104E2000F80FF01800000000000000000000000073
:104E3000000018001800180018001800D803F80F18
:104E4000380C181818181818181818181818380CBA
:104E5000F80FD80300000000000000000000000070
:104E6000000000000000000000000000C003F00788
:104E7000300E180C1800180018001800180C300E0E
:104E8000F007C00300000000000000000000000068
:104E9000000000180018001800180018C01BF01FB0
:104EA000301C181818181818181818181818301C4A
:104EB000F01FC01B00000000000000000000000008
:104EC000000000000000000000000000C003F00F20
:104ED000300C1818F81FF81F180018003818301C6C
:104EE000F00FC007000000000000000000000000FC
:104EF0000000800FC00FC000C000C000F007F00726
:104F0000C000C000C000C000C000C000C000C000A1
:104F1000C000C00000000000000000000000000011
:104F2000000000000000000000000000E00DF80F8D
:104F3000180E0C0C0C0C0C0C0C0C0C0C0C0C180E95
:104F4000F80FE00D000C0C0C1C06F807F001000037
:104F5000000018001800180018001800D807F80FF3
:104F6000381C18181818181818181818181818189D
:104F700018181818000000000000000000000000D1
:104F80000000C000C000000000000000C000C00021
:104F9000C000C000C000C000C000C000C000C00011
:104FA000C000C00000000000000000000000000081
:104FB0000000C000C000000000000000C000C000F1
:104FC000C000C000C000C000C000C000C000C000E1
:104FD000C000C000C000C000C000F80078000000A1
:104FE00000000C000C000C000C000C000C0C0C065B
:104FF0000C038C01CC006C00FC009C018C030C03A6
:105000000C060C0C00000000000000000000000076
:105010000000C000C000C000C000C000C000C00050
:10502000C000C000C000C000C000C000C000C00080
:10503000C000C000000000000000000000000000F0
:105040000000000000000000000000007C3CFF7E2B
:10505000C7E383C183C183C183C183C183C183C1CA
:1050600083C183C1000000000000000000000000B8
:105070000000000000000000000000009807F80F8A
:10508000381C18181818181818181818181818187C
:1050900018181818000000000000000000000000B0
:1050A000000000000000000000000000C003F00F3E
:1050B000300C181818181818181818181818300C58
:1050C000F00FC0030000000000000000000000001E
:1050D000000000000000000000000000D803F80FEE
:1050E000380C181818181818181818181818380C18
:1050F000F80FD80318001800180018001800000056
:10510000000000000000000000000000C01BF01FB5
:10511000301C181818181818181818181818301CD7
:10512000F01FC01B0018001800180018001800001D
:10513000000000000000000000000000B007F003C5
:10514000700030003000300030003000300030009F
:1051500030003000000000000000000000000000EF
:10516000000000000000000000000000E003F00369
:10517000380E180C3800F003C007000C180C380E5D
:10518000F007E00300000000000000000000000045
:10519000000000008000C000C000C000F007F00761
:1051A000C000C000C000C000C000C000C000C000FF
:1051B000C0078007000000000000000000000000A1
:1051C000000000000000000000000000181818187F
:1051D0001818181818181818181818181818381C2B
:1051E000F01FE019000000000000000000000000B7
:1051F0000000000000000000000000000C18180C67
:10520000180C180C3006300630066003600360038B
:10521000C001C0010000000000000000000000000C
:10522000000000000000000000000000C141C1417A
:10523000C3616363636363633636363636361C1C7C
:105240001C1C1C1C000000000000000000000000EE
:105250000000000000000000000000001C38381CA6
:10526000300C600660036003600360036006300C6E
:10527000381C1C3800000000000000000000000086
:10528000000000000000000000000000183030188E
:1052900030187018600C600CE00CC006C00680036B
:1052A0008003800380018001C001F00070000000D5
:1052B000000000000000000000000000FC1FFC1FB8
:1052C000000C000600038001C000600030001800E0
:1052D000FC1FFC1F00000000000000000000000098
:1052E000000000038001C000C000C000C000C0007A
:1052F000C00060006000300060004000C000C000DE
:10530000C000C000C000C000800100030000000019
:105310000000800180018001800180018001800106
:105320008001800180018001800180018001800175
:1053300080018001800180018001800180010000E6
:1053400000006000C000C001800180018001800178
:1053500080010003000300060003000180018001BA
:105360008001800180018001C00060000000000019
:10537000000000000000000000000000000000002D
:10538000F010F81F080F00000000000000000000EF
:10539000000000000000000000000000000000000D
:1053A000010002000400060008000A000C001000C2
:1053B0002000400080000001000000000400000008
:1053C00002000000080000000101010307010000C5
:1053D0000804020408010101F8530008000000203D
:1053E000180000002C3D0008105400081800002090
:1053F000A00600003C3D0008000000001000000076
:1054000001000000FFFF00000024F4000F00000076
:04000005080001D915
:00000001FF
