:020000040800F2
:10000000C8080020A5020008712D00081927000863
:100010006D2D00089D040008B9380008000000009C
:10002000000000000000000000000000792D000822
:10003000A104000800000000752D00087D2D0008B7
:10004000BF020008BF020008BF020008BF0200088C
:10005000BF020008BF020008BF020008BF0200087C
:10006000BF020008BF020008BF020008BF0200086C
:10007000BF020008BF020008BF020008BF0200085C
:10008000BF02000800000000BF020008BF02000815
:10009000BF020008BF020008BF020008BF0200083C
:1000A000BF020008BF020008BF020008BF0200082C
:1000B000BF020008BF020008BF020008BF0200081C
:1000C000BF020008BF020008BF020008BF0200080C
:1000D000BF020008BF020008BF020008BF020008FC
:1000E000BF020008BF020008BF020008BF020008EC
:1000F000BF020008BF020008BF02000800000000A5
:1001000000000000BF02000800000000BF0200085D
:10011000BF02000800000000BF020008BF02000884
:10012000BF020008BF020008BF020008BF020008AB
:10013000BF0200080000000000000000BF0200082D
:10014000BF020008BF02000800000000000000001D
:10015000000000000000000000000000000000009F
:10016000000000000000000000000000BF020008C6
:10017000BF020008000000000000000000000000B6
:1001800000000000BF0200080000000000000000A6
:10019000000000000000000000000000000000005F
:1001A0000000000000000000BF020008BF020008BD
:1001B000BF020008BF020008BF02000800000000E4
:1001C00000000000BF020008000000000000000066
:1001D000BF020008BF02000800F002F800F052F869
:1001E00014A696E8000CB244B344DA4501D100F0FD
:1001F00049F8BAE80F000FA696E83000A5EB040511
:1002000004EB0607AAEB0704A7F101074FEA15154F
:100210004FEA3414A4F10104AC4201D300F032F8E7
:1002200013F0010F18BFFB1A43F0010300F001F8AF
:10023000DBE718471437000034370000103A24BFBA
:1002400078C878C1FAD8520724BF30C830C144BF3B
:1002500004680C6070470000704700000023002411
:1002600000250026103A28BF78C1FBD8520728BFC6
:1002700030C148BF0B6070471FB503F030FB1FBD96
:1002800010B510BD00F0D0F81146FFF7F5FF03F0F0
:1002900015FB00F0EEF803B4FFF7F2FF03BC00F02B
:1002A000F5F800000948804709480047FEE7FEE7E7
:1002B000FEE7FEE7FEE7FEE7FEE7FEE7FEE7FEE716
:1002C00004480549054A064B70470000E92D00081F
:1002D000D9010008C8020020C8080020C804002076
:1002E000C804002053EA020C00F069802DE9F04BAD
:1002F0004FF00006002B1FBFB3FA83F503FA05F495
:1003000024FA05F65E4012BF1643B2FA82F502FAED
:1003100005F4C5F120051EBF22FA05FC44EA0C04D1
:10032000203556EA044C4FEA144418BF641C4FF0C1
:1003300000084FF00009904271EB030C39D30029FB
:1003400019BFB1FA81F701FA07F6B0FA80F700FA9F
:1003500007F6C7F120071EBF20FA07FC46EA0C0685
:100360002037B6FBF4FCA7EB0507103F07F01F0B87
:10037000CBF120062CFA06F60CFA0BFB44BFB34671
:100380000026202FA4BF5E464FF0000B5BEA060C50
:1003900008BF4FF0010B19EB0B0948EB0608ABFB4C
:1003A000027C06FB02CC0BFB03CCC01B71EB0C01E7
:1003B000C1E70B46024641464846BDE8F08B13B5FF
:1003C000084318BF4FF0FF300146AFF30080BDE88F
:1003D0001C4070474FF0000200B513469446964605
:1003E000203922BFA0E80C50A0E80C50B1F1200148
:1003F000BFF4F7AF090728BFA0E80C5048BF0CC0F6
:100400005DF804EB890028BF40F8042B08BF704753
:1004100048BF20F8022B11F0804F18BF00F8012BC5
:100420007047704770477047754600F02BF8AE462E
:1004300005006946534620F00700854618B020B5F0
:10044000FFF73EFFBDE820404FF000064FF00007E9
:100450004FF000084FF0000BAC46ACE8C009ACE828
:10046000C009ACE8C009ACE8C00921F007018D461D
:10047000704710B50446AFF300802046BDE8104039
:10048000FFF709BF004870471000002001491820FD
:10049000ABBEFEE72600020070470000FEE700004A
:1004A00070470000EFF3108072B600BFFEE7000057
:1004B00090F85820012A04BF02207047B0B582B0DE
:1004C0000022019200920368B3F1A04F30D140F2B4
:1004D00008344FF6006EC5F20004CFF6FF7E54F8E4
:1004E0000E209B681A43520722D4D1F800C022681C
:1004F000BCF1000F22F4604328D04A6890F83850CD
:1005000042EA45321A4322604FF60052CFF6FF729C
:10051000A25854F80E301A43D20727D1226840F669
:100520001F7389689A43114341EA0C011DE000BF23
:10053000C16D41F02001C1650121002280F85820E1
:1005400002B0BDE8B0400846704700BF4FF600510A
:100550002360CFF6FF71615854F80E201143C9078C
:1005600004D1216840F61F72914321600021E4E725
:10057000F0B581B00022009290F85820012A03D1F2
:100580000221084601B0F0BD0123076880F8583009
:10059000BB685B0734D4D1E900351F26C5F30124BD
:1005A00007EB8404226B05F01F05AE40C3F38463A0
:1005B000B243AB401A432263BA68BB6802F004023C
:1005C00003F00803D21840F0BC800A6807F1140356
:1005D0000426C2F34064D1F808E006EAD25C53F87E
:1005E0002440C2F304550722AA40BEF1004F24EA7A
:1005F00002040BD143F80C401A6842F000430DE0AE
:10060000C16D41F02001C165012178E10EFA05F2CA
:10061000224343F80C201A6822F000437B61D1E9A1
:100620000435FC68042B5FD13A6E3A6E0B68C2F356
:10063000846293FAA3F6C3F3846C6FF3DF43B6FAD4
:1006400086F5002B2C464FF6FF7E08BF6446A2427B
:10065000C0F2070E0CD13A6E22F000423A660A68E8
:1006600002EA0E03C2F3846C92FAA2F2B2FA82F5A5
:100670007A6E7A6E002BC2F384622C4608BF644601
:10068000A2420CD17A6E22F000427A660A6802EA2F
:100690000E03C2F3846C92FAA2F2B2FA82F5BA6E39
:1006A000BA6E002BC2F384622C4608BF6446A24295
:1006B0000CD1BA6E22F00042BA660A6802EA0E0352
:1006C000C2F3846C92FAA2F2B2FA82F5FA6EFA6E72
:1006D000002BC2F3846208BF6546AA4231D1FA6E8C
:1006E00022F00042FA662CE0062202EA940205FAA1
:1006F00002FC0E6807F1600555F823404FF2000236
:10070000C0F2FF3206F0F846224046EA0C063243B9
:1007100042F0004245F823200A698B6955F82260AF
:1007200026F08076334345F822300A690B7F55F86E
:100730002260012B26F0007608BF06F1007645F80E
:100740002260BA680D68D20750D1CA68D7F8B06085
:100750002B466FF3DF4326EA030C4FF6FF7602F0D9
:100760001804C0F20706E64000242E40C4F27F04BD
:1007700046EA0C06A242C7F8B06037D193B195FAA9
:10078000A5F2B2FA82F2013202F01E03092B02F046
:100790001F0310D801229A4003EB430342EA03539C
:1007A00015E000BF012202EB956202F01E030A2B46
:1007B00002F01F03EED3012200269A4003EB43030D
:1007C000CFF6206606EB03531A4342F00073C3F3DF
:1007D000406607EB86068A687569C3F304530724ED
:1007E0009C40A5439A402A4372610D680021C8F2DB
:1007F00008010D4200F0828040F2083CC5F2000C76
:10080000DCF800400021CCF221318D4204F0E07E82
:1008100004D01021C9F2C0018D4241D1B7F1A04FDF
:100820004FF0000108BF14F4000268D1DCF800109A
:1008300042F6635221F0E07141EA0E0141F40001F9
:10084000CCF8001040F20801C2F200010968C0F2C1
:100850003E528909A1FB0212910901EB41010C22D0
:1008600002EB810100910099002947D000990139DC
:1008700000910099002941D0009901390091009917
:10088000E1B30099013900910099B9B30099013998
:100890000091009900294FF00001E7D12FE000BF3F
:1008A0000021CCF252718D4210D10021B1EB1E6FAC
:1008B0000CD1ACF502718F4220D0DCF8001021F091
:1008C000E07141EA0E0141F0807115E0ACF5027172
:1008D0008F424FF0000112D00022CCF684329542B4
:1008E00008BF14F480020AD1DCF8001021F0E07196
:1008F00041EA0E0141F48001CCF8001000210022F1
:1009000080F85820084601B0F0BD0000B0B582B0B4
:1009100000210028019155D0C16D39B9044600F07D
:1009200009F920460021216684F858100268916870
:1009300089004FF6C071C5F6FF7102D593680B4070
:1009400093609368DB002ED4936801F180511940C5
:1009500041F08051916040F20801C2F20001096843
:1009600042F663538909C0F23E53A1FB0313990970
:10097000022303EB410101910199A1B101990139D0
:100980000191019979B1019901390191019951B10F
:10099000019901390191019929B101990139019117
:1009A00001990029EAD19168C90011D4C16D4FF0B5
:1009B000010E41F01001C165016E41F001010166B7
:1009C00008E000BF4FF0010E704602B0B0BD00BF9E
:1009D0004FF0000E9368C46D03F0040304F010049C
:1009E0001B19C36D68D123F481730233C365936807
:1009F000DB071AD140F2083C4FF600544FF6006373
:100A0000C5F2000CCFF6FF74CFF6FF735CF804401C
:100A10005CF803302343DB0707D14368DCF8004070
:100A200024F47C142343CCF80030437FC46BD0E91A
:100A300002C144EA4333194390F8243041EA0C01DF
:100A4000012B41EA034306D1816A0024CFF6FE74EC
:100A500004EB41410B43C46A24B1016B04F4787484
:100A600021430B43D16844F20704CFF6F0742140D0
:100A70001943D1601169436B21F040611943116141
:100A80009168090743D490F83810037F490041EA80
:100A90008331D36844F20204A3431943D16003694C
:100AA00014698BB144F480311161D2F8C01043F65F
:100AB000FF74A1430B4310E043F010024FF0010E0E
:100AC000C265704602B0B0BD24F480311161D2F825
:100AD000C01043F6FF7321EA0303C2F8C03090F858
:100AE0004010136901290FD140F2FD7123EA010C76
:100AF000D0E91134D0E9131543EA0C032343194319
:100B0000294341F0010301E023F00103136141692E
:100B1000136B012923F00F0302D1016A01390B4342
:100B20001363C26D012161F30102C265704602B018
:100B3000B0BD000010B598B0044600201790CDE974
:100B40001500CDE9130002A84421FFF743FC2068FB
:100B500040F20011C5F20001884231D0B0F1A04F3F
:100B600067D14FF4004002904FF00050119002A85E
:100B700000F076FA002818BFFFF794FC40F27001ED
:100B8000C2F200010A6841F24C00C4F20200531C98
:100B90000B6042B9016841F400510160016801F441
:100BA000005101910199016841F002010160006862
:100BB00000F00200019001984FF4A0402DE000BF2A
:100BC0004FF4004002904FF00050119002A800F046
:100BD00047FA002818BFFFF765FC40F27001C2F227
:100BE00000010A6841F24C00C4F20200531C0B6081
:100BF00042B9016841F400510160016801F40051FB
:100C000001910199016841F002010160006800F062
:100C10000200019001984FF40040139003201490BB
:100C20000020159040F20040C4F6000013A900F027
:100C300003F818B010BD00002DE9F04F83B00E6826
:100C4000002E00F0CF8000F1200241F2004C009213
:100C500000F13847C4F6000C06224FEAB72560457C
:100C600008BF0522052D38BF4FEAB722002500270F
:100C70004FF0000801920AE00E6808F1010836FA08
:100C800008F207F1020705F1040500F0AB8001222C
:100C900002FA08FE16EA0E09EED0D1F804C00322CB
:100CA0000CF0030BABF1010602FA07F4012E6FEA18
:100CB000040A11D88468CE6804EA0A04BE403443AA
:100CC0008460446824EA0E06CCF3001404FA08F4A5
:100CD0002643466006E000BFBBF1030F02D14FF090
:100CE000030B21E0C6688C6806EA0A06BC4026436E
:100CF000BBF1020FC66017D16FF00302009B02EA3E
:100D0000580605F01C020F2453F806C004FA02FE30
:100D10000C692CEA0E0C04FA02F242EA0C029A5117
:100D2000D1F804C00CF0030B02680BFA07F302EAD7
:100D30000A021A431CF4403F02609DD041F2600356
:100D4000C4F202031A6840F2004E42F001021A6037
:100D50001A68C4F2010E02F001020292029A28F00F
:100D600003024FF6084C7244CFF6FF7C52F80C3069
:100D700005F00C060F24B440A343019C04FA06F6C8
:100D8000334342F80C30DEF808204B6842EA09068B
:100D900040F20C4CDC0258BF22EA0906CEF808608B
:100DA000C4F2010CDCF800209C0242EA090658BF9C
:100DB00022EA0906CCF80060DEF804209C0342EA2F
:100DC000090658BF22EA0906CEF80460DEF80020C2
:100DD000DB0342EA090658BF22EA0906CEF80060A2
:100DE0004AE700BF03B0BDE8F08F00001823002AD7
:100DF00008BF2823C150704740F2C420C2F200004F
:100E00000068704740F2000040F2C421C2F20000C6
:100E1000C2F2000140680A68104408607047000090
:100E200080B5032000F07AF80F2000F009F80028C0
:100E30001CBF012080BD00F02BF8002080BD000009
:100E4000B0B540F20005C2F200056968F1B1044690
:100E500040F20800C2F200004FF47A720068B2FB60
:100E6000F1F1B0FBF1F000F089FE01460F2C4FF0DC
:100E700001000AD8002918BFB0BD4FF0FF3021464D
:100E8000002200F01FF800202C60B0BD0120B0BD92
:100E900082B041F25800C4F20200816841F00101C1
:100EA0008160816801F0010101910199016841F0BF
:100EB00080510160006800F080500090009802B0FE
:100EC00000F0C4B810B54EF60C5CCEF2000CDCF8A5
:100ED0000030C3F3022E8EF00704042C28BF042434
:100EE000BEF103034FF0FF3E0EFA04F438BF0023B7
:100EF000A14399400EFA03F39A43114300F00F0205
:100F000000F160430901043A03F564436244002898
:100F100048BF02F10C03197010BD00004EF60C51D1
:100F2000CEF200010A684FF6FF031A4060F30A226E
:100F300042F0806040F0FD700860704747F2140195
:100F4000C4F2000151F8142CB0F5007F3CD0002809
:100F500074D1C86E02F4C06220F48070B2F5806F64
:100F6000C8662FD151F8140C012262F34A2041F8CF
:100F7000140C40F20800C2F2000000683222504314
:100F80004DF68362C4F21B32A0FB0202900C00BF3C
:100F90000A68520511D5421C0FD00A6852050CD5BB
:100FA00058B10A68520508D5012806D00A685205CA
:100FB00003D50228A0F10400EAD10868400544BF27
:100FC0000320704700207047C86E02F4C06240F4EE
:100FD0008070B2F5806FC866F4D151F8140C01220C
:100FE00062F34A2041F8140C40F20800C2F20000FB
:100FF0000068322250434DF68362C4F21B32A0FBDC
:101000000202900C0A68520511D5421C0FD00A68E2
:1010100052050CD558B10A68520508D5012806D0EA
:101020000A68520503D50228A0F10400EAD1086835
:10103000400544BF03207047C4E700BF022060F3AF
:101040004A2241F8142C00207047000047F20800A3
:10105000C4F20000016841F4804101607047000063
:101060002DE9F04182B00446807841F288060007FD
:10107000C4F2020602D400202FE000BF56F8300C64
:101080005FEAC0080BD456F8300C40F0805046F8A8
:10109000300C56F8300C00F080500190019847F267
:1010A0000007C4F20007386840F480703860FFF72A
:1010B000A3FE05463868C00500F1D680FFF79CFE08
:1010C000401B0228F6D90320B8F1000F05D456F8CA
:1010D000301C21F0805146F8301C2168CA0713D11A
:1010E0008A0719D44A071FD40A0725D48A062BD4A5
:1010F0004A0631D40A0637D4CA053DD48A0543D4FA
:101100004A0549D457E000BF3268636822F0030201
:101110001A4332608A07E5D53268A36822F00C02D0
:101120001A4332604A07DFD53268E36822F03002A2
:101130001A4332600A07D9D53268236922F0C00207
:101140001A4332608A06D3D53268636922F440625A
:101150001A4332604A06CDD53268A36922F4405260
:101160001A4332600A06C7D53268E36922F4404266
:101170001A433260CA05C1D53268236A22F440326C
:101180001A4332608A05BBD53268636A22F4402272
:101190001A4332604A050ED53268A36A22F440121F
:1011A0001A43B3F5801F326005D156F87C2C42F407
:1011B000801246F87C2C0A050ED53268E36A22F4C8
:1011C00040021A43B3F5800F326005D156F87C2CEB
:1011D00042F4801246F87C2CCA040ED53268236B88
:1011E00022F040721A43B3F1807F326005D156F885
:1011F0007C2C42F4801246F87C2C8A040ED532688E
:10120000636B22F040621A43B3F1006F326005D184
:1012100056F87C2C42F4801246F87C2C4A040ED5F9
:101220003268A36B22F040621A43B3F1006F326060
:1012300005D156F87C2C42F4801246F87C2C090427
:101240000ED53168E26B21F040511143B2F1805F5D
:10125000316005D156F87C1C41F4803146F87C1C85
:1012600002B0BDE8F08100BFB06810F4407010D04B
:10127000216C88420BD0B068B16820F4407041F412
:101280008031B160B16821F48031B160B060C007D5
:101290000CD1B068216C20F440700843B06000208D
:1012A000B8F1000F3FF519AF11E700BFFFF7A4FD3C
:1012B000054641F2883700BFB0688007E9D4FFF7E0
:1012C0009BFD401BB842F7D9FDE600002DE9F04731
:1012D000002863D042F2000AC4F2020A0446DAF897
:1012E00000000D4600F00F0081420CD9DAF8000032
:1012F00020F00F002843CAF80000DAF8000000F0E0
:101300000F00A8424AD1216841F20808C807C4F278
:10131000020803D1880740F1D080B5E0606858F832
:10132000082C022838D003283CD1920136D5D8F8B1
:101330000420D8F8043042F20046C3F3031302F04D
:101340000302D8F804700133C0F2F406032A04BF84
:1013500043F20066C0F26E16B6FBF3F2D8F8043022
:10136000C7F306277A43C3F34163022707EB43031E
:10137000B2FBF3F24BF20043C0F2C4439A4259D994
:10138000D8F8002012F0F00F49D0890752D5A16893
:1013900000294FD143E000BF910305D40120BDE8EF
:1013A000F08700BF5105F9D5D8F8001001F00C0105
:1013B00004293FD0D8F8001001F00C01082939D0D9
:1013C000D8F8001001F00C010C2933D1D8F8041022
:1013D000D8F8042042F20047C2F3031201F00301DF
:1013E000D8F804300132C0F2F407032904BF43F2F5
:1013F0000067C0F26E17B7FBF2F1D8F80420C3F310
:1014000006235943C2F34162022303EB4202B1FBBC
:10141000F2F14BF20042C0F2C44291420AD9D8F82C
:101420000010082262F307114FF00109C8F80010FC
:1014300002E000BF4FF00009D8F8001021F00301CE
:101440000843C8F80000FFF7D7FC064641F288378A
:10145000D8F80000616800F00C00B0EB810F07D0F5
:10146000FFF7CAFC801BB842F2D90320BDE8F08721
:101470002168880708D4B9F1000F1ED0D8F8000001
:1014800020F0F00017E000BF480705D5D8F80000AD
:1014900040F4E060C8F80000080706D5D8F800005E
:1014A000072262F30D20C8F80000D8F80000A268F7
:1014B00020F0F0001043C8F80000DAF8000000F057
:1014C0000F0085421BD2DAF8000020F00F002843FD
:1014D000CAF80000FFF790FC064641F2883700BFCB
:1014E000DAF8000000F00F00A84207D0FFF784FCF4
:1014F000801BB842F4D90320BDE8F0872168480773
:1015000007D5D8F80000E26820F4E0601043C8F87E
:101510000000080708D5D8F80000216920F46050C1
:1015200040EAC100C8F80000D8F8000042F20041CB
:10153000C0F2F40100F00C00042808462DD0D8F8C1
:10154000000000F00C00082843F20060C0F26E10AA
:1015500023D0D8F8002002F00C020C2A1CD1D8F8B5
:101560000420D8F8043002F00302C3F30313D8F8C0
:1015700004700133032A08BF0146B1FBF3F0D8F829
:101580000410C7F30627C1F341610222784302EB3E
:101590004101B0FBF1F000E00020D8F8001043F664
:1015A000F802C1F30311C0F60002515C40F20802D8
:1015B00001F01F0120FA01F140F20000C2F2000028
:1015C0000068C2F200021160BDE8F047FFF738BCC6
:1015D00040F2080041F20801C2F20000C4F2020128
:1015E0000068096843F60812C1F30221C0F6000240
:1015F000515C01F01F01C8407047000040F2080034
:1016000041F20801C2F20000C4F202010068096858
:1016100043F60812C1F3C221C0F60002515C01F08A
:101620001F01C8407047000041F20C01C4F20201E2
:1016300051F8040C42F20042C0F2F40200F00C0037
:101640000428104608BF704751F8040C00F00C0045
:10165000082843F20060C0F26E1025D051F8043C17
:1016600003F00C030C2B1CBF0020704780B5D1F891
:1016700000C00B680CF0030CC3F3031E0B680EF1E3
:10168000010EBCF1030F08BF02460968B2FBFEF071
:10169000C3F30623C1F341610222584302EB410127
:1016A000B0FBF1F0BDE8804070470000002804BFA7
:1016B000012070472DE9F04182B00446007841F2E4
:1016C0000006C007C4F202061ED1207880073DD470
:1016D0002078000764D42078400700F187802078C4
:1016E000800600F1D980E569002D00F04282B068E3
:1016F00000F00C000C2840F03181012D40F08E816B
:10170000012002B0BDE8F081B06800F00C01F06883
:10171000082961D0032281F00C0122EA000008446C
:10172000B0FA80F0400957D161683068B1F5803F68
:1017300007D0B1F5A02F40F0E38040F48020306066
:10174000306840F480303060E4E000BFB068F16899
:1017500000F00C00042871D001F0030180F00C00AF
:1017600081F002010844B0FA80F0400966D1E168D6
:101770003068002900F0E08040F480703060FFF7AE
:101780003BFB05463068400500F10A81FFF734FB5A
:10179000401B0228F6D9032002B0BDE8F08100BF4B
:1017A0006169D6F89400002900F0948040F00100AF
:1017B000C6F89400FFF720FB054600BFD6F894005A
:1017C00080073FF588AFFFF717FB401B0228F5D9CC
:1017D000032002B0BDE8F081306880037FF575AF6B
:1017E000606800287FF471AF3EE000BFB06D5FEA33
:1017F000C00808D4B06D40F08050B065B06D00F006
:1018000080500190019847F20007C4F20007386841
:10181000C0052DD4386840F480703860FFF7ECFACA
:10182000054600BF3868C00522D4FFF7E5FA401B23
:101830000228F7D9032002B0BDE8F08130684005E6
:1018400001D5E06880B17068216920F0FE4040EA6F
:101850000160706040F20000C2F200000068FFF713
:10186000EFFA00283FF434AF012002B0BDE8F08168
:10187000A168D6F89000012908D0052940F0AE8073
:1018800040F00400C6F89000D6F8900040F0010047
:10189000C6F89000AEE000BFA169D6F89800002914
:1018A00000F0868040F00100C6F89800FFF7A4FA27
:1018B000054600BFD6F8980080073FF514AFFFF744
:1018C0009BFA401B02284FF00300F3D902B0BDE899
:1018D000F08100BF20F00100C6F89400FFF78CFAF9
:1018E000054600BFD6F8940080077FF5F4AEFFF7F9
:1018F00083FA401B0228F5D9032002B0BDE8F0812D
:1019000020F4803030603068002920F4802030607E
:1019100000F0BE80FFF770FA054600BF3068800314
:101920003FF5D3AEFFF768FA401B6428F6D90320D1
:1019300002B0BDE8F08100BF20F480703060FFF796
:101940005BFA0546306840057FF5C2AEFFF754FAF2
:10195000401B02284FF00300F4D9B7E7306820F0AD
:1019600080703060FFF748FA022D05460CD100BFA9
:101970003068800140F1B880FFF73EFA401B022832
:101980004FF00300F4D9A1E73068800140F1EA800C
:10199000FFF732FA401B02284FF00300F4D995E715
:1019A0007068216920F0FE4040EA016070608FE6B7
:1019B00020F00100C6F89800FFF71EFA054600BFA8
:1019C000D6F8980080077FF58EAEFFF715FA401B1A
:1019D00002284FF00300F3D978E700BF20F00100A0
:1019E000C6F89000D6F89000002920F00400C6F850
:1019F00090005DD0FFF700FA054641F2883700BF3E
:101A0000D6F89000800765D4FFF7F6F9401BB8427E
:101A1000F6D9032002B0BDE8F08100BFF068216A6A
:101A200000F003028A427FF41FAF626A6FF00F0377
:101A300000F0F00103EB021291427FF415AFA16AAE
:101A400000F4FE42B2EB012F7FF40EAFE16A00F02A
:101A50007842B2EBC16F7FF407AF226B0023CFF661
:101A6000E07303EA025200F4C001A2F500129142B1
:101A70007FF4FAAE616B4FF07E4202EA016100F042
:101A8000C06001F17E4188427FF4EEAE71E000BF9C
:101A9000FFF7B2F9054600BF306880037FF515AE49
:101AA000FFF7AAF9401B64284FF00300F4D90DE7B3
:101AB000FFF7A2F9054641F2883700BFD6F890003B
:101AC000800707D5FFF798F9401BB8424FF0030095
:101AD000F4D9FBE6B8F1000F3FF501AEB06D20F090
:101AE0008050B065FBE500BFF06848F20C01C0F221
:101AF0009F1104F1200700EA010C8ECF6FF00F0058
:101B0000D4E90C5400EB02100022CFF6E07241EA57
:101B10000C0102EA05520843A2F500124FF07E457F
:101B200040EA032005EA0465104305F17E4540EADA
:101B3000C7602843F060306840F080703060F06823
:101B400040F08070F060FFF757F90446306880017C
:101B50000FD4FFF751F9001B02284FF00300F5D90D
:101B6000B4E600BFF0684FF6FC71CFF6EE610840B6
:101B7000F060002002B0BDE8F0810000411E0020AE
:101B8000B0EB116F1CBF012070474EF21002CEF275
:101B9000000251604EF62351CEF20001F0230B708B
:101BA000072190601160704790F83C20012A04BF23
:101BB00002207047B0B5D1E90232D1E900CE22F45B
:101BC0007C5223F4705343EA020448F2FF73CEF6CA
:101BD000F0730EEA0302224303F5006404EA0C04E6
:101BE00042EA040C0C6903F5C05222404C6942EAF7
:101BF0000C02224303F5605422400C6B03F5F043C2
:101C000023401A438B6940F2000CCC69CEF6FF7C6E
:101C10000CEA034C1443026843F20043C4F201038C
:101C20009A4244EA0C0305D042F60044C4F201048F
:101C3000A24217D14FF6FF74CDF60F4403EA040E0B
:101C4000D1E9084CD1E90A310025CDF6F04505EA85
:101C5000035343EA0E0324F008552B432CF00055A0
:101C60002B430B430021536480F83C100020B0BD8F
:101C700090F83C20012A4FF002024AD070B580F85B
:101C80003D20026843F2004C54689368C4F2010C92
:101C900042F6004E6245C4F2010E01D0724503D1F6
:101CA0004D6824F470042C434FF68F75CFF6FF5522
:101CB0000E682C4042F6FF35C4F201053443AA42B7
:101CC00054600FDCB2F1804F16D040F20046C4F2EF
:101CD0000006B24210D040F60006C4F20006B2423E
:101CE0000AD00EE0724507D044F20006C4F20106A5
:101CF000B24201D0624504D1896823F080031943C0
:101D000091600121002280F83D1080F83C20BDE860
:101D10007040104670470000002804BF0120704743
:101D200010B5044690F83D0028B9002084F83C0026
:101D3000204600F023F8022084F83D002068211D91
:101D400001F05CF8012084F8480084F83E0084F833
:101D50003F0084F8400084F8410084F8420084F891
:101D6000430084F8440084F8450084F8460084F871
:101D7000470084F83D00002010BD000080B586B00B
:101D800000680021B0F1804F0591CDE90311029167
:101D9000019101D006B080BD41F24C00C4F20200B6
:101DA000C26842F00102C260C26802F00102009201
:101DB000009A026842F001020260006800F001002F
:101DC000009000980220CDE901000120CDE9031127
:101DD000059001A94FF09040FEF72EFF06B080BDA0
:101DE00090F83C30012B04BF022070474FEAB2024A
:101DF000032A00F29180F0B5DFE802F002682A4A77
:101E00000368D1E900C5D1F80CE01C6A1A6A42F6F1
:101E1000FF3722F001021A621A4652F8186FC4F214
:101E20000107BB4200F37E80B3F1804F00F08C804D
:101E300040F20047C4F20007BB4200F0858040F644
:101E40000007C4F20007BB4200F07E8098E000BFAC
:101E50000768D1E900C5D1E902313C6A3A6A61F309
:101E6000071522F480723A623A4652F81C6F26F047
:101E7000F30645EA060124F420660CF00A0546EA5A
:101E8000052611603E62116821F00C0111606CE0C2
:101E90000368D1E900E6D1E902C11C6A1A6A360278
:101EA00022F480521A621A4652F81C5F4FF2FF0762
:101EB000BE4325F4734561F30F3624F420440EF03D
:101EC0000A0746EA050144EA07371CE00368D1E93E
:101ED00000E6D1E902C11C6A1A6A360222F0100239
:101EE0001A621A4652F8185F4FF2FF07BE4325F4F4
:101EF000734561F30F3624F0A0040EF00A0746EA9A
:101F0000050144EA071711601F6211684FEA0C23AC
:101F100021F44061116028E00121002280F83C207A
:101F20000846704742F60047C4F20107BB420BD097
:101F300044F20007C4F20107BB4205D043F2004758
:101F4000C4F20107BB421BD126F00306354324F03F
:101F50000A070CF00A066EF3071537449D611F62ED
:101F60009F6927F00C079F618B6811681943116006
:101F70000021BDE8F040002280F83C200846704770
:101F800046F00105E3E70000002804BF0120704788
:101F900010B5044690F83D0028B9002084F83C00B4
:101FA000204600F023F8022084F83D002068211D1F
:101FB00000F024FF012084F8480084F83E0084F8F3
:101FC0003F0084F8400084F8410084F8420084F81F
:101FD000430084F8440084F8450084F8460084F8FF
:101FE000470084F83D00002010BD0000704700004D
:101FF00090F83C30012B04BF022070474FEAB20238
:10200000052A00F2D3812DE9F041DFE812F0070044
:1020100035018D00E1005100870100BF03681D6A92
:102020001A6AA3F1804622F001021A621A465C681D
:1020300052F818CF8F68A6F59636D1F800E025F053
:1020400002054FEAB626072E45EA07050AD80127FA
:10205000B74017F0E50F1FBFCF6825F00C0527F03C
:1020600004073D43072E0BD8012707FA06F616F0A2
:10207000E50F1FBFD1E9056724F4407434433C43A6
:102080004FF68C76CFF6FE760CEA060747EA0E0787
:102090005C609F614F6809695F631D629F6947F0DB
:1020A00008079F619F6927F004079F6173E100BFE4
:1020B0000368D3F820C01A6AA3F1804722F4803263
:1020C0001A621A46A7F596375D6852F8508FD1F814
:1020D00000E08E684FEAB727072F09D80124BC40DB
:1020E00014F0E50F1EBF4C6925F4803545EA042540
:1020F0002CF4003747EA06474FF68C76CFF6FE768B
:10210000033606EA080646EA0E065D601E654E685E
:1021100009699E641F621F6D47F008071F651F6DE8
:1021200027F004071F6536E1036843F200461D6A85
:102130001A6AC4F2010622F480721A621A46D3F8AF
:1021400004C052F81CEFB3428E68D1F8008025F429
:10215000007545EA062505D042F60046C4F20106A0
:10216000B34207D1CE6840F2FF47360225F44065FE
:10217000BE433543A3F18046A6F596364FEAB62610
:10218000072E0CD8012707FA06F616F0E50F1FBF39
:10219000D1E905672CF44054374344EA071C4FF655
:1021A0008C74CFF6FE740EEA040747EA0807C3F8FA
:1021B00004C0DF614F680969DF631D62DF6947F0B2
:1021C0000807DF61DF6927F00407DF61E3E000BF94
:1021D000036843F200461D6A1A6AC4F2010622F43B
:1021E00080521A621A46D3F804C052F81C8FB342C8
:1021F0008E68D1F800E025F4005545EA063505D093
:1022000042F60046C4F20106B34207D1CE6844F656
:10221000FF77360325F44045BE433543A3F180469E
:10222000A6F596364FEAB626072E0CD8012707FAF0
:1022300006F616F0E50F1FBFD1E905672CF4404400
:10224000374344EA871C48F6FF44CFF6FF6404EAAC
:10225000080444EA0E27C3F804C0DF614F68096927
:102260001F641D62DF6947F40067DF61DF6927F4DF
:102270008067DF618EE000BF036843F200461D6A9D
:102280001A6AC4F2010622F010021A621A465C6849
:1022900052F818CFB3428E68D1F800E025F020053F
:1022A00045EA061505D042F60046C4F20106B342DF
:1022B00007D1CE686FF0400725F0C00507EA061683
:1022C0003543A3F18046A6F596364FEAB626072E8B
:1022D0000CD8012707FA06F616F0E50F1FBFD1E963
:1022E000056724F440643E4344EA860448F6FF460A
:1022F000CFF6FF660CEA060747EA0E275C609F618F
:102300004F6809699F631D629F6947F400679F6179
:102310009F6927F480679F613CE000BF0368D3F8A2
:1023200020C01A6AA3F1804722F480121A621A466A
:10233000A7F596375D6852F8508FD1F800E08E68A7
:102340004FEAB727072F09D80124BC4014F0E50F46
:102350001EBF4C6925F4802545EA84252CF400171E
:1023600047EA065748F6FF46CFF6FF6606F5407681
:1023700006EA080646EA0E265D601E654E68096993
:10238000DE641F621F6D47F400671F651F6D27F431
:1023900080671F6509021368194311600021BDE8B9
:1023A000F041002280F83C200846704701210022BD
:1023B00080F83C2008467047002804BF0120704781
:1023C00010B5044690F83D0028B9002084F83C0080
:1023D000204600F023F8022084F83D002068211DEB
:1023E00000F00CFD012084F8480084F83E0084F8D9
:1023F0003F0084F8400084F8410084F8420084F8EB
:10240000430084F8440084F8450084F8460084F8CA
:10241000470084F83D00002010BD000082B0006835
:1024200040F20041C4F20001884215D042F600415A
:10243000C4F2010188421CD141F25800C4F20200EA
:10244000816841F400618160806800F4006001905F
:10245000019802B0704700BF41F25800C4F2020078
:10246000016841F002010160006800F00200009084
:10247000009802B070470000B0B5044690F83C00E8
:1024800001284FF0020008BFB0BD012584F83C5080
:1024900084F83D00204600F04BFD00284FF001007D
:1024A00006D0002184F83D5084F83C10B0BD00BF38
:1024B0002068C16821F04001C160C16821F48041F9
:1024C000C1600020002184F83D5084F83C10B0BD6C
:1024D00090F88410012904BF022070472421C0F81D
:1024E000881001680A680B6822F0005223F001038B
:1024F0000B60002343660A602021C0F8881080F832
:10250000843000207047000090F88420012A04BF26
:1025100002207047B0B52422C0F888200268D0F8A5
:1025200064E0D2F800C01368BEF1000F23F001038D
:102530001360936823F0606341EA0301916019D04E
:102540009368916843F6381E490FC0F6000E43F6B3
:1025500040151EF80140C0F60005695CC3F34263F4
:10256000E400B4FBF1F11EF80340EB5CE500B5FBC1
:10257000F3F301E001210123A0F86A102021A0F863
:102580006830C2F800C0C0F88810002180F88410BC
:102590000020B0BD90F88420012A04BF02207047BB
:1025A000B0B52422C0F888200268D0F864E0D2F8E0
:1025B00000C01368BEF1000F23F00103136093689D
:1025C00023F0604341EA0301916019D09368916858
:1025D00043F6381E490FC0F6000E43F640151EF8AC
:1025E0000140C0F60005695CC3F34263E400B4FB3C
:1025F000F1F11EF80340EB5CE500B5FBF3F301E0FD
:1026000001210123A0F86A102021A0F86830C2F847
:1026100000C0C0F88810002180F884100020B0BDF0
:1026200010B5D0B10446D0F8880028B9002084F84D
:102630008400204600F026F82420C4F88800206892
:10264000A16A026822F00102026011B1204600F086
:1026500021FD204600F048FE10B1012010BD00BF52
:102660002168486820F490404860886820F02A007B
:102670008860086840F0010220460A60BDE810400A
:1026800000F07CBDB0B598B0044602A80025083023
:102690003C211795CDE91555CDE91355FDF79AFE67
:1026A000206843F60001C4F20101884202D018B04C
:1026B000B0BD00BF0120CDE9020502A8FEF7D0FCA5
:1026C000002818BFFDF7EEFE41F24C00C4F20200F4
:1026D000416941F480414161416901F480410191C6
:1026E0000199016841F001010160006813A900F03F
:1026F0000100019001984FF4C060139002201490E3
:102700000020CDE91500072017904FF09040FEF70C
:1027100093FA18B0B0BD0000FEE7000010B58CB011
:1027200040F27400C2F200004FF0A04100244FF4C8
:10273000403201234FF0040C80E8160002210B9474
:10274000CDE90944CDE90744CDE90544CDE9034489
:10275000CDE90144C0E90344C0E9053C838301623B
:1027600080F82440C0E90B4480F83840C46380F806
:102770004040FEF7CBF8002818BFFDF793FE40F26B
:102780007400C2F2000009A90994FDF791FE002827
:1027900018BFFDF787FE40F60000C2F630600190DA
:1027A00006207F2102900020049104210390CDE9AE
:1027B000051040F27400C2F2000001A9FDF7D8FE36
:1027C000002818BFFDF76EFE2020C1F2F0400190F6
:1027D0000C2002900520039040F27400C2F2000029
:1027E00001A9FDF7C5FE002818BFFDF75BFE0CB080
:1027F00010BD0000B0B588B040F2E00040F200111A
:10280000C2F20000C5F2000100244FF4403204255A
:1028100080E816000121CDE90644C0E90344C0E97F
:1028200005458483016280F82440C0E90B4480F8A8
:102830003840C46380F84040FEF768F8002818BFAD
:10284000FDF730FE48F20000C3F6F060009006206D
:10285000CDE901047F20CDE9030540F2E000C2F29A
:10286000000069460594FDF783FE002818BFFDF7B8
:1028700019FE08B0B0BD00002DE9F04F87B000246C
:1028800041F24C000694CDE90444CDE90244C4F27F
:102890000200016840F2004841F004010160016853
:1028A000C4F6000801F0040101910199016808F5DE
:1028B000806741F0200101600168002201F02001E1
:1028C0000191019901684FF6FF7641F00101016025
:1028D000016801F0010101910199016841F00201D3
:1028E0000160016801F0020101910199016841F064
:1028F0000801016000684FF6FF7100F008000190C8
:1029000001983846FEF772FA4FF090404FF480710C
:1029100000224FF4807AFEF769FA08F50065284630
:10292000042100224FF0040BFEF760FA40464FF4FA
:1029300070710022FEF75AFA029602AE4FF00109BA
:1029400038463146CDE903940594FEF775F94FF00A
:1029500090403146CDE902940494FEF76DF90720CA
:10296000CDE90204404631460494FEF765F94FF084
:1029700090403146CDE902A9CDE90444FEF75CF967
:1029800028463146CDE902B9CDE90444FEF754F9B1
:10299000C02002901120CDE9030440463146059441
:1029A000FEF74AF94FF44070CDE90209404631463E
:1029B000CDE90444FEF740F907B0BDE8F08F000010
:1029C000B0B59EB0002401A834211494CDE912447E
:1029D000CDE91044CDE90E44FDF7FCFC40F24C106B
:1029E00042F60045C2F20000C4F20105A92140F2FE
:1029F000F312C0E90051C0E90242C0E90444846115
:102A0000FFF7DAFC002818BFFDF74CFD40F24C1030
:102A1000C2F2000015A9CDE915441794FFF728F973
:102A2000002818BFFDF73EFD60200E9032200F9069
:102A300040F24C100024C2F200000EA90022CDE9A1
:102A40001044CDE912441494FFF7D2FA002818BFBD
:102A5000FDF728FD4FF40050CDE906044FF000705B
:102A60000594CDE90344CDE90144CDE90844CDE91D
:102A70000A040C9440F24C144FF48040C2F200045B
:102A80000D9001A92046FFF78FF8002818BFFDF729
:102A900009FD206840F20041C4F2000188424FF075
:102AA00000011D91CDE91B11CDE9191112D0A842E9
:102AB0002BD141F24C00C4F20200016841F0010147
:102AC00001600068802100F001001890189806202D
:102AD0000FE000BF41F24C00C4F20200016841F077
:102AE000010101600068402100F001001890189871
:102AF0000220199102211A910021CDE91B111D908C
:102B000019A94FF09040FEF797F81EB0B0BD000035
:102B100010B58CB040F298100021C2F200004FF0C6
:102B20008042A9234FF0FF340A910691CDE90411A8
:102B3000CDE90211CDE90011C0E90023C0E902147A
:102B400001618161FFF7E8F8002818BFFDF7AAFCD2
:102B500040F29810C2F20000FFF716FA002818BFE2
:102B6000FDF7A0FC042007906020089040F2981028
:102B70000024C2F2000007A909940B94FFF77CFC23
:102B8000002818BFFDF78EFC40F29810C2F200003A
:102B900004A904940694FFF76BF8002818BFFDF70A
:102BA00081FC0220CDE9000040F298100024C2F21E
:102BB000000069460022CDE90244FFF711F9002820
:102BC00018BFFDF76FFC0120019040F29810C2F28F
:102BD0000000694604220094FFF702F9002818BF9C
:102BE000FDF760FC0CB010BD70B590B040F2E41081
:102BF00040F200450024C2F20000C4F20005A92101
:102C000040F2E7320894CDE90544CDE90344C0E938
:102C10000051C0E9024204618461FFF7CDFB002846
:102C200018BFFDF73FFC40F2E410C2F2000007A914
:102C300007940994FFF71CF8002818BFFDF732FC31
:102C4000602040F2E41400906420C2F2000401907D
:102C5000002669462046002202960496FFF7C8F92E
:102C6000002818BFFDF71EFC20680F96A842CDE98A
:102C70000D660C960B9615D042F60041C4F2010188
:102C800088422AD141F24C00C4F20200016841F0AE
:102C9000010101600068802100F001000A900A989B
:102CA00006200EE041F24C00C4F20200016841F03F
:102CB000010101600068402100F001000A900A98BB
:102CC00002200B9102210C910021CDE90D110F90F2
:102CD0000BA94FF09040FDF7AFFF10B070BD0000A2
:102CE00080B540F2302043F60001C2F20000C4F289
:102CF00001014FF41652002380E80E0010214FF01E
:102D00000C0C81624FF48051C0E90333C0E905C364
:102D1000C361C0E90833C163FFF782FC002818BF14
:102D2000FDF7C0FB40F23020C2F200000021FFF7A7
:102D300031FC002818BFFDF7B5FB40F23020C2F28D
:102D400000000021FFF7E0FB002818BFFDF7AAFBF9
:102D500040F23020C2F20000FFF7BAFB002808BFA3
:102D600080BDBDE88040FDF79DBB0000FEE7000090
:102D7000FEE700007047000070470000FEF742B811
:102D8000B0B594B0FEF74CF8002400200C94CDE9C7
:102D90000A44CDE90844FEF7D1F8012006904FF42B
:102DA00080300621079002200F9155210D900325B8
:102DB000CDE91010CDE9120006A80E95FEF776FCBD
:102DC000002818BFFDF76EFB0F20CDE9010501A813
:102DD0000421CDE903440594FEF778FA002818BFD2
:102DE000FDF760FB14B0B0BD4EF68850CEF2000087
:102DF000016841F4700101607047000040F2FF7CFF
:102E00000268C4F2000C604524DD40F60003C4F201
:102E10000003984227D043F20043C4F201039842D2
:102E200021D042F60043C4F2010398421BD043F282
:102E3000FF33C4F2010398421FDC604530DCB0F17F
:102E4000804F47D040F20043C4F20003984241D083
:102E500044E000BFB0F1804F05D040F20043C4F21F
:102E600000039842E3D14B6822F070021A4343F208
:102E7000FF33C4F201039842DFDD44F2FF33C4F2B2
:102E8000010398421ADC43F20043C4F20103984262
:102E900020D044F20003C4F2010398421AD01DE08E
:102EA00040F60003C4F20003984213D042F60043F8
:102EB000C4F2010398420DD010E000BF44F60003B5
:102EC000C4F20103984205D044F20043C4F2010366
:102ED000984203D1CB6822F440721A4380B54B6903
:102EE00022F0800E8A6843EA0E03D1F800C0036026
:102EF000C262A0F18042A2F596324FEAB222072ABE
:102F0000C0F828C0BDE8804007D8012303FA02F2C8
:102F100012F0E50F1CBF09690163012141610169DC
:102F2000C90708BF7047016921F0010101617047BD
:102F300080B5D0F800C04FF68872DCF80800CFF6F4
:102F4000CE721040D1E900E34FF6F872CFF6FE7270
:102F50001A40104340EA0E00CCF808005F2B4FF0F7
:102F6000000011DD1F22C0F21002934214DD3F2148
:102F7000C0F210018B4237DC2021C0F210018B42DD
:102F80003CD0302136E000BF2F2B0DDCB3B3102B2B
:102F900034D0202B32D07BE0602B31D0702B49D045
:102FA000B3F1101F2AD073E0302B27D0402B51D023
:102FB000502B6DD188680969DCF82020DCF82030BE
:102FC00022F00A0223F00103CCF82030DCF818309C
:102FD000104323F0F00343EA0111CCF81810CCF8A9
:102FE0002000002080BD00BF4021C0F210018B42B4
:102FF00004D07021C0F210018B4249D180BD00BFC6
:1030000088680969DCF82020DCF8203022F0A00272
:1030100023F01003CCF82030DCF8183042EA00101E
:1030200023F4704343EA0131CCF81810CCF82000A7
:10303000002080BDD1E902020969DCF808301043A4
:1030400023F47F4340EA01201843CCF80800002015
:1030500080BD00BFBEF1050F4FF00100CED0BEF124
:10306000011F08BF80BDDCF82000DCF8202022F022
:103070000102CCF82020DCF81820096922F0F002C7
:1030800042EA0111CCF81810CCF82000002080BDD5
:10309000012080BD816A0A070CD4CA0715D18A07AE
:1030A0001ED44A0727D4CA0630D48A0639D44A0621
:1030B00042D457E00268D0F838C0536823F4004384
:1030C00043EA0C035360CA07E9D00268D0F82CC069
:1030D000536823F4003343EA0C0353608A07E0D5B6
:1030E0000268D0F830C0536823F4803343EA0C03FD
:1030F00053604A07D7D50268D0F834C0536823F428
:10310000802343EA0C035360CA06CED50268D0F888
:103110003CC0936823F4805343EA0C0393608A060F
:10312000C5D50268D0F840C0936823F4005343EA41
:103130000C0393604A0615D5D0F800C0436CDCF848
:103140000420B3F5801F22F4801242EA0302CCF877
:10315000042007D1DCF80420836C22F4C0021A4357
:10316000CCF80420090658BF70470168C06C4A6853
:1031700022F400221043486070470000B0B582B0CE
:1031800004460020C4F89000FDF736FE216805468D
:103190000A68120737D56FF07E4C20464FF40011B5
:1031A00000222B46CDF800C000F0EAF950B300BF72
:1031B000206850E8000F216820F0800041E80002FC
:1031C000DAB1206850E8000F216820F0800041E863
:1031D000000292B1206850E8000F216820F08000C2
:1031E00041E800024AB1206850E8000F216820F051
:1031F000800041E80002002ADAD103202021882241
:103200006BE000BF2168086840075DD56FF07E4C19
:1032100020464FF4800100222B46CDF800C000F07C
:10322000AFF9002850D000BF206850E8000F216897
:1032300020F4907041E80002BAB3206850E8000F13
:10324000216820F4907041E8000272B3206850E8D1
:10325000000F216820F4907041E800022AB3206832
:1032600050E8000F216820F4907041E80002002A25
:10327000DAD11AE0206850E8020F216820F001003E
:1032800041E80202DAB1206850E8020F216820F01C
:10329000010041E8020292B1206850E8020F216863
:1032A00020F0010041E802024AB1206850E8020F14
:1032B000216820F0010041E80202002ADAD103204F
:1032C00020218C2209E000BF2020C4F88800C4F827
:1032D0008C00002170220020E166A150002184F8BA
:1032E000841002B0B0BD000070B5054605F10804B9
:1032F0001ECC0068194341EA0403EE69046846F6EF
:10330000F311CCF6FF71214019433143016041684C
:1033100048F2000C21F4405111434160AA69C4F203
:10332000000C60451CBF296A0A4381684FF2FF43C5
:10333000C1F2FF13194011438160C16AD5F824E03E
:1033400021F00F0141EA0E01C16244F6FF31C4F2DF
:10335000000188424FF0100314DD44F60041C4F22E
:103360000001884222D0604528D043F60001C4F213
:103370000101884238D141F28801C4F202010B6890
:103380007BA22DE044F20041C4F2000188421DD02E
:1033900044F60001C4F20001884225D141F28801BF
:1033A000C4F2020109680B0916E000BF41F288016E
:1033B000C4F2020109688B090EE000BF41F28801E6
:1033C000C4F2020109688B0A06E000BF41F28801DD
:1033D000C4F2020109688B0843F62812C0F6000205
:1033E00003F0030152F82130604542F20040C0F280
:1033F000F40015D0B6F5004F22D1082B4FF0010193
:1034000000F2AD80DFE803F0065C74AB64ABABABFD
:10341000720000BFFEF7DCF8002840F05D809AE003
:10342000082B4FF0010100F29A80DFE803F00598C5
:1034300025981B9898982300FEF7CAF8B0B98AE03F
:10344000082B4FF0010100F28A80DFE803F0053D10
:103450006F88498888886D00FEF7BAF8002842D145
:1034600079E000BFFEF7E0F8002874D0D5F824E03A
:1034700002E000BF4FF4004043F61011C0F6000117
:1034800031F81E106A68B0FBF1F002EB420188428D
:103490004FF0010163D31303984260D8010E00027C
:1034A00010EB520041F100010023FCF71BFF4FF627
:1034B0000052A0F54071C0F20F02914249D34DE095
:1034C000FEF79CF840B946E0FEF798F858B942E09C
:1034D000FEF7AAF800283ED0D5F824E008E000BFA7
:1034E000FEF7A2F8B8B3D5F824E01FE04FF400408F
:1034F00043F61011C0F6000131F81E106A68B0FBE7
:10350000F1F0510801EB4000B0FBF2F04FF6EF7222
:10351000A0F11001914221D84FF6F0710140C0F3A3
:103520004200084415E000BF4FF4004043F610117C
:10353000C0F6000131F81E104FF6EF72B0FBF1F04B
:10354000696800EB5100B0FBF1F0A0F1100191426D
:1035500004D82968C860002101E000BF01214FF0B4
:103560000110A866002208466A67AA6770BD00BFFE
:10357000010000000400000002000000080000003C
:103580002DE9F041804600681546C2690E4611409B
:10359000891BB1FA81F149098D4223D1069C2CB3D4
:1035A000611C29D1C1693140891BB1FA81F14909F6
:1035B0008D4217D1C1693140891BB1FA81F14909A6
:1035C0008D420FD1C1693140891BB1FA81F149099E
:1035D0008D4207D1C1693140891BB1FA81F1490996
:1035E0008D42DFD00020BDE8F08100BFFDF704FC74
:1035F0000320BDE8F08100BF1F4607E0C0693040EE
:10360000801BB0FA80F040098542EBD1FDF7F4FB56
:10361000C01BA04200F2AE80D8F800000168490744
:10362000ECD5402EEAD0802EE8D0C169090700F120
:10363000A580C1690905E1D54FF400610162D8F8A0
:10364000000050E8000FD8F8001020F4907041E816
:1036500000020AB3D8F8000050E8000FD8F80010B4
:1036600020F4907041E80002B2B1D8F8000050E8B0
:10367000000FD8F8001020F4907041E800025AB111
:10368000D8F8000050E8000FD8F8001020F490702F
:1036900041E80002002AD2D14FF6FE70CEF6FF704C
:1036A000D8F8001051E8021FD8F80020014042E885
:1036B0000213F3B1D8F8001051E8021FD8F8002027
:1036C000014042E80213A3B1D8F8001051E8021FEC
:1036D000D8F80020014042E8021353B1D8F8001096
:1036E00051E8021FD8F80020014042E80213002BE5
:1036F000D6D1D8F86C0001282CD1D8F8000050E8B9
:10370000000FD8F8001020F0100041E800020AB3C2
:10371000D8F8000050E8000FD8F8001020F0100092
:1037200041E80002B2B1D8F8000050E8000FD8F824
:10373000001020F0100041E800025AB1D8F8000053
:1037400050E8000FD8F8001020F0100041E8000207
:10375000002AD2D120200021C8F88C00C8F86C10B3
:10376000C8F87410C8F89000032088F88410BDE8E9
:10377000F08100BF0320BDE8F08100BF0821016295
:10378000D8F8000050E8000FD8F8001020F490702E
:1037900041E800020AB3D8F8000050E8000FD8F85A
:1037A000001020F4907041E80002B2B1D8F8000097
:1037B00050E8000FD8F8001020F4907041E80002A3
:1037C0005AB1D8F8000050E8000FD8F8001020F4E3
:1037D000907041E80002002AD2D14FF6FE70CEF67A
:1037E000FF70D8F8001051E8021FD8F800200140FF
:1037F00042E80213F3B1D8F8001051E8021FD8F8DC
:103800000020014042E80213A3B1D8F8001051E8AB
:10381000021FD8F80020014042E8021353B1D8F843
:10382000001051E8021FD8F80020014042E80213BE
:10383000002BD6D1D8F86C0001282CD1D8F8000084
:1038400050E8000FD8F8001020F0100041E8000206
:103850000AB3D8F8000050E8000FD8F8001020F0A4
:10386000100041E80002B2B1D8F8000050E8000FA3
:10387000D8F8001020F0100041E800025AB1D8F842
:10388000000050E8000FD8F8001020F0100041E8C8
:103890000002002AD2D12020C8F88C000020082184
:1038A000C8F86C00C8F87400C8F8901088F8840054
:1038B0000120BDE8F0810000FEE70000FFF760FA9C
:1038C000FEF7DAFFFEF72AFFFEF794FFFFF778F81E
:1038D000FFF71EF9FFF788F9FFF702FAFEE7F1EEAE
:1038E000100A4FF6FF71C0F2C03120EA010040F02B
:1038F0004070E1EE100A7047000000000000000078
:103900000102030406070809000000000102030485
:10391000010002000400060008000A000C0010006C
:1039200020004000800000010000000004000000B2
:10393000020000000800000001010103070100006F
:103940000804020408010101683900080000002091
:10395000100000003C020008783900081000002028
:10396000B80800005C020008100000000100000020
:083970000024F4000000000037
:04000005080001D915
:00000001FF
